:100000000C9434000C9451000C9451000C94510049
:100010000C9451000C9451000C9451000C9451001C
:100020000C9451000C9451000C9451000C9451000C
:100030000C9451000C9451000C9451000C945100FC
:100040000C9451000C9451000C9451000C945100EC
:100050000C9451000C9451000C9451000C945100DC
:100060000C9451000C94510011241FBECFEFD4E02A
:10007000DEBFCDBF11E0A0E0B1E0E8E2FDE002C0EC
:1000800005900D92AC31B107D9F712E0ACE1B1E0C7
:1000900001C01D92A432B107E1F70E9453000C94F5
:1000A00092060C940000AEE1B0E0E9E5F0E00C94BB
:1000B000630680E880936100109261008AE090E01E
:1000C0000E943506209A529828988AE090E00E9473
:1000D0003506289A88EC90E00E94350680E091E091
:1000E0000E94710584E190E00E943506219A299AC8
:1000F000579A5F9866E774E084E10E947E0484E189
:1001000090E00E943506299866E071E080E091E079
:100110000E94410101E0FF2490E7E92E5E0108946E
:10012000A11CB11C88EBC82E8BE0D82E6CE171E0CD
:100130008AEF90E00E94FA04182F449AE982FA822A
:10014000F39420EB34E042E0B5018CE191E00E94B1
:10015000C9014498C6010197F1F7002319F0299AC3
:1001600000E002C0299801E0612F8CE191E00E943B
:100170006101882331F0612F8CE191E00E94B90286
:10018000D5CF612F8CE191E00E947C01882371F230
:1001900080913301813051F680913E01883031F6F3
:1001A000612F8CE191E00E949202C0CF45E050E0C7
:1001B000BC018AE091E00E944D069C0180E0232B67
:1001C00009F481E00895EF92FF920F931F93CF936C
:1001D000DF937C01413061F4685070409B0140E046
:1001E00050E0685F7F4F2F5E3F4F4F4F5F4F12C011
:1001F000423029F020E030E040E050E00BC0685091
:1002000070409B0140E050E0685F7F4F2A5F3F4FA6
:100210004F4F5F4FE7018B010FC0F881E0E089810C
:1002200090E08E2B9F2BA0E0B0E0280F391F4A1FD3
:100230005B1F2296025010400230110570F7FB013F
:10024000EE7FEE0DFF1D60FF0DC0908180E0AA27BC
:1002500097FDA095BA2F02C040705070280F391F2B
:100260004A1F5B1FCA01AA27BB270097A105B1053A
:1002700099F720953095C901CDB7DEB7E6E00C942B
:100280008306AC0120E030E0F901E35EFD4FDB01C5
:10029000A20FB31F8C9180832F5F3F4F2430310515
:1002A00099F720E030E0F901E95EFD4FDA01A20F95
:1002B000B31F8C9180832F5F3F4F2630310599F714
:1002C0000895FC016932B0F08485883099F4858501
:1002D000863081F4DF019696EDE1F2E09C91808119
:1002E000981741F41196319682E0E132F807B1F7A0
:1002F00081E0089580E00895CF93DF93FC016A3296
:10030000B0F08485883099F48585882381F4DF01F5
:10031000EDE1F2E0ED019E8D8081981741F4119698
:10032000319682E0E132F807A9F781E001C080E070
:10033000DF91CF910895FC01A7E1B2E0868180832F
:100340008D918683319682E0AD31B807B9F7089573
:10035000CF93DF93EC01FC01ADE1B2E0828D868F9B
:100360008D91828F319682E0A132B807B9F7188E4D
:10037000198E80E48C8B1D8A8E8B40E064E170E0E6
:10038000CE010E960E94E300988F898FDF91CF9166
:100390000895A0E0B0E0EFECF1E00C946406EC010D
:1003A0006B01B22E132F5EE458833FE6398324E6B7
:1003B0002A8395E69B831C8282E08D835E833F8344
:1003C0002887998780E38A8781E38B87042F4D3DB7
:1003D00008F00CED88E08C871D8685E48E871F86EB
:1003E000188A045E098B30EC3E8F28EA2F8F91E04B
:1003F00098A382E089A34AE1E42EF12CEC0EFD1EC5
:100400003A8F2B8F9C8F9D8F188E198E80E48C8B4A
:100410001D8A8E8B81E18F8B40E064E170E0CE011C
:100420000E960E94E300988F898F8AA18CA38BA1DE
:100430008DA31AA3BBA21EA204510FA3085018A695
:1004400019A6DE019A9620E030E007C0F601E20F1F
:10045000F31F80818D932F5F3F4F2017B8F310E07B
:10046000005F1F4F41E0B801C7010E94E30098A759
:1004700089A7BE01C8014A960E949F04CDB7DEB786
:10048000E9E00C948006A0E0B0E0E9E4F2E00C942E
:100490006606EC017B01D22E132FFC01A7E1B2E02E
:1004A000868180838D918683319682E0AD31B80755
:1004B000B9F7042F4D3D08F00CED188A045E098B46
:1004C000CE010E94A8018AA18CA38BA18DA31AA39F
:1004D000DBA21EA204510FA3085018A619A6DE0124
:1004E0009A9620E030E007C0F701E20FF31F808109
:1004F0008D932F5F3F4F2017B8F310E0005F1F4F21
:1005000041E0B801CE014A960E94E30098A789A76E
:10051000BE01C8014A960E949F04CDB7DEB7E7E04E
:100520000C9482061F93CF93DF93EC01162FFC01EE
:10053000A7E1B2E0868180838D918683319682E047
:10054000AD31B807B9F7CE010E94A8011AA28CA15B
:10055000883F18F08DA18F5F8DA38CA1885F8CA33D
:10056000BE01812F90E00E949F04DF91CF911F91E7
:100570000895CF93DF93AC01EC0127E132E0FC0159
:10058000D901868180838D918683319682E0AD3159
:10059000B807B9F7FA01148A82E0858B8E8988A39F
:1005A000F90181919F018E8B2196F2E02D313F0759
:1005B000A9F7FA017C96ADE1B2E0808182878D9146
:1005C000819382E0A132B807C1F7BA018AE290E0D4
:1005D0000E949F04DF91CF910895CF92DF92FF9206
:1005E0000F931F93DF93CF93CDB7DEB7C25DD0409B
:1005F0000FB6F894DEBF0FBECDBF8C01DE011196A1
:10060000E1E1F1E08AE001900D928150E1F7FE0115
:100610003196DF010D900020E9F79D012150304017
:100620002E1B3F0BF801108283E1818384ED8283CE
:100630008EE983838FE9848380EA8583A7E1B2E032
:100640008D918683319682E0AD31B807C9F7F22EDD
:10065000ACEDA21710F46CEDF62EF801108AFCE157
:10066000FF0EF801F18A5AE1C52ED12CC00ED11E21
:1006700080911D02828F80911E02838F80911F02C4
:10068000848F80912002858F80EC868F88EA878F07
:1006900081E080A385E081A3108E118E80E4848B9D
:1006A000158A868B40E064E170E0C8010E960E94D6
:1006B000E300F801908F818F94E094A380EB85A3F1
:1006C00092A383A316A2FCEEFF0EF801F7A2F8EFA7
:1006D000FF0EF80110A611A6DE011596BE9603C006
:1006E0008D9181939F5F9F15D8F36F2D70E0605FB0
:1006F0007F4F41E0C6010E94E300F80190A781A767
:10070000FE013B9688ECDF011D928A95E9F783E1B3
:100710008C8784ED8D878EE98E878FE98F8780EABD
:10072000888B84E5898B85E58A8B88E58B8B80E1D6
:100730008C8B84E28E8B88E08F8B85E4898F8FE1B0
:100740008C8F82E18D8F84E38E8F80E48F8F8FEF8B
:1007500089A381E18AA386EE8BA38FE38CA330EC7F
:100760003DA328EA2EA381E08FA394E098A739A7A0
:100770002AA78BA785E08CA79DA780EB8EA79FA7B4
:1007800088AB8BE08AAB88E18BAB82E38CAB88E4EF
:100790008DAB85E68EAB8AE68FABBF018EE290E033
:1007A0000E949F04CE52DF4F0FB6F894DEBF0FBEFB
:1007B000CDBFCF91DF911F910F91FF90DF90CF9030
:1007C00008952A98962F9F71982B9EBD0DB407FE11
:1007D000FDCF1EBC0DB407FEFDCF67FF04C01EBCDD
:1007E0000DB407FEFDCF2A9A8EB508952A986F7131
:1007F000682B6EBD0DB407FEFDCF4EBD0DB407FED8
:10080000FDCF2A9A0895AC01FB012A988AE38EBD98
:100810000DB407FEFDCF9A01DF0108C01EBC0DB468
:1008200007FEFDCF215030408EB58D932115310547
:10083000A9F7E40FF51F10822A9A08959C01FB0185
:100840002A988AE78EBD0DB407FEFDCF08C08081CF
:100850008EBD0DB407FEFDCF2150304031962115DD
:100860003105A9F72A9A0895482F282F30E02076DD
:1008700030708091210290E028173907F9F02A980A
:100880008FEB8EBD0DB407FEFDCF83E08EBD0DB4A2
:1008900007FEFDCF2A9A2A988FE98EBD0DB407FE78
:1008A000FDCF85E0359527958A95E1F72EBD0DB4EE
:1008B00007FEFDCF2A9A40764093210208951F93A8
:1008C000182F0E943404612F80E00E94E1031F91E1
:1008D00008950F931F93182F062F0E9434042A980F
:1008E0001F7110641EBD0DB407FEFDCF0EBD0DB40B
:1008F00007FEFDCF2A9A1F910F9108950F931F9322
:10090000162F072F682F84ED0E946904612F86ED52
:100910000E946904602F87ED0E94690418E203C0F9
:10092000812F8A95F1F78AEE0E945F0480FDF8CF4F
:100930001F910F91089582E70E945F0408950F931D
:100940001F93CF93DF93EC018B016FEF82E00E9446
:10095000690469E183E00E946904CE018150682F37
:1009600086E00E946904CE018150964E692F87E08F
:100970000E9469042A988AE78EBD0DB407FEFDCF58
:100980001EBC0DB407FEFDCF2A9A2A988AE78EBDB9
:100990000DB407FEFDCF09C0F80180818EBD0DB4F6
:1009A00007FEFDCF21970F5F1F4F2097A9F72A9AC7
:1009B0002A988FE98EBD0DB407FEFDCF88E08EBD6D
:1009C0000DB407FEFDCF2A9A8CE10E945F0481FFDF
:1009D0000CC02A988FEB8EBD0DB407FEFDCF88E0CA
:1009E0008EBD0DB407FEFDCF2A9ADF91CF911F91E6
:1009F0000F910895A0E0B0E0E0E0F5E00C9463060C
:100A00006C015B0189E30E945F04882319F400E014
:100A100010E061C0609122021091230280E00E94E8
:100A20006904612F81E00E94690460E08AE30E940A
:100A3000E103182F60E08AE30E94E103382F20E0F1
:100A4000C12FD0E0C22BD32BD0932302C09322021C
:100A500060E08AE30E94E103E82E60E08AE30E94FE
:100A6000E103F82E60E08AE30E94E103082F10E022
:100A700060E08AE30E94E103382F20E0202B312B35
:100A800027FD03C000E010E012C00E2D10E09F2DE6
:100A900080E0082B192BC6010197045010408017E5
:100AA000910708F48C01B501C8010E9403046C2F62
:100AB0008CE00E9469046D2F8DE00E9469042A98E1
:100AC0008EE98EBD0DB407FEFDCF80E48EBD0DB462
:100AD00007FEFDCF2A9AC801CDB7DEB7EAE00C9435
:100AE0007F06CF93DF93EC01229A2A9A84B18C621D
:100AF00084B924982A9A2B982D9880E58CBD8DB5C1
:100B000081608DBD2A988FEF8EBD0DB407FEFDCF9D
:100B10008FEF8EBD0DB407FEFDCF2A9A82E390E0E1
:100B20000E943506109223021092220260E088E0B3
:100B30000E94690460E089E00E94690460E08CE042
:100B40000E94690460E08DE00E9469046EEF8AE013
:100B50000E94690469E18BE00E9469046FEF84E000
:100B60000E94690469E185E00E9469046FEF86E0F4
:100B70000E9469046FE187E00E94690460EB88E3EA
:100B80000E9469046FE388E20E94690460E389E2DD
:100B90000E94690469EF80E30E94690467EF81E3C2
:100BA0000E9469046DE080EC0E94690460E081ECC1
:100BB0000E9469042A9882E88EBD0DB407FEFDCF1D
:100BC00082E38EBD0DB407FEFDCF2A9A62E186EC6A
:100BD0000E9469046CE087EC0E94690462E184EC85
:100BE0000E94690464EF8AEC0E94690461E08BEC66
:100BF0000E946904688184EE0E946904698185EE1F
:100C00000E9469046A8182EE0E9469046B8183EE0E
:100C10000E9469046C8180EE0E9469046D8181EEFE
:100C20000E94690460E071E080E10E947E048FE12F
:100C30000E9434042A988BE98EBD0DB407FEFDCFC7
:100C400080EC8EBD0DB407FEFDCF2A9A2A988FE95D
:100C50008EBD0DB407FEFDCF84E08EBD0DB407FE42
:100C6000FDCF2A9ADF91CF91089520E837E004C0A4
:100C7000F9013197F1F701970097D1F708952FE027
:100C800088E190E00FB6F894A895809360000FBEBD
:100C9000209360000895A8950895FB01DC01415060
:100CA000504030F08D910190801919F40020B9F76F
:100CB000881B990B08952F923F924F925F926F92EB
:100CC0007F928F929F92AF92BF92CF92DF92EF92DC
:100CD000FF920F931F93CF93DF93CDB7DEB7CA1B5D
:100CE000DB0B0FB6F894DEBF0FBECDBF09942A8888
:100CF000398848885F846E847D848C849B84AA8430
:100D0000B984C884DF80EE80FD800C811B81AA81BC
:100D1000B981CE0FD11D0FB6F894DEBF0FBECDBF87
:080D2000ED010895F894FFCFE6
:100D28004E6F64653031C0A80101736563726574E4
:0C0D3800007465737470616B6B650000E3
:00000001FF
