:1000000019C033C032C031C030C02FC02EC02DC087
:100010002CC02BC02AC029C028C027C026C025C09C
:1000200024C023C022C021C020C01FC01EC01DC0CC
:100030001CC01BC011241FBECFEFD4E0DEBFCDBF5C
:1000400011E0A0E0B1E0E6EBF0E002C005900D9217
:10005000A030B107D9F711E0A0E0B1E001C01D92D6
:10006000A030B107E1F70CD024C0CACF20E837E0B8
:1000700004C0F9013197F1F701970097D1F708957E
:1000800080E88093610010926100219A20E837E0B7
:10009000299884EF91E0F9013197F1F70197D9F7A9
:1000A000299A84EF91E0F9013197F1F70197D9F797
:0600B000EFCFF894FFCF32
:00000001FF
