:100000000C94C4000C94E3000C94E3000C94E30003
:100010000C94E3000C94E3000C94E3000C94E300D4
:100020000C94E3000C94E5000C94E3000C94E300C2
:100030000C94E3000C94E3000C94E3000C94E300B4
:100040000C94D1220C94E3000C9412250C94E30040
:100050000C94E3000C9439230C94E3000C94E3001B
:100060000C94E3000C94E3000C94E3000C94E30084
:100070000C94E3000C94E3000C94E3000C94E30074
:100080000C94E3000C9463230C94E3000C94E300C1
:100090000C94E30086178E17E317E917A618A61825
:1000A000A618A618A618A6186E1873187518811821
:1000B0009418451CB21C491DBA1DF41D3B1E7F1E21
:1000C000141FC51F431CBF2072633D25640A004FE7
:1000D00070656E696E672066696C652025730A001D
:1000E00046726565206C6F67206E722025640A0079
:1000F00072633D25640A006F70656E20646972202A
:100100000A0072633D25640A00496E697469616C76
:10011000697A65206C6F676963616C2064726963DA
:100120006520300A0072633D25640A0074657374AB
:10013000322025642025642025642025640A00746B
:100140006573742025642025642025642025640AB5
:1001500000496E697469616C697A65206469736BC2
:1001600020300A0025642D25642D25645425643A29
:1001700025643A25640A0053797374656D2073749D
:1001800061727465740A000011241FBECFEFD0E1C4
:10019000DEBFCDBF13E0A0E0B1E0E8E1FAE500E0AA
:1001A0000BBF02C007900D92A432B107D9F71AE035
:1001B000A4E2B3E001C01D92A636B107E1F70E94A8
:1001C00074010C940A2D0C9400001F920F920FB62C
:1001D0000F920BB60F9211242F933F934F935F937F
:1001E0006F937F938F939F93AF93BF93EF93FF93FF
:1001F000809186059091870501969093870580935D
:1002000086050E94BB18FF91EF91BF91AF919F911E
:100210008F917F916F915F914F913F912F910F90AF
:100220000BBE0F900FBE0F901F901895A8E0B0E086
:10023000ECE1F1E00C94862CCE0101960E94781935
:100240002C8130E040E050E0A901332722278B8148
:1002500090E0A0E0B0E0F5E1880F991FAA1FBB1F56
:10026000FA95D1F7282B392B4A2B5B2B8E8190E006
:10027000A0E0B0E0EBE0880F991FAA1FBB1FEA9532
:10028000D1F7282B392B4A2B5B2B8F8190E0A0E0F4
:10029000B0E075E0880F991FAA1FBB1F7A95D1F7B0
:1002A000282B392B4A2B5B2B8885869590E0A0E084
:1002B000B0E0282B392B4A2B5B2B89819A818C5BF0
:1002C0009740A0E0B0E069E1880F991FAA1FBB1F0B
:1002D0006A95D1F7282B392B4A2B5B2BB901CA0120
:1002E0002896E2E00C94A22CAEE5B0E0EAE7F1E05B
:1002F0000C94822C0E94F12389E58093B3008DE059
:100300008093B00082E08093700084E687BD84B55E
:10031000856084BD80916E00826080936E000E9433
:10032000341A80E00E94ED1B0E94980381EC93E058
:1003300090933903809338038FEF9FEDA0E18150B4
:100340009040A040E1F700C0000000D087E791E0B6
:10035000ADB7BEB712969C938E9311970E947026EC
:100360000F900F90CE0101960E947819EDB7FEB75D
:100370003E970FB6F894FEBF0FBEEDBF319684E6F0
:1003800091E0ADB7BEB712969C938E931197898179
:100390009A81938382838B81848315828C81868367
:1003A00017828E81808711868F8182871386888548
:1003B000848715860E947026EDB7FEB73C960FB66F
:1003C000F894FEBF0FBEEDBF81E591E0928381837B
:1003D0000E9470268DB79EB708970FB6F8949EBFFF
:1003E0000FBE8DBFEDB7FEB731968FE391E0ADB78D
:1003F000BEB712969C938E93119782E090E0938300
:10040000828321E030E0358324839783868391873C
:1004100080870E947026EDB7FEB731968CE291E09E
:10042000ADB7BEB712969C938E93119780E190E082
:100430009383828315821482978386831186108624
:100440000E947026EDB7FEB73A960FB6F894FEBF3D
:100450000FBEEDBF80E00E94D91500D000D0EDB7EF
:10046000FEB7319625E231E0ADB7BEB712963C93A8
:100470002E931197828313820E9470260F900F9003
:1004800089E091E0EDB7FEB7928381830E947026E8
:100490000F900F9080E06AE373E00E94210C00D07F
:1004A00000D022E031E0ADB7BEB712963C932E9358
:1004B000119714969C938E9313970E9470260F9019
:1004C0000F9087EF90E0EDB7FEB7928381830E9493
:1004D00070260F900F908E01075D1F4FC80160E0DE
:1004E00071E00E94A51300D000D020EF30E0ADB73E
:1004F000BEB712963C932E93119714969C938E93AD
:1005000013970E9470260F900F900F900F90C801C4
:100510000E9430247C0100D000D080EE90E0EDB746
:10052000FEB792838183F482E3820E9470260F904B
:100530000F900F900F908E010F5E1F4FC701B801F3
:100540004AE050E00E94D12C00D000D08FEC90E027
:10055000ADB7BEB712969C938E93119714961C93C9
:100560000E9313970E9470260F900F900F900F908C
:10057000BFE3EB2EF12CEC0EFD1EC701B80146E0E7
:100580000E943A0C00D000D028EC30E0EDB7FEB766
:1005900032832183948383830E9470260F900F906F
:1005A0000F900F90C7010E94D0108FEF9FEBA1E238
:1005B00081509040A040E1F700C00000CE010996B4
:1005C0009CA38BA31DA2CE014B9665E848E00E9438
:1005D000BD2210928F0910928E09ECE8F9E010927A
:1005E0008D0910928C09168289E790E095838483A7
:1005F00078948091DB0080688093DB008091DB0041
:1006000080618093DB008091DB0080628093DB005F
:100610000E94B1248FEF9FEBA1E281509040A04057
:10062000E1F700C00000F4CF9091C00095FFFCCF2F
:100630008093C60008959091C80095FFFCCF8093E9
:10064000CE0008956F927F928F929F92AF92BF9249
:10065000CF92DF92EF92FF920F931F937B018C0159
:1006600059016A0120E030E040E051E40E94D128C5
:1006700020E030EC48E25BE40E9473283B014C012F
:10068000C801B70120E030E040E851E40E94D128E1
:100690009B01AC01C401B3010E94CB2920E030E0F2
:1006A00040E85FE30E94A0280E94792A7B01C601EE
:1006B000B50120E030E040E051E40E94D12820E084
:1006C00030EC48E25BE40E9473283B014C01C60118
:1006D000B50120E030E040E851E40E94D1289B01C0
:1006E000AC01C401B3010E94CB2920E030E040E816
:1006F0005FE30E94A0280E94792AE092C400EF2CB8
:10070000FF0CFF08E092C5006093CC00672F770FC5
:10071000770B6093CD001F910F91FF90EF90DF90CA
:10072000CF90BF90AF909F908F907F906F900895E3
:1007300088E98093C10086E08093C20098E190939D
:10074000C9008093CA0060E070E086E996E420E08A
:1007500030E041EE57E40E94220308958091C000EA
:1007600087FFFCCF8091C6000895982F862F99238C
:1007700029F0913029F40E941B0308950E9414036C
:1007800008950E941B030895EF92FF92CF93DF9389
:10079000E82EE7017E01F92EE70102C00E94140352
:1007A00089918823D9F7DF91CF91FF90EF90089539
:1007B0000E941B030895EF92FF92CF93DF93E82EE0
:1007C000E7017E01F92EE70102C00E941B03899117
:1007D0008823D9F7DF91CF91FF90EF900895282FCC
:1007E000392FD901862F972FFC0102C081918D935B
:1007F000415050408FEF4F3F5807C1F70895FC011B
:10080000009781F08081882369F08681978186171F
:10081000970741F481810E94821680FF06C023E081
:1008200030E005C029E030E002C020E030E0C9013E
:100830000895A0E0B0E0EFE1F4E00C947A2CEC0134
:100840004A015B01CEA4DFA4E8A8F9A8C416D50626
:10085000E606F70609F44BC08C818823A1F182E3F8
:10086000682E712C6C0E7D1E8981B301A701960143
:1008700001E00E94DF160097E9F51C828A8D9B8DAE
:10088000AC8DBD8D2AA13BA14CA15DA1820F931F10
:10089000A41FB51FC816D906EA06FB06A0F41B81E3
:1008A00010C08A8D9B8DAC8DBD8DC80ED91EEA1EE1
:1008B000FB1E8981B301A701960101E00E94DF16AA
:1008C0001150123070F781149104A104B10479F031
:1008D000BE016E5C7F4F8981A501940101E00E94F9
:1008E0008916009739F48EA69FA6A8AAB9AA20E077
:1008F00030E002C021E030E0C901CDB7DEB7EEE064
:100900000C94962CEF92FF920F93CF93DF93EC0110
:100910009A01AB0192E3E92EF12CEC0EFD1E8981C8
:10092000B70101E00E948916009741F5FE01E05DE4
:10093000FD4F808191812AEA8535920709F5F701FB
:1009400086A997A9A0ADB1ADB0708634F1E49F0738
:10095000F4E5AF07F0E0BF07A9F0CC57DF4F2881DF
:1009600039814A815B81507081E0263491E43907F6
:1009700094E5490790E0590731F404C083E003C0CF
:1009800082E001C080E0DF91CF910F91FF90EF9066
:100990000895A0E0B0E0EFECF4E00C947B2CEC01C7
:1009A0007A018B01423051056105710508F497C049
:1009B0008E8D9F8DA8A1B9A1481759076A077B079B
:1009C00008F08DC08AA09BA0ACA0BDA08881823019
:1009D00009F44FC0833009F464C0813009F084C049
:1009E0006A01D694C794C40ED51EA601452F55277B
:1009F000469560E070E0480D591D6A1D7B1DCE01D3
:100A00000E941904009709F06FC0F601F170EC0F15
:100A1000FD1F72A80894C11CD11CA601452F5527A3
:100A2000469560E070E0480D591D6A1D7B1DCE01A2
:100A30000E941904009709F057C0272D30E0F601F5
:100A4000F170EC0FFD1F92A980E0282B392B81E07B
:100A5000E822FF24E114F10431F064E03695279593
:100A60006A95E1F71BC040E050E03F704070507065
:100A70003EC07727612F502F4F2D480D591D6A1DFD
:100A80007B1DCE010E941904009771F5F701EE0F4E
:100A9000FF1FF170EC0FFD1F22A933A940E050E0C9
:100AA00026C037E076956795579547953A95D1F7E3
:100AB000480D591D6A1D7B1DCE010E941904009727
:100AC00099F4F701EE0FFF1FEE0FFF1FF170EC0F0F
:100AD000FD1F22A933A944A955A95F7008C021E0D0
:100AE00030E040E050E003C02FEF3FEFA901B90133
:100AF000CA01CDB7DEB7EDE00C94972CA0E0B0E0D2
:100B0000E4E8F5E00C94782CEC016A017B01280103
:100B10003901423051056105710508F4AEC08E8D72
:100B20009F8DA8A1B9A1481759076A077B0708F04C
:100B3000A4C08AA09BA0ACA0BDA08881823009F48B
:100B400062C0833009F476C0813009F091C08A0117
:100B500016950795040F151FA801452F5527469593
:100B600060E070E0480D591D6A1D7B1DCE010E949A
:100B700019049C01009709F07DC0C8019170E1E063
:100B8000CE22DD24C114D10451F0FE01E80FF91F7B
:100B900032A93F70242D2295207F232B01C0242DC4
:100BA0008C0F9D1FFC0122AB0F5F1F4F81E08C83D8
:100BB000A801452F5527469560E070E0480D591D66
:100BC0006A1D7B1DCE010E9419049C01009709F04B
:100BD00051C01170C114D10449F044E07694679477
:100BE000579447944A95D1F7842D08C0FE01E00F31
:100BF000F11F82A9807F952D9F70892B0C0F1D1FDF
:100C0000F80182AB37C0452F562F672F7727480D45
:100C1000591D6A1D7B1DCE010E9419049C0100977D
:100C200049F5F601EE0FFF1FF170EC0FFD1F53AAFF
:100C300042AA20C0B7E07695679557954795BA9533
:100C4000D1F7480D591D6A1D7B1DCE010E94190464
:100C50009C01009779F4F601EE0FFF1FEE0FFF1FC6
:100C6000F170EC0FFD1F42AA53AA64AA75AA02C034
:100C700022E030E081E08C8302C022E030E0C90154
:100C8000CDB7DEB7E0E10C94942CA4E0B0E0EBE447
:100C9000F6E00C94762C1C012A013B01DC015E96E7
:100CA0008D919D910D90BC91A02D89839A83AB83EA
:100CB000BC83411551056105710581F4F101828400
:100CC0009384A484B58481149104A104B104F1F047
:100CD00088169906AA06BB06C8F41DC0C1010E9469
:100CE000C9049B01AC01623071058105910508F4CE
:100CF00088C089819A81AB81BC81281739074A074E
:100D00005B0708F48DC05301420105C0A1E08A2EA3
:100D1000912CA12CB12C750164010894C11CD11C2B
:100D2000E11CF11C89819A81AB81BC81C816D9066E
:100D3000EA06FB0660F092E089169104A104B10472
:100D400008F464C0F2E0CF2ED12CE12CF12CC101CB
:100D5000B701A6010E94C9049B01AC016115710590
:100D600081059105A9F06F3FAFEF7A07AFEF8A07D2
:100D7000AFEF9A0709F454C0613071058105910500
:100D800009F44EC0C814D904EA04FB0431F63EC08D
:100D90008C2CBD2CAE2C9F2CC101A601B7010FEFEE
:100DA0001FEF2FEF3FE00E947E05009799F5411459
:100DB00051046104710449F0C101B301A20186012B
:100DC00097010E947E05009729F5F1018286B3867E
:100DD000A486958686859785A089B1898F3FFFEF88
:100DE0009F07FFEFAF07FFEFBF07C1F00197A10912
:100DF000B109F10186879787A08BB18B81E085834C
:100E00000DC021E030E040E050E00AC020E030E0DA
:100E1000A90106C02FEF3FEFA90102C0A70196016B
:100E2000B901CA012496E2E10C94922CCF93DF938E
:100E3000EC01CB01BA0162507040804090402E8D91
:100E40003F8D48A159A12250304040405040621788
:100E500073078407950788F42A8130E040E050E06A
:100E60000E94022C9B01AC018AA59BA5ACA5BDA547
:100E7000280F391F4A1F5B1F03C020E030E0A90183
:100E8000B901CA01DF91CF910895A0E0B0E0EBE491
:100E9000F7E00C947C2CEC015B01CC80DD800894A5
:100EA000C11CD11CC114D10409F4EEC08E859F85EC
:100EB000A889B9890097A105B10509F4E5C02FE01B
:100EC000822E912C8C209D208114910409F0CBC09E
:100ED0000196A11DB11D8E879F87A88BB98B4A856E
:100EE0005B856C857D8588819981411551056105FA
:100EF000710541F4FC0180859185C816D90608F476
:100F0000B2C0C2C0FC01228130E021503040F60165
:100F1000A4E0F695E795AA95E1F72E233F23211546
:100F2000310509F0A0C00E94C9047B018C01623028
:100F300071058105910508F4ADC08FEFE8168FEFBC
:100F4000F8068FEF08078FEF180709F4A6C088810D
:100F50009981FC01268D378D40A151A1E216F3063F
:100F60000407150708F471C0A114B10409F48CC07A
:100F70004A855B856C857D850E9445067B018C01D9
:100F8000611571058105910509F481C06130710514
:100F90008105910509F47EC08FEFE8168FEFF80602
:100FA0008FEF08078FEF180709F477C088819981C0
:100FB00040E050E0BA010E941904009709F06DC0AA
:100FC00088819981FC01F2968E5C9D4F01C011923F
:100FD000E817F907E1F7A880B980C501B801A701B2
:100FE0000E941607F50166A777A780AB91ABBB24DB
:100FF000AA24A39419C0A4828881998140E050E07A
:10100000BA010E941904009709F047C0E881F981EC
:1010100086A597A5A0A9B1A90196A11DB11D86A776
:1010200097A7A0ABB1ABB394E881F9818281B816E0
:1010300010F386A597A5A0A9B1A98B199109A109BB
:10104000B10986A797A7A0ABB1ABEA86FB860C8750
:101050001D8788819981B801A7010E9416076E87B4
:101060007F87888B998BDD82CC8288819981C2961B
:10107000B5E0880C991CBA95E1F7880D991D9B8BFA
:101080008A8B20E030E00BC024E030E008C027E08D
:1010900030E005C022E030E002C021E030E0C901CC
:1010A000CDB7DEB7ECE00C94982C0F931F93CF9341
:1010B000DF93EC011D821C824E815F8168857985FA
:1010C000413051056105710509F469C00881198134
:1010D000F801868D978DA0A1B1A1481759076A071D
:1010E0007B0708F05CC04115510561057105F9F4F5
:1010F0008081833049F446A157A160A571A54115AF
:1011000051056105710599F41A861B861C861D869A
:10111000F80180859185009709F441C086A197A1C7
:10112000A0A5B1A58E879F87A88BB98B2EC0F8018B
:1011300082818823F9F4888199810E94C904AB01D6
:10114000BC014F3FFFEF5F07FFEF6F07FFEF7F0728
:1011500019F1423051056105710508F1E881F98105
:10116000868D978DA0A1B1A1481759076A077B0703
:1011700010F315C04A875B876C877D87C8010E9482
:1011800016076E877F87888B998B0E5C1F4F1B8B92
:101190000A8B20E030E005C021E030E002C022E010
:1011A00030E0C901DF91CF911F910F910895A0E028
:1011B000B0E0EDEDF8E00C947E2CEC01862F972F3B
:1011C0008C01DC012C9101962032D1F32F3211F0E9
:1011D0002C3539F40F5F1F4F1E821F821886198627
:1011E0000AC0E881F98186899789A08DB18D8E83A7
:1011F0009F83A887B987F8018081803238F4CE01B7
:101200000E9455089C011B8A1A8A20C150E2B52E03
:1012100045E0A42EEC89FD89DF01CF010B9601C0CA
:10122000BD92A817B907E1F7D8018C918E3241F031
:1012300080E090E020E030E048E050E0DD2420C095
:101240008083D80111962C9111972E3239F4218385
:1012500012962C91129783E090E002C082E090E019
:101260002F3229F02C3519F0213208F0EAC0080F8E
:10127000191F213210F484E201C080E28387ECC0A0
:10128000D801A20FB31FCC902F5F3F4FBC2DB132BE
:1012900008F467C0BF3209F466C0BC3509F463C006
:1012A000BE3219F0841795077CF04830510509F0DB
:1012B000C8C06C2D6E3209F0C4C0DD0CDD0C88E0B6
:1012C00090E04BE050E0DCCFC7FE02C0A3E0DA2A9A
:1012D0006C2D61586F3118F06F556D31F8F4D801ED
:1012E000A20FB31FEC906E2D60546F3320F060544A
:1012F0006D3708F0A6C0BA01615070408617970795
:101300000CF09FC02F5F3F4FDF01A80FB91FCC9299
:101310000196DF01A80FB91FEC9221C0EC2CFF242D
:10132000A3E0B1E06D91662339F0772767FD7095F2
:101330006E157F05B9F785C06C2D61546A3118F4BC
:10134000B2E0DB2A08C06C2D61566A3120F461E0FE
:10135000D62AA0EECA0EDF01A80FB91FCC920196C3
:101360008FCF64E001C060E0009709F46AC080811B
:10137000853E09F4A0824830510511F4DD0CDD0CE6
:101380008D2D90E0AC01437050704130510509F44F
:1013900060618C7090708430910509F46860020F70
:1013A000131F638759C04E855F8568897989888155
:1013B00099810E9419049C010097D9F4EA89FB895C
:1013C00080818823A1F0838583FD0BC0AC89BD8912
:1013D000CF010B96E817F90761F051914D91541721
:1013E000C9F3CE0160E070E00E94450738C024E0F8
:1013F00030E0EC89FD89838584702115310531F059
:101400002430310519F58823F9F020C08823F1F440
:10141000EA89FB89838584FF17C084899589A0E0C8
:10142000B0E0DC0199278827228D338D40E050E021
:10143000822B932BA42BB52B8E839F83A887B987F0
:10144000E9CE26E030E002C025E030E0C901CDB7AA
:10145000DEB7EAE00C949A2CCE010E9455089C015C
:10146000009709F4A0CFC5CFA6E0B0E0EAE3FAE028
:101470000C94762CFC01142FA081B1818C919927BA
:1014800087FD9095C0978A30910548F411962C916C
:1014900011972A3321F41296B183A08303C080915F
:1014A000240390E0009709F0A6C120912503309114
:1014B00026033E832D83DB0111963C932E93211549
:1014C000310509F49BC1F9018081882359F081819C
:1014D0000E94821680FD06C0112309F492C182FF8A
:1014E00090C195C1AD81BE811C9211961C9280E085
:1014F0000E94D91580FD88C1112311F082FD87C19A
:101500008D819E8140E050E0BA010E9482048130CA
:10151000B9F4ED81FE81EC50FE4F8081882309F4FF
:101520007CC1ED81FE81E850FE4F60807180828039
:1015300093808D819E81B401A3010E94820403C027
:10154000662477244301833009F464C1882309F0B9
:1015500064C1A2E3EA2EF12CED81FE81EE0EFF1EA6
:10156000D7011B968D919C911C97B2E080309B0710
:1015700009F053C1F7016689778980E090E0611531
:1015800071058105910521F464A175A186A197A13A
:10159000AD81BE815A966D937D938D939C935D979B
:1015A000FD01EE5BFF4F208113962C9330E040E06D
:1015B00050E00E94022C1B012C01F701A684B78485
:1015C000CC24DD24A60CB71CC81CD91CAD81BE815F
:1015D0009296AD92BD92CD92DC929597DF96EC916A
:1015E000DF971296EC93D70151964D915C915297EB
:1015F000AD81BE8119965C934E931897D70153968F
:101600006D917C91549780E090E0611571058105A2
:10161000910531F490966D917D918D919C91939768
:10162000F4E056954795FA95E1F78A0120E030E01D
:1016300009831A832B833C83D7011E960D911C913D
:101640001F9720E030E0601B710B820B930B621937
:1016500073098409950909811A812B813C81601BDA
:10166000710B820B930B2E2F30E040E050E00E9474
:10167000542C2E5F3F4F4F4F5F4FAD81BE815E9622
:101680002D933D934D935C939197273FBFE03B078C
:10169000B0E04B07B0E05B0758F0273FEFEF3E07A5
:1016A000E0E04E07E0E05E0708F0BEC012E001C0D7
:1016B00011E0D201C1018A0D9B1DAC1DBD1DED8144
:1016C000FE8186A397A3A0A7B1A729813A814B8168
:1016D0005C81A20EB31EC41ED51EA20CB31CC41C7A
:1016E000D51CAD81BE819A96AD92BD92CD92DC9211
:1016F0009D978FEF9FEFDC01ED81FE8186879787B5
:10170000A08BB18B1482133009F05CC01582D70115
:10171000D0962D913C91D19740E050E0260D371D99
:10172000481D591DED81FE81228B338B448B558BD7
:10173000BF016E5C7F4F818101E00E948916009796
:1017400009F040C0F701E250FE4F80819181FAEA32
:1017500085359F07B9F5ED81FE8182A993A9A4A9DA
:10176000B5A98235F2E59F07F1E6AF07F1E4BF07BF
:1017700049F5F701EC51FE4F80819181A281B3813F
:10178000823702E7900701E4A00701E6B007D1F431
:10179000F701E451FE4F80819181A281B381ED81F7
:1017A000FE8182879387A487B587F701E851FE4FB2
:1017B00080819181A281B381ED81FE8186879787A7
:1017C000A08BB18BAD81BE811C93ED81FE8116A6ED
:1017D00017A610AA11AA168A178A108E118E809148
:1017E0002703909128030196909328038093270361
:1017F0009783868306C02BE030E011C02CE030E0F8
:101800000EC020E030E00BC023E030E008C02AE04A
:1018100030E005C021E030E002C02DE030E0C90139
:101820002696E2E10C94922CF70184A595A5A6A535
:10183000B7A5ED81FE8186A397A3A0A7B1A713E06A
:1018400044CF882399F4E0912503F0912603309743
:1018500009F010826115710511F0FB01108270937F
:1018600026036093250320E030E002C02BE030E047
:10187000C9010895ADE2B0E0E0E4FCE00C94762C00
:101880006C017CA36BA3DC011D921C92B42FBF7171
:10189000BDA38E01035F1F4F4E71CE018396B80129
:1018A0000E94340A009709F096C1CE0101969AA3CE
:1018B00089A36BA17CA1C8010E94D7089C01EDA15E
:1018C0008E2F90E0AC014C7150704115510509F418
:1018D0001BC12115310509F44EC02430310509F032
:1018E00084C1C8010E9455089C01009709F07DC180
:1018F000E02E012F4B8D5C8D6D8D7E8D8D859E85AF
:101900000E9419049C01009709F06FC1EF8DF8A1A6
:101910008081853E09F46EC1882309F46BC18E2D48
:10192000902F61E070E00E9445079C01009711F341
:101930005CC10F8D18A1F801C801809601C01192F9
:10194000E817F907E1F769A17AA1C8014BE050E077
:101950000E94EF03E9A1FAA183858871D8011C9642
:101960008C93ED85FE8581E08483BDA1B860BDA325
:10197000EF8CF8A0B4C0E2FD30C1EF8CF8A0E11408
:10198000F10409F430C1F7012385217109F02BC15D
:1019900083FFA5C02488358844245524210133249D
:1019A0002224828D938DA0E0B0E0282A392A4A2A89
:1019B0005B2A158A148A138E128ED7015C961D92AB
:1019C0001D921D921C925F97AD84BE8481E0F5014B
:1019D0008483D5019E968D919D910D90BC91A02DF3
:1019E0008AA79BA7ACA7BDA72114310441045104C9
:1019F00009F469C0B1E02B1631044104510409F423
:101A00005CC0868D978DA0A1B1A1281639064A0623
:101A10005B0608F052C04201310143C0C501B40168
:101A2000A3010E94C9046EA37FA388A799A761158B
:101A300071058105910509F4EAC0613071058105E0
:101A40009105D9F16F3FFFEF7F07FFEF8F07FFEFA2
:101A50009F07B1F1C501B401A30100E010E09801B6
:101A60000E947E059C01009709F0BFC0F5018685A4
:101A70009785A089B1898F3FFFEF9F07FFEFAF07E1
:101A8000FFEFBF0751F00196A11DB11DF50186873B
:101A90009787A08BB18B21E025836EA07FA088A4BF
:101AA00099A4F501868D978DA0A1B1A1681679063C
:101AB0008A069B0608F4B2CFAAC022E030E095C0A7
:101AC00021E030E092C08D859E854AA55BA56CA57E
:101AD0007DA50E9419049C01009709F086C0FDA114
:101AE000F3FF26C0D7011B961C920E941601F70136
:101AF00066877787808B918BED85FE8581E0848377
:101B0000FDA1F062FDA314C02115310509F06DC0DF
:101B1000EF8CF8A0E114F10409F462C0D7011B9620
:101B20002C911B9724FD5CC0E1FF02C020FD5BC02F
:101B30006D857E85FB0126A537A540A951A9D60153
:101B40005A962D933D934D935C935D978F8D98A1FD
:101B50005F969C938E935E97EDA11496EC93D701BC
:101B600054968D919C915597A0E0B0E0DC019927A7
:101B70008827F701228D338D40E050E0822B932B94
:101B8000A42BB52BF60186879787A08BB18BF70125
:101B9000848D958DA68DB78DF60182879387A48756
:101BA000B587D60116961D921D921D921C9219970B
:101BB0008FEF15968C93168A178A108E118E71836B
:101BC0006083DB0116968D919C9117979383828396
:101BD00020E030E00AC09C0108C028E030E005C0E9
:101BE00024E030E002C027E030E0C901AD96E2E138
:101BF0000C94922C4B8D5C8D6D8D7E8D8D859E858C
:101C00000E9419049C01009709F493CEEECFED8554
:101C1000FE85089421083108410851082286338640
:101C20004486558650CFA0E0B0E0E9E1FEE00C9498
:101C3000762CEC01062FC72E3A011901F901118209
:101C400010826A817B81888199810E94FF037C01D7
:101C5000009709F010C18C8187FD06C180FF08C183
:101C60008A859B85AC85BD852E813F8148855985B8
:101C7000821B930BA40BB50B930140E050E082173D
:101C80009307A407B50708F43C01402E5C2CE7C07D
:101C90002E813F8148855985DA01C9019170A07074
:101CA000B0700097A105B10509F092C088819981B3
:101CB0007D81FC016281761718F1211531054105FE
:101CC000510529F46E857F858889998906C04A89DE
:101CD0005B896C897D890E94C90462307105810528
:101CE0009105E0F06F3FFFEF7F07FFEF8F07FFEFFA
:101CF0009F0709F47BC06A8B7B8B8C8B9D8B1D822D
:101D0000088119814A895B896C897D89C8010E9493
:101D10001607611571058105910521F48C81806894
:101D20008C83A2C03D814B015C01830E911CA11CE0
:101D3000B11C6301CD2CDD24C694C114D10409F477
:101D400041C0F8012281832F90E0A601480F591F5E
:101D500030E02417350718F46901C81AD90AF801C8
:101D60008181B201A50194010C2D0E948916009772
:101D7000E9F5E881F98184818823E1F086A597A5BA
:101D8000A0A9B1A988199909AA09BB09960140E03F
:101D900050E082179307A407B50760F4982F8827AF
:101DA000990FBF016E5C7F4F840D951D40E052E09E
:101DB0000E94EF038D818C0D8D838601102F0027EB
:101DC000110F33C08E8A9F8AA88EB98E3F5F3D83E4
:101DD0008E809F80A884B9844E895F89688D798DB3
:101DE000888199810E941904009739F08C8180685C
:101DF0008C8361E0E62EF12C3EC0C401917020E09E
:101E000032E0281B390B83012615370508F48901B8
:101E1000688179816E5C7F4F8E819F819170680FA0
:101E2000791FC201A8010E94EF03400E511E9801C4
:101E300040E050E08E819F81A885B985820F931F75
:101E4000A41FB51F8E839F83A887B987F101808166
:101E50009181800F911F91838083601A710A6114B0
:101E6000710409F015CF07C052E0E52EF12C03C034
:101E700047E0E42EF12CC701CDB7DEB7E2E10C94C8
:101E8000922CA0E0B0E0E7E4FFE00C94762CEC01AB
:101E9000062FC72E3A011901F901118210826A81B9
:101EA0007B81888199810E94FF037C01009709F062
:101EB00071C18C8187FD67C181FF69C12A853B851E
:101EC0004C855D85C301A0E0B0E0820F931FA41F85
:101ED000B51F82179307A407B50710F4662477246B
:101EE000402E5C2C37C12E813F8148855985DA010F
:101EF000C9019170A070B0700097A105B10509F0FB
:101F0000DEC0888199817D81FC0162817617D8F1DC
:101F10002115310541055105A9F42E853F854889D4
:101F200059892115310541055105D1F440E050E0B2
:101F3000BA010E9445069B01AC016E877F87888BA2
:101F4000998B08C04A895B896C897D890E94450606
:101F50009B01AC01211531054105510509F4FEC075
:101F60002130310541055105A1F12F3FFFEF3F071A
:101F7000FFEF4F07FFEF5F0709F4AFC02A8B3B8BE2
:101F80004C8B5D8B1D82E881F98166A577A580A9C0
:101F900091A92E893F89488D598D6217730784074F
:101FA000950749F4CF0140E050E0BA010E941904BE
:101FB000009709F092C0088119814A895B896C8970
:101FC0007D89C8010E94160761157105810591057B
:101FD00021F48C8180688C83D6C03D814B015C01EB
:101FE000830E911CA11CB11C6301CD2CDD24C69471
:101FF000C114D10409F441C0F8012281832F90E07B
:10200000A601480F591F30E02417350718F469015D
:10201000C81AD90AF8018181B201A50194010C2DD9
:102020000E94DF16009709F058C0E881F98166A583
:1020300077A580A991A9681979098A099B09960150
:1020400040E050E0621773078407950770F4762F1D
:102050006627770F640D751DCF01C29640E052E0F0
:102060000E94EF03E881F98114828D818C0D8D83AC
:102070008601102F0027110F53C02E813F81488504
:1020800059858A859B85AC85BD85281739074A0700
:102090005B0770F0C80140E050E0BA010E941904EB
:1020A0000097D9F4E881F98186A697A6A0AAB1AADB
:1020B0008E8A9F8AA88EB98E8D818F5F8D838E8048
:1020C0009F80A884B9844E895F89688D798D8881C5
:1020D00099810E941904009739F08C8180688C8363
:1020E00021E0E22EF12C56C0C401917020E032E0D4
:1020F000281B390B83012615370508F4890128812F
:1021000039812E5C3F4F8E819F819170820F931F8A
:10211000B201A8010E94EF03E881F98131E0348324
:10212000400E511E980140E050E08E819F81A885AD
:10213000B985820F931FA41FB51F8E839F83A88725
:10214000B987F10180819181800F911F91838083F4
:10215000601A710A6114710409F0C5CE8E819F81E5
:10216000A885B9852A853B854C855D852817390763
:102170004A075B0720F48A879B87AC87BD878C81E1
:1021800080628C8307C092E0E92EF12C03C087E0C7
:10219000E82EF12CC701CDB7DEB7E2E10C94922C0A
:1021A0000F931F93CF93DF93EC016A817B8188812A
:1021B00099810E94FF039C01009709F0A0C08C81C7
:1021C00085FF9DC04A8D5B8D6C8D7D8D8881998149
:1021D0000E9419049C01009709F091C00E8D1F8D7B
:1021E000F8018385806283878A859B85AC85BD8560
:1021F000848F958FA68FB78F8E859F85A889B98983
:10220000938F828FB58BA48B0E941601F801668B89
:10221000778B808F918F8C818F7D8C83E881F98182
:1022200081E084830990D881C02DCE0140E050E048
:10223000BA010E9419049C01009709F060C08881CE
:10224000833009F050C08D81882309F44CC01EA64C
:102250001FA618AA19AA9E012E5C3F4FF901CE01B4
:102260008E5C9D4F01C01192E817F907E1F7F90163
:10227000E250FE4F85E59AEA9183808382E592E5FC
:10228000A1E6B1E48AAB9BABACABBDABF901EC51C1
:10229000FE4F82E792E7A1E4B1E680839183A283B7
:1022A000B383F901E851FE4F8E859F85A889B989CE
:1022B00080839183A283B38324513E4F8A859B857B
:1022C000AC85BD85F90180839183A283B383BE0170
:1022D0006E5C7F4F2A893B894C895D89898101E049
:1022E0000E94DF161D82898160E040E050E00E947C
:1022F000551721E030E0009711F420E030E0C901EB
:10230000DF91CF911F910F910895CF93DF93EC014F
:102310000E94D0109C01009711F419821882C90103
:10232000DF91CF910895882329F41092240320E0AF
:1023300030E002C02BE030E0C9010895A4E2B0E033
:10234000E4EAF1E10C94842C9CA38BA38E01035F3F
:102350001F4FCE018396B80140E00E94340A9C01D1
:102360000097E9F5CE0101969AA389A36BA17CA100
:10237000C8010E94D7089C01009761F54F8D58A1B4
:102380004115510539F4ED85FE85168A178A108EA0
:10239000118E25C0DA011B968C911B9784FF1DC0FE
:1023A0000D851E8554968D919C915597A0E0B0E0C7
:1023B000DC0199278827FA01428D538D60E070E097
:1023C000842B952BA62BB72BF801868B978BA08F90
:1023D000B18F05C08430910511F425E030E0C901CA
:1023E000A496E4E00C94A02CA6E0B0E0EAEFF1E1C2
:1023F0000C94762C9E838D837A018B01DC011296DE
:102400006D917C9113978D919C910E94FF034C01DB
:10241000009709F095C1ED81FE81248127FD8DC1D2
:1024200082859385A485B5858E159F05A007B10784
:1024300020F421FD02C07C018D01ED81FE818681A9
:102440009781A085B18516821782108611862FEF9D
:102450002583E114F1040105110509F436C120803A
:102460003180F101A280BB24CC24DD2449E0AA0CF8
:10247000BB1CCC1CDD1C4A95D1F70097A105B1050A
:10248000F1F12C013D0108944108510861087108DF
:10249000C801B7016150704080409040A60195018D
:1024A0000E94542C29833A834B835C83C301B2017D
:1024B000A60195010E94542C89819A81AB81BC812F
:1024C00082179307A407B507D0F088279927DC0166
:1024D0008A199B09AC09BD0984219521A621B72140
:1024E000ED81FE8186839783A087B187E81AF90A78
:1024F0000A0B1B0B428953896489758936C0AD81EB
:10250000BE811E964D915D916D917C9151974115C3
:1025100051056105710509F5C10140E050E0BA01BE
:102520000E944506AB01BC014130510561057105B2
:1025300019F4ED81FE8160C04F3FFFEF5F07FFEFB1
:102540006F07FFEF7F0719F4AD81BE8136C0ED81C3
:10255000FE8146875787608B718BAD81BE81529615
:102560004D935D936D937C9355974115510561058E
:10257000710509F4AAC04D805E805CC0F20124811F
:102580008081918121FF0AC00E944506AB01BC01F8
:10259000411551056105710529F455C00E94C90412
:1025A000AB01BC014F3FFFEF5F07FFEF6F07FFEF8E
:1025B0007F0771F45E824D82D20114968C9114973C
:1025C000806814968C93149731E0832E912CB8C0B8
:1025D000423051056105710560F0D201ED91FC9129
:1025E000868D978DA0A1B1A1481759076A077B076F
:1025F00038F05E824D82F2018481806884839DC0C0
:10260000D20152964D935D936D937C935597169698
:102610008D919D910D90BC91A02D8A0D9B1DAC1D9F
:10262000BD1DF20186839783A087B187EA18FB0856
:102630000C091D09AE14BF04C006D10608F49ECFD4
:102640005E824D8204C05E824D8286017501ED81FD
:10265000FE8186819781A085B1858E0D9F1DA01F6B
:10266000B11F86839783A087B187D801C70129E06E
:10267000B695A795979587952A95D1F7A82E858326
:10268000D801C7019170A070B0700097A105B10585
:10269000E1F0808191810E94160761157105810525
:1026A000910551F4AD81BE8114968C911497806888
:1026B00014968C93149741C06A0D711D811D911D54
:1026C000A394ED81FE81A58203C060E070E0CB01A0
:1026D000AD81BE811696ED90FD900D911C911997DC
:1026E000A8019701317040705070211531054105E6
:1026F000510581F056962D913D914D915C915997E0
:10270000621773078407950729F0FD01668B778BA5
:10271000808F918FED81FE8182859385A485B5851B
:102720008E159F05A007B10758F4E286F38604874B
:10273000158784818062848303C072E0872E912C88
:10274000C4012696E2E10C94922CAEE0B0E0EBEAF4
:10275000F3E10C94842C8C017E876D87CE010D965D
:10276000B80140E00E94340A9C01009709F040C083
:10277000CE010196D80155969C938E9354976D8502
:102780007E85C8010E94D7089C01009761F5D80199
:102790005296ED91FC9153973097B9F0838584FF61
:1027A00025C084899589A0E0B0E0DC0199278827BD
:1027B000228D338D40E050E0822B932BA42BB52B40
:1027C000F80186839783A087B187D801ED91FC91AA
:1027D00011978681978113969C938E931297C801C7
:1027E0000E9455089C012430310511F425E030E0A9
:1027F000C9012E96E4E00C94A02CACE0B0E0E3E03C
:10280000F4E10C947E2C8C017B01DC0112966D911D
:102810007C9113978D919C910E94FF036C0100970E
:1028200009F0ABC0CE010196F801958B848BE114C1
:10283000F10409F5C8010E9455089EC0D8018D9188
:102840009C910E941904009721F5D8015296ED91B0
:10285000FC9153978081882309F494C0853E19F038
:10286000838583FF21C0C80160E070E00E944507B6
:10287000009719F00EC084E090E0F8014685578576
:10288000608971894115510561057105B9F6009797
:1028900059F0D8011E961D921D921D921C925197BF
:1028A0008430910509F068C09701275F3F4FF80118
:1028B00086859785A089B1890097A105B10509F49E
:1028C00049C0A288B388F501C90140E050E09C01ED
:1028D0006191603261F0653009F465EEDC016D9361
:1028E000CD019D014F5F5F4F4830510581F7A50134
:1028F000485F5F4FF5016085603279F0DC012EE2C0
:102900002D9304969D01FA016191AF01603229F087
:102910006D939D01A817B907A9F7D5011B968C9156
:102920001B97F70180875C968D919D910D90BC91CE
:10293000A02D80839183A283B383D50158968D9176
:102940009C9159979583848356968D919C91579726
:1029500097838683F9011082C80160E070E00E94CD
:1029600045078430910541F4D8011E961D921D92B1
:102970001D921C92519701C06C01C6012C96EAE091
:102980000C949A2C84E090E084CF8FEF8EBD0DB430
:1029900007FEFDCF8EB5089582E380932A030E943F
:1029A000C5140E94C5148F3F21F090912A039923EA
:1029B000C1F70895289A0E94C514089528980E9486
:1029C000CC148F3F29F00E94DA1420E030E002C0DE
:1029D00021E030E0C9010895389A87E084B980E5A4
:1029E0008CBD089528980E94CC141CBC80910E01C7
:1029F000816080930E0108950F931F93CF93DF930F
:102A0000EC018B0184E1809329030E94C5148F3F60
:102A100029F4809129038823C1F727C08E3F29F527
:102A20008FEF8EBD0DB407FEFDCF9EB598838EBD92
:102A30000DB407FEFDCF9EB599838EBD0DB407FE84
:102A4000FDCF9EB59A838EBD0DB407FEFDCF9EB51A
:102A50009B830450104011F02496E3CF0E94C514CC
:102A60000E94C51421E030E002C020E030E0C9013E
:102A7000DF91CF911F910F910895A1E0B0E0E3E4C1
:102A8000F5E10C94842C8C0169830E94CC1469813B
:102A90008F3F49F56EBD0DB407FEFDCF6D3F31F19F
:102AA00080E0F80190819EBD0DB407FEFDCFF801D6
:102AB00091819EBD0DB407FEFDCF815019F00E5FD0
:102AC0001F4FEFCF8FEF8EBD0DB407FEFDCF8FEF01
:102AD0008EBD0DB407FEFDCF0E94C5148F7121E09D
:102AE00030E0853029F020E030E002C021E030E025
:102AF000C9012196E4E00C94A02CA1E0B0E0E3E849
:102B0000F5E10C94822C282F7A018B0187FF0CC0F1
:102B100087E740E050E0BA0129830E947D152981B2
:102B2000823008F042C02F7729830E94DA140E9475
:102B3000DE1429810097C1F12EBD0DB407FEFDCF33
:102B4000812F9927AA27BB278EBD0DB407FEFDCF85
:102B5000C801AA27BB278EBD0DB407FEFDCFBB273A
:102B6000A12F902F8F2D8EBD0DB407FEFDCFEEBC93
:102B70000DB407FEFDCF203421F0283421F081E090
:102B800003C085E901C087E88EBD0DB407FEFDCF07
:102B90002C3411F40E94C5141AE00E94C51487FF5A
:102BA00004C01150D1F701C08FEF2196E6E00C94DC
:102BB0009E2CA4E0B0E0EFEDF5E10C94802C88238E
:102BC00009F09BC080910E0181FD94C00E94EC141D
:102BD0001AE00E94C5141150E1F780E440E050E093
:102BE000BA010E947D15813009F075C084E680939A
:102BF000290388E44AEA51E060E070E00E947D1514
:102C0000813009F03FC08E010F5F1F4F45E0E42E79
:102C1000F12CEC0EFD1E68010E94C514F601819393
:102C20006F01EE15FF05C1F78B81813009F053C0AC
:102C30008C818A3A09F04FC080912903882349F09A
:102C400089EE40E050E060E070E40E947D1588234A
:102C500099F7809129038823F1F18AE740E050E059
:102C6000BA010E947D158823B1F50E94C514F801B0
:102C700081938F01EE15FF05C1F7898186FF29C079
:102C80000CE02AC089EE40E050E0BA010E947D15B8
:102C9000823018F402E019EE02C001E011E48091E4
:102CA0002903882341F0812F40E050E0BA010E94BF
:102CB0007D158823A1F780912903882361F080E5A1
:102CC00040E052E060E070E00E947D15882319F436
:102CD00003C004E001C000E000932B030E94DA145B
:102CE000002331F080910E018E7F80930E0102C08F
:102CF0000E94F21480910E0101C081E02496E8E068
:102D00000C949C2C882319F480910E01089581E085
:102D100008950F93CF93DF93EB01BA01A9018823A4
:102D200009F043C0002309F440C080910E0180FDEA
:102D30003FC080912B0383FD07C0E9E0440F551F7E
:102D4000661F771FEA95D1F7013069F481E50E948B
:102D50007D15882309F5CE0160E072E00E94FC1425
:102D60000097C9F419C082E50E947D158823A1F45B
:102D7000CE0160E072E00E94FC14009729F001503F
:102D800019F0C050DE4FF4CF8CE440E050E0BA01BF
:102D90000E947D1501C000E00E94DA1421E030E0BD
:102DA000002341F420E030E005C024E030E002C020
:102DB00023E030E0C901DF91CF910F910895CF92C8
:102DC000DF92EF92FF920F93CF93DF93EB016901B4
:102DD0007A01882309F058C0002309F455C0809176
:102DE0000E0180FD54C080910E0182FD53C0809180
:102DF0002B0390E083FD07C0F9E0CC0CDD1CEE1C3A
:102E0000FF1CFA95D1F7013071F488E5B701A601EE
:102E10000E947D15882379F5CE016EEF0E943D1545
:102E2000009731F528C086709070009739F0402FD8
:102E300050E060E070E087ED0E947D1589E5B70104
:102E4000A6010E947D158823B1F4CE016CEF0E948B
:102E50003D15009729F0015019F0C050DE4FF5CF15
:102E600080E090E06DEF0E943D15009719F003C0DF
:102E700000E001C001E00E94DA1421E030E000230C
:102E800059F420E030E008C024E030E005C023E041
:102E900030E002C022E030E0C901DF91CF910F9114
:102EA000FF90EF90DF90CF900895A0E1B0E0EBE5C8
:102EB000F7E10C94822C8A01882309F052C17A012F
:102EC0006430B1F4FA018081813049F0813020F022
:102ED000823009F046C106C00E94F21406C00E946A
:102EE000EC1403C081E0FA01818300E010E03EC1F0
:102EF00080910E0180FD38C1E62FF0E0EF30F10542
:102F000008F024C1E65BFF4F0C94AD2C0E94DE1448
:102F1000009709F41EC10E94DA141EC189E440E042
:102F200050E0BA010E947D15882309F012C1CE013C
:102F3000019660E170E00E94FC14009709F409C159
:102F4000998192959695969593705A854985913079
:102F500089F4852F90E00196342F20E0820F931F93
:102F6000A0E0B0E07AE0880F991FAA1FBB1F7A95F6
:102F7000D1F7AEC04295469546954370888590E05E
:102F8000880F991F880F991F840F911D01962F811B
:102F900030E023703070322F2227330F330F820F2F
:102FA000931FA0E0B0E02E812F704B85441F442773
:102FB000441F240F2E5F352F3370330F230F30E063
:102FC000295030402BC080E092E0FA019183808349
:102FD000C3C0E0902B03E2FE29C08DEC40E050E03E
:102FE000BA010E947D15882309F0B3C00E94C51460
:102FF000CE01019660E170E00E94FC14009709F494
:10300000A8C030E3E32E0E94C514EA94E1F72B85B3
:1030100022952F7080E190E0A0E0B0E004C0880F1E
:10302000991FAA1FBB1F2A95D2F752C089E440E01E
:1030300050E0BA010E947D15882309F08AC0CE01B4
:10304000019660E170E00E94FC14009709F481C0D1
:103050004B858C85E1FE1AC0881F8827881F90E069
:10306000019650E04F735070440F551F840F951F09
:103070002E85229526952695237030E021503040EC
:1030800002C0880F991F2A95E2F720C0282F30E050
:1030900023703070B3E0220F331FBA95E1F78295A9
:1030A00086958770280F311D2F5F3F4F50E04C777A
:1030B000507055954795559547954F5F5F4F249FA5
:1030C000C001259F900D349F900D1124A0E0B0E029
:1030D000F80180839183A283B3833EC080912B0348
:1030E000FA01808339C089E401C08AE440E050E0FD
:1030F000BA010E947D15882361F5C80160E170E086
:1031000020C08AE740E050E0BA010E947D15882384
:1031100001F50C5F1F4F0E94C514F70181937F01D9
:10312000E017F107C1F718C08DEC40E050E0BA019C
:103130000E947D15882369F40E94C514C80160E4CB
:1031400070E00E94FC14009739F403C004E010E022
:1031500005C001E010E002C000E010E00E94DA14B7
:1031600005C004E010E002C003E010E0C801609672
:10317000E6E00C949E2C80912903882319F081505D
:103180008093290380912A03882319F0815080932A
:103190002A030895A0E0B0E0E0EDF8E10C94802C63
:1031A000182F062FF42EE22ED32E442349F10E942D
:1031B000FA23009729F1812F0E9414248091B900ED
:1031C000887F8831E9F4802F0E9414248091B9000F
:1031D000887F8832A9F48D2DCE2CE6016E01D82E81
:1031E000E60189910E9414248091B900887F883279
:1031F00039F4FA94B1F70E942C2421E030E002C0A7
:1032000020E030E0C901CDB7DEB7E8E00C949C2C9B
:10321000A1E0B0E0EEE0F9E10C94862C8FE3898325
:1032200080ED6CE041E09E012F5F3F4F0E94CA1885
:103230002196E2E00C94A22CA0E0B0E0E2E2F9E1F9
:103240000C94802C182F062FF42EE22ED32E44231C
:1032500009F446C00E94FA23009709F441C0812F67
:103260000E9414248091B900887F8831C9F5802F8D
:103270000E9414248091B900887F883289F50E94C9
:10328000FA23009769F1812F81600E9414248091B4
:10329000B900887F803421F58D2DCE2CE6016E019A
:1032A000D82EE601FA9459F081E090E00E941E24A5
:1032B0009091B900987F903599F48993F3CF80E08D
:1032C00090E00E941E248091B900887F883541F4E7
:1032D0008091BB0088830E942C2421E030E002C052
:1032E00020E030E0C901CDB7DEB7E8E00C949C2CBB
:1032F000A7E0B0E0EEE7F9E10C94842C8C0180EDBE
:1033000061E047E09E012F5F3F4F0E941C1900972C
:1033100009F457C02981922F9695969596959E709F
:10332000892F880F880F890F2F70820FF8018783EC
:103330002A81922F92959F70990F892F880F880F5D
:10334000890F2F70820F86832B81922F96959695E9
:1033500096959670892F880F880F890F2F70820F8E
:1033600085838C81877084832D81922F9695969585
:1033700096959670892F880F880F890F2F70820F6E
:1033800083832E81922F92959F70990F892F880F9A
:10339000880F890F2F70820F82832F81822F90E0F8
:1033A0008F7090708053984F22952F703AE0239F32
:1033B00090011124820F931F9183808321E030E0DC
:1033C00002C020E030E0C9012796E4E00C94A02C74
:1033D000A7E0B0E0EEEEF9E10C94862CFC018781C9
:1033E0002AE0622F0E94212C8295807F890F8F779F
:1033F000898386810E94212C8295807F890F877F17
:103400008A8385810E94212C8295807F890F8F730A
:103410008B83848187708C8383810E94212C829589
:10342000807F890F8F738D8382810E94212C8295EA
:10343000807F890F8F718E8380819181805D97401D
:103440006AE070E00E942D2C6295607F680F6F83A8
:1034500080ED61E047E09E012F5F3F4F0E94CA1858
:103460002796E2E00C94A22C0E94081981E090E0DB
:10347000089580E0982F9295907F9093ED00EEEE66
:10348000F0E01192E83FF105E1F78F5F8F3091F79F
:1034900008952091ED0080E0982F9295907F909371
:1034A000ED009091EF00907C19F42093ED000895C9
:1034B0008F5F8F3089F72093ED008FEF0895809113
:1034C000EF00807C69F09091EE00892F807E803241
:1034D00041F0803431F0803A21F0892F8F710895C6
:1034E0008FEF089560E007C02091FA00480F591F40
:1034F000FA0120836F5F2091EF00462F50E030E00B
:103500002F703070421753077CF30895A0E0B0E0AD
:10351000ECE8FAE10C947F2C882309F44FC08091E9
:10352000E2008E7751F08091E20090E08E7790700B
:1035300095958795182F1F5F01C011E08091E300DA
:103540008E7049F0A091E300B0E0AE70B070B59518
:10355000A795AF5F01C0A1E08091E4008E70833039
:1035600048F0E091E400F0E0EE70F070F595E7953A
:10357000EF5F01C0E2E08091E4008077813168F084
:103580008091E40090E08077907034E09595879585
:103590003A95E1F7F82FFF5F01C0F2E08A2F90E043
:1035A0008E0F911D8F0F911D883091057CF0BA2FE1
:1035B000BF5FBE0FBF0F60E071E00BC061E070E065
:1035C000F2E0E2E0B8E0A3E011E003C060E071E007
:1035D000B8E080E0982F9295907F9093ED00CEEE2A
:1035E000D0E01992C83FD105E1F78F5F8F3091F796
:1035F000062FE72E40E050E0DD2420E8F22E9AE08E
:10360000C92EBB24BA9401C0EE24013009F07BC05E
:103610000093D8004F5F5F4F812F8150880F8093B8
:10362000E2002F2F269530E02150304085E0220F18
:10363000331F8A95E1F78A2F90E00197880F991F31
:10364000822B8093E3002F2F30E02150304084E024
:10365000220F331F8A95E1F78E2F90E00197880F94
:10366000991F822B81608093E400CA0123E0969524
:1036700087952A95E1F78093E5001092ED0010926E
:10368000EE00F092EF00C092D8008091D90082FF46
:10369000FCCFB092DA00DD2436C08091EE0090E0DD
:1036A00085FF0DC08091EF008F738093EF00109223
:1036B000D8008091D90082FDFCCF81E07CC08F7161
:1036C0009070009719F0EE24E39460E08091DA00A6
:1036D00090E085FF12C0DD2041F42091DA002062E5
:1036E0002093DA00DD24D39408C02091DA00206210
:1036F0002093DA00EE24E39460E08F7090700097DE
:1037000011F001E003C0613041F250C07111EF5F70
:10371000E930D0F0F830D0F0B93119F0BF5FE2E015
:1037200020C0103421F01F5FE2E0B8E01AC08091A1
:10373000EF008F738093EF001092D8008091D90032
:1037400082FDFCCF80E037C0E63058F02E2F30E00D
:103750008F2F90E001968217930724F4FF5FEF2FDD
:1037600001C0FE2FAF2FAE0FA095AB0F8A2F815057
:10377000883068F66F2F70E08E2F90E001968A0FE8
:10378000911D9B01220F331F220F331F281739076A
:103790000CF4BDCF9B01220F331F260F371F82175A
:1037A00093070CF4B4CF61E071E02ECF8E2D813001
:1037B00009F02ACFABCFCDB7DEB7E9E00C949B2C54
:1037C00081E08093D80086E08093E2008093E3005C
:1037D00084E28093E40081E008950E94E01B882346
:1037E00049F00E94391A8091D80082608093D800F5
:1037F00081E0089580E00895A4E0B0E0E2E0FCE11B
:103800000C94842C8C01DC0111968D919C91129763
:103810008C309105A1F41A968C911A97803609F094
:1038200067C58C918295807F8093ED008091EF0039
:103830008F738093EF001092EE001C9259C50E9486
:10384000491A8F3F09F457C590E6D8011A969C9300
:103850001A978C93982F9295907F9093ED00EEEEAF
:10386000F0E01192E83FF105E1F7D8011196ED91F2
:10387000FC9112973197EB30F10508F039C5E75A02
:10388000FF4F0C94AD2C80E02CC4F8018485882374
:1038900059F185818295869587709681990F990F48
:1038A000990F890F8093F3008481829586958770A4
:1038B0009581990F990F990F890F8093F200838159
:1038C0008295869587709481990F990F990F890F2A
:1038D0008093F1008381880F880F880F8093F00018
:1038E0008091EF0080611BC0D80113968C911397D3
:1038F00086958695869514969C9114979295990F26
:10390000907E890F8093F30013968C911397829584
:10391000880F807E8093F2008091EF008F7E8093ED
:10392000EF0080E00BC0D8011896ED91FC9119973B
:10393000E80FF11D90819093FA008F5FF801978155
:10394000891788F38385882321F08091F0008460B3
:1039500003C08091F0008B7F8093F0008091EF0096
:10396000D801F9C0F8019485992359F19581929570
:10397000969597702681220F220F220F920F909317
:10398000F30094819295969597702581220F220FCE
:10399000220F920F9093F2009381929596959770D3
:1039A0002481220F220F220F920F9093F100938116
:1039B000990F990F990F9093F0009091EF009061FB
:1039C0001BC0D80113969C91139796959695969542
:1039D00014962C9114972295220F207E920F90938B
:1039E000F30013969C9113979295990F907E909364
:1039F000F2009091EF009F7E9093EF0090E00BC05B
:103A0000D8011896ED91FC911997E90FF11D2081CD
:103A10002093FA009F5FF8012781921788F313869D
:103A20009091F0009B7F9093F0009091EF002781A0
:103A3000922B9093EF009091EF009F739093EF0083
:103A40009091EF0090649093EF009585992309F091
:103A500059C49091DE0021E030E002C0220F331FF4
:103A60008A95E2F7922B9093DE009091DF00832FEE
:103A70008F77892B8093DF003091DF002091DE006B
:103A8000932F80E0820F911D90933703809336032C
:103A900039C4D8011C968C911C978823C9F11596BE
:103AA0008C91159782958695877016969C9116979E
:103AB000990F990F990F890F8093F30014968C91A9
:103AC000149782958695877015969C911597990FF6
:103AD000990F990F890F8093F20013968C91139789
:103AE00082958695877014969C911497990F990FDB
:103AF000990F890F8093F10013968C911397880F7B
:103B0000880F880F8093F0008091EF00806115C0CE
:103B1000F801838186958695869594819295990F73
:103B2000907E890F8093F30083818295880F807E39
:103B30008093F2008091EF008F7E8093EF0081E010
:103B4000D8011B968C931B978091F0008460809322
:103B5000F0008091EF0017969C911797892B809326
:103B6000EF008091EF008F738093EF008091EF0062
:103B70008064BBC319821A821B821C82FE013196AB
:103B80008B818295869587709381990F990F990FF4
:103B9000890F8093F70081818295869587709B813C
:103BA000990F990F990F890F8093F6008181880FE3
:103BB000880F880F9981929596959770890F8093B9
:103BC000F5008981880F880F880F8093F400809119
:103BD000EF00F8019781892B8093EF008091F4002A
:103BE0008B7F8093F40043C019821A821B821C824F
:103BF000FE0131968B818295869587709381990F0E
:103C0000990F990F890F8093F7008181829586958E
:103C100087709B81990F990F990F890F8093F600F8
:103C20008181880F880F880F99819295969597705A
:103C3000890F8093F5008981880F880F880F809302
:103C4000F4008091EF00D80117969C911797892B6B
:103C50008093EF001B961C921B978091F400846068
:103C60008093F4008091F0008B7F8093F00080912E
:103C7000F4008E7F30C319821A821B821C82FE01DF
:103C800031968B818295869587709381990F990FD4
:103C9000990F890F8093F7008181829586958770AF
:103CA0009B81990F990F990F890F8093F60081815D
:103CB000880F880F880F9981929596959770890F34
:103CC0008093F5008981880F880F880F8093F40016
:103CD0008091EF00F8019781892B8093EF0081E0BC
:103CE00083878091F40084608093F4008091F000D9
:103CF00084608093F0008091EF008F7D3DC2D801F9
:103D00001C968C911C978823C9F115968C91159758
:103D100082958695877016969C911697990F990FA4
:103D2000990F890F8093F30014968C9114978295C4
:103D30008695877015969C911597990F990F990FF5
:103D4000890F8093F20013968C9113978295869534
:103D5000877014969C911497990F990F990F890F5A
:103D60008093F10013968C911397880F880F880F1A
:103D70008093F0008091EF00806115C0F80183818D
:103D800086958695869594819295990F907E890F58
:103D90008093F30083818295880F807E8093F20068
:103DA0008091EF008F7E8093EF008FEF9FEFDC011B
:103DB00089839A83AB83BC83FE0131968B81829584
:103DC000869587709381990F990F990F890F80932A
:103DD000F70081818295869587709B81990F990F55
:103DE000990F890F8093F6008181880F880F880FC3
:103DF0009981929596959770890F8093F5008981A6
:103E0000880F880F880F8093F4008091EF00D8010D
:103E100017969C911797892B8093EF008091F4005F
:103E20008B7F8093F40054C2F8019485992359F153
:103E300095819295969597702681220F220F220FD9
:103E4000920F9093F30094819295969597702581A7
:103E5000220F220F220F920F9093F20093819295DE
:103E6000969597702481220F220F220F920F909324
:103E7000F1009381990F990F990F9093F000909111
:103E8000EF0090611BC0D80113969C9113979695F3
:103E90009695969514962C9114972295220F207E34
:103EA000920F9093F30013969C9113979295990F0C
:103EB000907E9093F2009091EF009F7E9093EF00A0
:103EC0002FEF3FEFA90129833A834B835C83FE01E7
:103ED00031969B819295969597702381220F220FA0
:103EE000220F920F9093F70091819295969597707B
:103EF0002B81220F220F220F920F9093F6009181B7
:103F0000990F990F990F2981229526952770920F65
:103F10009093F5009981990F990F990F9093F40060
:103F20009091EF00F8012781922B9093EF00138678
:103F30009091F40094609093F4009091F0009B7F36
:103F40009093F0009091F40091609093F400909120
:103F5000EF009F739093EF009091EF009068909323
:103F6000EF009091DE0021E030E002C0220F331F0D
:103F70008A95E2F7922B9093DE009091DF00832FD9
:103F80008F77892B8093DF00BDC1D8011C968C915F
:103F90001C978823C9F115968C9115978295869563
:103FA000877016969C911697990F990F990F890F04
:103FB0008093F30014968C91149782958695877060
:103FC00015969C911597990F990F990F890F8093CA
:103FD000F20013968C9113978295869587701496AC
:103FE0009C911497990F990F990F890F8093F10065
:103FF00013968C911397880F880F880F8093F00089
:104000008091EF00806115C0F801838186958695C7
:10401000869594819295990F907E890F8093F300F5
:1040200083818295880F807E8093F2008091EF00DB
:104030008F7E8093EF008FEF9FEFDC0189839A835F
:10404000AB83BC83FE0131968B8182958695877008
:104050009381990F990F990F890F8093F7008181B0
:104060008295869587709B81990F990F990F890F7B
:104070008093F6008181880F880F880F998192952F
:1040800096959770890F8093F5008981880F880F26
:10409000880F8093F4008091EF00D80117969C91CF
:1040A0001797892B8093EF0081E01B968C931B97C9
:1040B0008091F40084608093F4008091F00084602B
:1040C0008093F0008091EF008F7D00C1D801189699
:1040D000ED91FC911997E80FF11D90819093FA00F2
:1040E0008F5FF8019781891788F319821A821B82E2
:1040F0001C82FE0131968B81829586958770938113
:10410000990F990F990F890F8093F70081818295FC
:10411000869587709B81990F990F990F890F8093CE
:10412000F6008181880F880F880F99819295969566
:104130009770890F8093F5008981880F880F880F09
:104140008093F4008091EF00D80117969C91179707
:10415000892B8093EF0081E01B968C931B978091B5
:10416000F40084608093F4008091F0008460809378
:10417000F0008091EF0080628093EF0078CDF8012D
:104180008485882359F185818295869587709681EB
:10419000990F990F990F890F8093F300848182956D
:1041A000869587709581990F990F990F890F809344
:1041B000F20083818295869587709481990F990F7B
:1041C000990F890F8093F1008381880F880F880FE2
:1041D0008093F0008091EF0080611BC0D80113969E
:1041E0008C91139786958695869514969C91149735
:1041F0009295990F907E890F8093F30013968C917E
:1042000013978295880F807E8093F2008091EF0053
:104210008F7E8093EF0080E00BC0D8011896ED915F
:10422000FC911997E80FF11D90819093FA008F5F30
:10423000F8019781891788F38FEF9FEFDC0189835D
:104240009A83AB83BC83FE0131968B8182958695E0
:1042500087709381990F990F990F890F8093F700B9
:1042600081818295869587709B81990F990F990F0F
:10427000890F8093F6008181880F880F880F9981BC
:10428000929596959770890F8093F5008981880F94
:10429000880F880F8093F4008091EF00D801179663
:1042A0009C911797892B8093EF0081E01B968C934C
:1042B0001B978091F40084608093F4008091F0005B
:1042C00084608093F0008091EF0080628093EF0023
:1042D0008091F40081608093F4008091EF008F73EF
:1042E0008093EF008091EF0080688093EF000AC018
:1042F000F801128607C08FE1D8011A968C931A979D
:104300008FEF01C080E02496E4E00C94A02C1F9372
:10431000CF93DF93EC018A85882309F482C08F3123
:1043200009F47FC08F3F09F47CC088818295807F2B
:104330008093ED000E945F1A182F803261F0813265
:1043400020F4882309F46FC064C0803409F457C096
:10435000803A09F05EC08091EF008F708F8388856E
:1043600099850E94721A2091F00030E0247030701C
:1043700035952795359527952B878091EF0084FFFC
:104380002BC081E08C878091F30086958695869579
:104390008E839091F2008091F3008295880F807E49
:1043A000969596959695890F8D839091F1008091C1
:1043B000F2008295880F807E969596959695890F46
:1043C0008C839091F0008091F1008295880F807E1F
:1043D00096959695969511C01C868091F3008295CE
:1043E000869587708C839091F2008091F300880FFE
:1043F000880F880F929596959770890F8B831A87EF
:104400008091EF008F738093EF001092EE0080E0B8
:104410000BC01A878091EF008F738093EF0010928A
:10442000EE0082E001C081E0DF91CF911F910895FD
:1044300024E13AE0EAE4FAE080E090E0318320838E
:104440001282DC0143E0AA0FBB1F4A95E1F7AC5E84
:10445000B54F49E01D924150E9F70196285F3F4F63
:104460003E968230910551F708951F93182F90E0E2
:10447000880F991FFC0163E0EE0FFF1F6A95E1F7BB
:10448000E81BF90BEE5BF54F80E890E094838383A3
:10449000812F90E0880F991FFC0143E0EE0FFF1F72
:1044A0004A95E1F7E81BF90BEE5BF54F1486812F77
:1044B00090E0880F991FFC0123E0EE0FFF1F2A9563
:1044C000E1F7E81BF90BEE5BF54F1386212F30E087
:1044D000220F331FF901A3E0EE0FFF1FAA95E1F7AA
:1044E000E21BF30BEE5BF54F88E08783212F30E072
:1044F000220F331FF90173E0EE0FFF1F7A95E1F7EA
:10450000E21BF30BEE5BF54F88E090E09283818332
:10451000812F90E09C01220F331FC90153E0880FC7
:10452000991F5A95E1F7821B930B8E5B954F0E9462
:10453000FC1B882369F71F91089560930C0A8093F0
:10454000270A1092280A1092300A81E080932F0ADD
:1045500040932B0A82E090E09093260A8093250AEC
:1045600084E29AE00E94FC1B8823D1F784E29AE05F
:104570000E9487218130D1F30895CF93DF93EC011E
:104580006B831C821C861B864F8388E090E09A8395
:104590008983CE010E94FC1B8823D9F7DF91CF913C
:1045A00008951F920F920FB60F920BB60F9211241F
:1045B0002F933F934F935F936F937F938F939F932B
:1045C000AF93BF93CF93DF93EF93FF9380912F032C
:1045D0009091300301969093300380932F038430A1
:1045E000910591F580912D0390912E0382379105CD
:1045F00071F020913403253050F4822F8F5F809327
:104600003403853081F481E0809333030CC0209122
:104610003403222341F08237910529F4215020935D
:104620003403109233031092300310922F03109230
:104630002E0310922D03C8E6D1E089910E94140345
:1046400081E0C237D807C9F7FF91EF91DF91CF9191
:10465000BF91AF919F918F917F916F915F914F919A
:104660003F912F910F900BBE0F900FBE0F901F9098
:1046700018951F920F920FB60F920BB60F9211243E
:104680002F938F939F93EF93FF9380912D0390919E
:104690002E03833791055CF42091C600FC01EB5892
:1046A000FE4F2083019690932E0380932D03FF915C
:1046B000EF919F918F912F910F900BBE0F900FBE96
:1046C0000F901F9018951F920F920FB60F920BB676
:1046D0000F9211242F935F936F937F938F939F93E8
:1046E000AF93BF93EF93FF9380913503833068F4CA
:1046F00080913503E82FF0E0E15FFE4F90819093C9
:10470000CE008F5F809335033CC080918C099091DF
:104710008D09FC01E457F64F2781019660919009BD
:10472000709191090E94412C90938D0980938C097E
:10473000809192098150809392098091320388235D
:1047400051F4E22FF0E0EE0FFF1FEE5EFE4F80818E
:10475000885F809332032093CE008091320388508B
:104760008093320380913203882359F48091920917
:10477000853038F4109231038091C9008F7D809389
:10478000C900FF91EF91BF91AF919F918F917F9160
:104790006F915F912F910F900BBE0F900FBE0F90F6
:1047A0001F901895809131038823D1F4809192094C
:1047B0008A30B0F081E0809331031092350380910C
:1047C000C90080628093C90080913503E82FF0E032
:1047D000EE58FE4F90819093CE008F5F809335030B
:1047E00008958BB183608BB91092B9008FE28093EA
:1047F000B800089584EA8093BC008091BC0087FFD4
:10480000FCCF8091B900887F803151F08091B90050
:10481000887F21E030E0883029F020E030E002C0DD
:1048200021E030E0C90108958093BB0084E88093C3
:10483000BC008091BC0087FFFCCF0895009711F069
:1048400084EC01C084E88093BC008091BC0087FFA9
:10485000FCCF8091BB00089584E98093BC0008954B
:10486000EF92FF920F931F93CF93DF938C01C0E0E1
:10487000D0E0C8016CE675E00E94FD13882369F45E
:1048800080917505882349F085E795E00E94B32C57
:10489000C817D90770F7EC01ECCF21967E01CE0145
:1048A000CDB7DEB7E6E00C949E2C1F93282FF8942A
:1048B00040918E0950918F0970E0DA01A457B64FEC
:1048C000FB01EE0FFF1FE60FF71FE851FE4F81813E
:1048D00017968C93CA010196609190097091910985
:1048E0000E94412C90938F0980938E0980919209A8
:1048F0008F5FACE8B9E016968C931697789440E0F9
:10490000108130E024C0F89480918E0990918F0935
:10491000DC01A457B64FE42FF0E0EB58FE4FE20F56
:10492000F31F508117965C93179701966091900939
:10493000709191090E94412C90938F0980938E0968
:10494000809192098F5F8093920978944F5F41170D
:10495000D0F280919209843110F00E94D2231F91ED
:104960000895A0E1B0E0E7EBF4E20C947C2C8824FD
:1049700099246E010894C11CD11C082D10E0F80187
:10498000EE0FFF1FE00FF11FE851FE4FA180B28034
:10499000F501EE0FFF1FE159FD4FE180FF24C70134
:1049A00087709070009761F1E2FE04C0892D682D38
:1049B0000E945524E0FE24C0BA82A982F801EE0FBD
:1049C000FF1FE00FF11FE851FE4F408121E0892DCC
:1049D00090E00FC0A22FB0E0FD01EE0FFF1FEC0D25
:1049E000FD1DA80FB91FAC58BE4F3C9130831182FA
:1049F0002F5F421778F74F5F85E8B6010E94FE25CA
:104A0000F801EE0FFF1FE00FF11FE851FE4F80810C
:104A1000980E892D833710F48394AFCF6096ECE025
:104A20000C94982C1F920F920FB60F920BB60F9208
:104A30001124AF92BF92DF92EF92FF920F931F93D8
:104A40002F933F934F935F936F937F938F939F9396
:104A5000AF93BF93EF93FF93DF93CF93CDB7DEB7C1
:104A60006697DEBFCDBFCE0101969A8B898B1B8ADC
:104A70002091E0003091E100932F80E07C01E20E74
:104A8000F11C01E010E0DD2479E0A72EB12CAC0E82
:104A9000BD1EC8018E219F21009709F489C08D2D6C
:104AA0008295807F8093ED008091EE008F77883033
:104AB00009F47EC0893050F4813008F472C083302C
:104AC00008F476C0843009F06CC072C0803239F0CE
:104AD000803409F466C0803109F063C069C08EE596
:104AE0009AE00E94721A8091EF008F738093EF001A
:104AF0001092EE00C50165E870E048E050E00E94C9
:104B0000BD22E0915E0AFF27E7FDF095EE0FFF1F43
:104B1000EB53FD4F818182FF4BC080918E099091B4
:104B20008F0920915E0AFC01E457F64F27832091FC
:104B30009009309191090196B9010E94412C80930E
:104B40008E0990938F09409192094F5F409392098B
:104B500041E013C0E42FF0E0E25AF54F5081FC0130
:104B6000E457F64F57830196B9010E94412C5091AA
:104B700092095F5F509392094F5FE0915E0AFF27B1
:104B8000E7FDF095EE0FFF1FEB53FD4F508156955B
:104B9000569556955417F0F690938F0980938E0989
:104BA00007C08091EF008F738093EF001092EE00AA
:104BB000D3948D2D8F3019F0000F111F6ACF669698
:104BC000DEBFCDBFCF91DF91FF91EF91BF91AF914C
:104BD0009F918F917F916F915F914F913F912F9115
:104BE0001F910F91FF90EF90DF90BF90AF900F90CB
:104BF0000BBE0F900FBE0F901F90189570932D0A4B
:104C000060932C0AE7E2FAE08093270A118210925F
:104C1000300A81E080932F0A40932B0A82E090E0D3
:104C20009093260A8093250A1092310ACF010397A8
:104C30000E94FC1B91E0811190E0892F08958A3039
:104C400019F48DE001D08AE0FF93EF93E0913803EF
:104C5000F09139030995EF91FF910895FC01859139
:104C6000803011F0ECDFFBCF0895FF27E0E230E267
:104C700047FF0CC0419597FF09C0EDE26095709524
:104C800080959095611D711D811D911D27FF02C0AA
:104C9000219530E350E2AA27660F771F881F991FDE
:104CA000AA1FA41710F0A41B63955A95A9F7AA3060
:104CB00008F0A95FA05DAF93F395611571058105BB
:104CC000910541F7ED3211F4EF93F395F21718F4D3
:104CD0003F93F395FBCF8F91B2DFFA95E1F70895FB
:104CE000DF93CF93CDB7DEB72596E991F991859102
:104CF000803021F0853229F0A2DFF9CFCF91DF910A
:104D0000089520E0E89455915532B1F3503311F4F1
:104D1000689455915A3348F4505380F3220F022E71
:104D2000220F220F200D250FF4CF0EF4219589912B
:104D30009991533609F3533729F1533559F1BC0191
:104D400088279927E8945C3621F489919991689491
:104D50005591543639F446EF7EF077FF0DC08FEF52
:104D60009FEF0AC055374AE039F0583540E121F04D
:104D7000523642E009F0C2CFFF93EF9376DFEF9116
:104D8000FF91B5CFFF93EF93FC0181918030B9F390
:104D900056DFFBCFFF93EF9361DFF1CF0B01DC0117
:104DA000ED91FD912227332744275527E8949AE077
:104DB00001C0319660816032E1F3A8F16D3211F4E7
:104DC0006894F7CF6A3378F5603368F171F498E04E
:104DD00031966081613248F1623611F492E003C08D
:104DE000683719F490E1319660816132F0F06136F4
:104DF00008F060526053B8F06A3018F067506A30BB
:104E000090F0691780F481E2771B08F4790F7695AA
:104E100057954795379527958A95B9F7260F381FE7
:104E2000481F581FE0CF80E001C081E04EF46627A4
:104E30002095309540955095261F361F461F561FCA
:104E4000FE93EE93D0012D933D934D935D931124EA
:104E50000895A0E0B0E0EFE2F7E20C947A2CFC01B8
:104E6000EA018081823008F438C1DB019C919230E4
:104E700008F430C1843059F4943009F02EC1918186
:104E800011968C911197981709F021C126C1943081
:104E900009F420C19230B1F4823009F01EC1CA0178
:104EA000AF0128E0DA010D90AD01DC010D92CD01DA
:104EB0002150C1F7DB0111968C91119791818923C3
:104EC00089830AC1823009F405C1C280D380DB0125
:104ED00012966D907C90139724813581468157817D
:104EE0001496ED90FD900D911C911797C6018619AF
:104EF00097095C0197FF04C0AA24BB24A81AB90A29
:104F0000B0E2AB16B1040CF061C0181619066CF5CE
:104F1000370148010A2C04C09694879477946794CB
:104F20000A94D2F781E090E0A0E0B0E00A2C04C03F
:104F3000880F991FAA1FBB1F0A94D2F70197A109D6
:104F4000B1098E219F21A023B123EE24FF248701E4
:104F5000E3940097A105B10519F4EE24FF2487011D
:104F6000E628F728082919293CC00097D1F1CA0C76
:104F7000DB1C39014A010A2C04C09694879477946B
:104F800067940A94D2F781E090E0A0E0B0E00A2CA8
:104F900004C0880F991FAA1FBB1F0A94D2F701975C
:104FA000A109B10982239323A423B52321E030E092
:104FB00040E050E00097A105B10519F420E030E091
:104FC000A90126293729482959290BC06C147D04C9
:104FD00024F4EE24FF24870104C0630120E030E0C4
:104FE000A9018181FB019181891709F445C08823BA
:104FF00049F0D801C701821B930BA40BB50B9C0190
:10500000AD0104C02E193F09400B510B57FD04C0E0
:105010001982DB82CA820BC081E08983DB82CA826B
:1050200050954095309521953F4F4F4F5F4F2C83C2
:105030003D834E835F830DC0880F991FAA1FBB1F3E
:105040008C839D83AE83BF838A819B8101979B83E1
:105050008A838C819D81AE81BF819C01AD012150ED
:105060003040404050402F3FEFEF3E07EFEF4E07FC
:10507000EFE35E0708F30BC08983DB82CA822E0D43
:105080003F1D401F511F2C833D834E835F8383E070
:1050900088832C813D814E815F8157FF1DC0DA01DD
:1050A000C90181709070A070B07056954795379582
:1050B0002795822B932BA42BB52B8C839D83AE83BA
:1050C000BF838A819B8101969B838A8305C0EBE124
:1050D000F3E003C0FB0101C0FE01CF01CDB7DEB795
:1050E000EEE00C94962CA0E2B0E0E9E7F8E20C9434
:1050F000822C69837A838B839C832D833E834F83A9
:10510000588789E0E82EF12CEC0EFD1ECE010196A9
:10511000B7010E94992B8E010F5E1F4FCE0105969D
:10512000B8010E94992BC701B801AE01475E5F4FDD
:105130000E9429270E94CB2AA096E6E00C949E2C80
:10514000A0E2B0E0E6EAF8E20C94822C69837A836C
:105150008B839C832D833E834F8358878E01075F0B
:105160001F4FCE010196B8010E94992B91E1E92EC3
:10517000F12CEC0EFD1ECE010596B7010E94992B75
:105180008A8991E089278A8BC801B701AE01475E01
:105190005F4F0E9429270E94CB2AA096E6E00C943C
:1051A0009E2CA0E2B0E0E7EDF8E20C94762C698347
:1051B0007A838B839C832D833E834F835887CE01D4
:1051C0000196BE01675F7F4F0E94992BCE01059625
:1051D000BE016F5E7F4F0E94992B9985923078F0C7
:1051E00089898230C0F0943019F4823041F4CBC008
:1051F000843019F4923079F4C6C0923051F481E0D1
:105200002A859A89291709F480E08A87CE010996B0
:10521000BCC0823051F481E02A859A89291709F4AB
:1052200080E08A8BCE014196B0C06D847E848F84ED
:105230009888ED88FE880F89188DE0E2F0E080E024
:1052400090E0DC01AA24BB24650120E030E0A90144
:10525000B3016170707061157105D1F02E0D3F1DA5
:10526000401F511F15012601280E391E4A1E5B1EC4
:1052700081E090E0A0E0B0E02E153F054007510727
:1052800018F080E090E0DC01820D931DA41DB51D97
:10529000AA0CBB1CCC1CDD1C17FF09C061E0262E2C
:1052A000312C412C512CA228B328C428D528319761
:1052B00049F0EE0CFF1C001F111F96948794779401
:1052C0006794C6CF6B897C89EB85FC856E0F7F1F49
:1052D0006E5F7F4F7C8F6B8F61E0EA857A89E7177D
:1052E00009F460E06A8F6B8D7C8D10C0FC01E17069
:1052F000F070309729F05695479537952795506867
:10530000B695A795979587956F5F7F4FB7FDEECFC1
:105310000CC0880F991FAA1FBB1F57FD8160220F69
:10532000331F441F551F615070408030E0E09E07DE
:10533000E0E0AE07E0E4BE0760F36B8F7C8F6FE7C1
:10534000E62EF12C012D112DE822F9220A231B2330
:1053500060E4E616F1040105110561F487FD0AC059
:10536000211531054105510529F0805C9F4FAF4F54
:10537000BF4F80788D8F9E8FAF8FB8A383E0898FCA
:10538000CE01499602C08BE193E00E94CB2AA09601
:10539000E2E10C94922CA8E1B0E0E1EDF9E20C948A
:1053A0007E2C69837A838B839C832D833E834F83FA
:1053B00058878E01075F1F4FCE010196B8010E94EA
:1053C000992B81E1E82EF12CEC0EFD1ECE01059605
:1053D000B7010E94992B9985923008F483C089897E
:1053E000823008F47BC02A853A8923272A879430A3
:1053F00011F0923021F4981709F06CC071C084301C
:1054000039F41D861E861F86188A1C861B866AC074
:10541000823019F484E0898765C08B859C852B894F
:105420003C89821B930B9C878B872D853E854F85FE
:105430005889ED88FE880F89188D2E153F05400785
:10544000510738F4220F331F441F551F01979C87C3
:105450008B876FE170E0A12CB12CC12CA0E4DA2E77
:1054600080E090E0DC012E153F054007510740F039
:105470008A299B29AC29BD292E193F09400B510BC4
:10548000D694C794B794A794220F331F441F551F77
:105490006150704041F76FE7E62EF12C012D112D80
:1054A000E822F9220A231B2360E4E616F104010531
:1054B000110561F487FD0AC021153105410551052B
:1054C00029F0805C9F4FAF4FBF4F80788D879E87BC
:1054D000AF87B88B8E01075F1F4F04C0870102C0E2
:1054E0000BE113E0C8010E94CB2A6896EAE00C9415
:1054F0009A2CACE0B0E0EFE7FAE20C94862C6983DA
:105500007A838B839C83CE010196BE016B5F7F4FB4
:105510000E94992B8D81823081F1823070F184302C
:1055200021F48E81882369F10AC02F81388537FDE7
:1055300024C06E812F3131053CF0662311F120E04B
:1055400030E040E050E821C08EE190E0821B930BF8
:1055500029853A854B855C8504C0569547953795D6
:1055600027958A95D2F7662381F05095409530951E
:1055700021953F4F4F4F5F4F08C020E030E0A90119
:1055800004C02FEF3FEF4FEF5FE7B901CA012C9640
:10559000E2E00C94A22CEF92FF920F931F93CF9313
:1055A000DF93FC01248135814681578161818081AF
:1055B000823020F44061EFEFF0E0A3C0843009F4C2
:1055C0009BC0823009F492C0211531054105510577
:1055D00009F48FC00280F381E02D8FEFE238F807E5
:1055E0000CF05AC0C2E8DFEFCE1BDF0BCA31D10589
:1055F0006CF579018A010C2E04C016950795F79475
:10560000E7940A94D2F781E090E0A0E0B0E00C2E9D
:1056100004C0880F991FAA1FBB1F0A94D2F70197D5
:10562000A109B10982239323A423B52321E030E00B
:1056300040E050E00097A105B10519F420E030E00A
:10564000A9012E293F29402B512B03C020E030E037
:10565000A901DA01C9018F779070A070B070803411
:105660009105A105B10539F427FF09C0205C3F4F22
:105670004F4F5F4F04C0215C3F4F4F4F5F4FE1E002
:10568000F0E0203080E0380780E0480780E45807E9
:1056900028F5E0E0F0E022C0E038F1056CF5E158D3
:1056A000FF4FDA01C9018F779070A070B07080341D
:1056B0009105A105B10539F427FF09C0205C3F4FD2
:1056C0004F4F5F4F04C0215C3F4F4F4F5F4F57FF1D
:1056D00005C05695479537952795319687E056959D
:1056E0004795379527958A95D1F70BC0E0E0F0E014
:1056F00005C0E0E0F0E005C0EFEFF0E020E030E0D2
:10570000A9018E2F879588278795942F9F77679576
:1057100066276795E695E22EA92FA82BFE2FF62B7C
:10572000622F732F8A2F9F2FCDB7DEB7E6E00C9440
:105730009E2CDC01FB012C9111963C911197129645
:105740008C911297482F4F7750E0982F991F9927E7
:10575000991F13966C911397862F880F892B90E0D1
:10576000661F6627661F6183009739F5211531058D
:105770004105510511F482E029C082E89FEF93832F
:10578000828367E0220F331F441F551F6A95D1F7AC
:1057900083E0808309C0220F331F441F551F82817D
:1057A0009381019793838283203080E0380780E0E3
:1057B000480780E4580778F320C08F3F910579F4BB
:1057C000211531054105510519F484E080830895C0
:1057D00044FF03C081E0808310C010820EC08F5749
:1057E00090409383828383E0808387E0220F331F7E
:1057F000441F551F8A95D1F750642483358346830F
:1058000057830895629FD001739FF001829FE00D3E
:10581000F11D649FE00DF11D929FF00D839FF00D2F
:10582000749FF00D659FF00D9927729FB00DE11DDB
:10583000F91F639FB00DE11DF91FBD01CF011124B8
:105840000895991B79E004C0991F961708F0961BDC
:10585000881F7A95C9F780950895AA1BBB1B51E153
:1058600007C0AA1FBB1FA617B70710F0A61BB70BD0
:10587000881F991F5A95A9F780959095BC01CD0175
:10588000089597FB092E07260AD077FD04D0E5DF9F
:1058900006D000201AF4709561957F4F0895F6F7B1
:1058A000909581959F4F0895A1E21A2EAA1BBB1BCC
:1058B000FD010DC0AA1FBB1FEE1FFF1FA217B307DC
:1058C000E407F50720F0A21BB30BE40BF50B661FF2
:1058D000771F881F991F1A9469F7609570958095B6
:1058E00090959B01AC01BD01CF0108952F923F928D
:1058F0004F925F926F927F928F929F92AF92BF92E0
:10590000CF92DF92EF92FF920F931F93CF93DF938B
:10591000CDB7DEB7CA1BDB0B0FB6F894DEBF0FBEE8
:10592000CDBF09942A88398848885F846E847D8435
:105930008C849B84AA84B984C884DF80EE80FD8037
:105940000C811B81AA81B981CE0FD11D0FB6F894AD
:10595000DEBF0FBECDBFED010895EE0FFF1F059016
:10596000F491E02D0994FC0188279927E89421916E
:105970002032E9F3293010F02E30C8F32B3241F0F9
:105980002D3239F4689404C00E94F22C820F911DCC
:10599000219120532A30C0F31EF4909581959F4F9A
:1059A0000895FB019F01E8944230C4F04532B4F4FD
:1059B0004A3029F497FB1EF4909581959F4F642FF0
:1059C00077270E942D2C805D8A330CF0895D8193AE
:1059D000CB010097A1F716F45DE251931082C90143
:1059E0000C94FA2C7AE0979F902D879F802D910D33
:1059F00011240895DC01FC01672F71917723E1F7F1
:105A0000329704C07C916D9370836291AE17BF078B
:085A1000C8F30895F894FFCFDC
:105A1800303A0020222A2B2C5B3D5D7C7F0001FF61
:105A28007B0A000010001000100010001000100089
:105A380010001000100010001000100010001000DE
:105A480010001000100410041004100010001000C2
:105A580010001000100010001000100010001000BE
:105A680010001000100010000800080008040804C6
:105A780010041000100010001234567817080000A7
:105A88000000FF7B0A000102030405060708090A53
:105A98000B0C0D0E0F101112131415161718191AD6
:105AA8001B1C1D1E1F202122232425262728292AC6
:105AB8002B2C2D2E2F303132333435363738393AB6
:105AC8003B3C3D3E3F404142434445464748494AA6
