:100000000C94C4000C94E3000C94E3000C94E30003
:100010000C94E3000C94E3000C94E3000C94E300D4
:100020000C94E3000C9410030C94E3000C94E30094
:100030000C94E3000C94E3000C94E3000C94E300B4
:100040000C9428250C94E3000C94E3000C94E3003A
:100050000C94E3000C94FD240C94E3000C94E30056
:100060000C94E3000C94E3000C94E3000C94E30084
:100070000C94E3000C94E3000C94E3000C94E30074
:100080000C94E3000C94E3000C94E3000C94E30064
:100090000C94E300031A101A711A771A001A001A46
:1000A000001A001A001A001A0A1B0F1B111B1E1B34
:1000B000371BCD1F3D20B320052140218021C721C2
:1000C0005C22EB22C91FD5235772697465206572C3
:1000D000726F720D0A0042202564004275666665E3
:1000E000722066756C6C206572726F720A002564EE
:1000F0002D25642D25645425643A25643A25640A27
:100100000072633D25640A004F70656E696E67205A
:1001100066696C652025730A0046726565206C6F00
:1001200067206E722025640A0072633D25640A0010
:100130006F70656E20646972200A0072633D2564E9
:100140000A00496E697469616C697A65206C6F6731
:100150006963616C20647269636520300A007263B0
:100160003D25640A00496E697469616C697A65208D
:100170006469736B20300A0053797374656D207362
:100180007461727465740A0011241FBECFEFD0E150
:10019000DEBFCDBF11E0A0E0B1E0E8E2FBE500E0AA
:1001A0000BBF02C007900D92A232B107D9F718E039
:1001B000A2E2B1E001C01D92A83BB107E1F70E94A5
:1001C000D1010C94922D0C940000A0E0B0E0EBEE75
:1001D000F0E00C94062D6C014EE9E42E48E0F42E7C
:1001E0000AE718E0C0E0D0E03BEDA32E30E0B32EEC
:1001F000C7010E94EF1E882369F590912A01923071
:1002000060F000D0ADB7BEB71296BC92AE92119717
:100210000E94F3260F900F901AC0DE0123E0AA0F70
:10022000BB1F2A95E1F7AF58B74FE92FF0E083E005
:10023000EE0FFF1F8A95E1F7E257F74F8C918193FC
:100240001D92A017B107D1F79F5F90932A0189E013
:100250000E94B4242196EDE0F0E0EE0EFF1E085F50
:100260001F4FC230D10521F610E0C6EDD0E014C01A
:1002700000D000D0EDB7FEB73196ADB7BEB712963D
:10028000DC93CE931197128313820E94F3261F5F93
:100290000F900F900F900F9080912A01181740F344
:1002A00049E0849FA0011124C6016EE878E020E0B7
:1002B00030E00E94DC0D892B59F000D088EC90E0F2
:1002C000EDB7FEB7928381830E94F3260F900F90C3
:1002D0008CE592E10197F1F710922A01CDB7DEB7D4
:1002E000EAE00C94222DA8E0B0E0E9E7F1E00C94FC
:1002F0000E2DCE0101960E94CA1B2C8130E040E0F9
:1003000050E0A901332722278B8190E0A0E0B0E0E4
:10031000F5E1880F991FAA1FBB1FFA95D1F7282B6B
:10032000392B4A2B5B2B8E8190E0A0E0B0E0EBE014
:10033000880F991FAA1FBB1FEA95D1F7282B392BCD
:100340004A2B5B2B8F8190E0A0E0B0E075E0880F36
:10035000991FAA1FBB1F7A95D1F7282B392B4A2B3F
:100360005B2B8885869590E0A0E0B0E0282B392BA8
:100370004A2B5B2B89819A818C5B9740A0E0B0E08F
:1003800069E1880F991FAA1FBB1F6A95D1F7282B17
:10039000392B4A2B5B2BB901CA012896E2E00C9459
:1003A0002A2DA8E4B0E0E7EDF1E00C94082D0E94BE
:1003B000392689E58093B3008DE08093B00082E018
:1003C0008093700084E687BD84B5856084BD80918C
:1003D0006E00826080936E000E941D1D80E00E946E
:1003E00085240E94C80387EF93E0909332018093A5
:1003F000310188E893E124E131E0F9013197F1F727
:100400000197D9F700D088E791E0ADB7BEB7129653
:100410009C938E9311970E94F32685E691E0EDB7A9
:10042000FEB7928381830E94F3260F900F9080E0A5
:100430000E94251800D000D0EDB7FEB731962EE50A
:1004400031E0ADB7BEB712963C932E9311978283DD
:1004500013820E94F3260F900F9082E491E0EDB793
:10046000FEB7928381830E94F3260F900F9080E065
:1004700063E371E00E945C0400D000D02BE331E024
:10048000ADB7BEB712963C932E93119714969C93DA
:100490008E9313970E94F3260F900F9080E391E0C4
:1004A000EDB7FEB7928381830E94F3260F900F90E1
:1004B0008E010D5E1F4FC80160E071E00E94711453
:1004C00000D000D029E231E0ADB7BEB712963C9320
:1004D0002E93119714969C938E9313970E94F32654
:1004E0000F900F900F900F90C8010E947A267C0108
:1004F00000D000D089E191E0EDB7FEB7928381830F
:10050000F482E3820E94F3260F900F900F900F90D9
:100510008E01075F1F4FC701B8014AE050E00E94FB
:10052000592D00D000D088E091E0ADB7BEB712964B
:100530009C938E93119714961C930E9313970E947D
:10054000F3260F900F900F900F9089E2E82EF12C78
:10055000EC0EFD1EC701B80146E00E94211500D037
:1005600000D021E031E0EDB7FEB7328321839483E0
:1005700083830E94F3260F900F900F900F90C70176
:100580000E94EE1180E197E224E131E0F901319718
:10059000F1F70197D9F778946E010894C11CD11C2A
:1005A000BEEEEB2EB0E0FB2E04E111E0C6010E948E
:1005B000CA1B2DB73EB72E5030400FB6F8943EBF41
:1005C0000FBE2DBFEDB7FEB73196ADB7BEB71296D1
:1005D000FC92EE92119789819A81938382838B8119
:1005E000848315828C81868317828E818087118611
:1005F0008F81828713868885848715860E94F326DB
:1006000080E395E7EDB7FEB73E960FB6F894FEBFD0
:100610000FBEEDBFF8013197F1F70197D9F7C6CFBB
:100620001F920F920FB60F920BB60F9211242F93B9
:100630003F934F935F936F937F938F939F93AF936A
:10064000BF93EF93FF9380917F0390918003019676
:100650009093800380937F030E94601BFF91EF9132
:10066000BF91AF919F918F917F916F915F914F91CA
:100670003F912F910F900BBE0F900FBE0F901F90C8
:100680001895982F8091C00085FFFCCF9093C600ED
:100690000895982F8091C80085FFFCCF9093CE00DD
:1006A00008956F927F928F929F92AF92BF92CF9256
:1006B000DF92EF92FF920F931F935B016C01390160
:1006C0004A0120E030E040E051E40E94562920E059
:1006D00030EC48E25BE40E9429297B018C01C601D1
:1006E000B50120E030E040E851E40E9456299B012A
:1006F000AC01C801B7010E94502A20E030E040E878
:100700005FE30E94F8280E94FC2A7B018C01C4014F
:10071000B30120E030E040E051E40E94562920E09F
:1007200030EC48E25BE40E9429295B016C01C401C2
:10073000B30120E030E040E851E40E9456299B01DB
:10074000AC01C601B5010E94502A20E030E040E82B
:100750005FE30E94F8280E94FC2AE092C400EF2C7C
:10076000FF0CFF08E092C5006093CC00672F770F65
:10077000770B6093CD001F910F91FF90EF90DF906A
:10078000CF90BF90AF909F908F907F906F90089583
:1007900088E98093C10096E09093C20088E180933D
:1007A000C9009093CA0060E070E086E996E420E01A
:1007B00030E041EE57E40E94510308958091C0005B
:1007C00087FFFCCF8091C6000895882349F08130CF
:1007D00069F48091C80085FFFCCF6093CE00089536
:1007E0008091C00085FFFCCF6093C6000895982FCC
:1007F0008091C80085FFFCCF9093CE000895FC0146
:1008000007C08091C00085FFFCCF31969093C60051
:1008100090819923B1F70895982F8091C80085FFA2
:10082000FCCF9093CE000895FC0107C08091C800D2
:1008300085FFFCCF31969093CE0090819923B1F73C
:100840000895EF92FF920F931F93CF93DF93EC01E4
:100850007A018B018EEF9FEFAFEFBFEFE80EF91E2D
:100860000A1F1B1F8E8D9F8DA8A1B9A10297A109F8
:10087000B109E816F9060A071B0728F020E030E066
:1008800040E050E012C02A8130E040E050E0C80172
:10089000B7010E949D2C9B01AC018AA59BA5ACA52C
:1008A000BDA5280F391F4A1F5B1FB901CA01CDB76B
:1008B000DEB7E6E00C94262DDB01882319F02BE04F
:1008C00030E010C0E0912201F0912301309709F04F
:1008D0001082109709F01C92B0932301A09322017B
:1008E00020E030E0C9010895882319F02BE030E0C2
:1008F00004C01092260120E030E0C9010895FC01F7
:10090000009799F08081882381F0868197818617EE
:10091000970759F481810E94E81880FD03C020E008
:1009200030E005C023E030E002C029E030E0C9013A
:100930000895A0E0B0E0EFE9F4E00C94022DEC01A2
:100940004A015B01CEA4DFA4E8A8F9A8C416D50625
:10095000E606F70609F44FC08C818823A1F182E3F3
:10096000682E712C6C0E7D1E8981B301A701960142
:1009700001E00E944D19892BD9F51C828A8D9B8D2F
:10098000AC8DBD8D2AA13BA14CA15DA1820F931F0F
:10099000A41FB51FC816D906EA06FB06A0F41B81E2
:1009A00010C08A8D9B8DAC8DBD8DC80ED91EEA1EE0
:1009B000FB1E8981B301A701960101E00E944D1938
:1009C0001150123070F781149104A104B10499F010
:1009D000BE016E5C7F4F8981A501940101E00E94F8
:1009E000EF18892B29F48EA69FA6A8AAB9AA03C03E
:1009F00021E030E002C020E030E0C901CDB7DEB731
:100A0000EEE00C941E2DA0E0B0E0E9E0F5E00C94DF
:100A1000FE2C5C016A017B0138014901423051051D
:100A20006105710508F4B1C0F501868D978DA0A10F
:100A3000B1A1481759076A077B0708F0A6C022A092
:100A400033A044A055A08081823009F466C0833071
:100A500009F47AC0813019F042E050E092C0EA0116
:100A6000D695C795C40FD51FAE01452F552746957E
:100A700060E070E0420D531D641D751DC5010E94AC
:100A80009904AC01009709F07CC0DE01B1708601C9
:100A9000017010700115110551F0F501EA0FFB1FEF
:100AA00082A98F70962D9295907F982B01C0962DDC
:100AB000AA0DBB1DD2969C93219681E0F5018483FB
:100AC000AE01452F5527469560E070E0420D531D5D
:100AD000641D751DC5010E949904AC01009709F0C1
:100AE00050C0D1700115110549F0E4E09694879447
:100AF00077946794EA95D1F7662D0BC0F501EC0F5A
:100B0000FD1F62A9607FBB27A92D982D872D8F70AF
:100B1000682BCA0DDB1D6AAB34C077276F2D5E2DA5
:100B20004D2D420D531D641D751DC5010E94990474
:100B3000AC01009731F5F601EE0FFF1FF170EA0DE1
:100B4000FB1D73AA62AA1DC027E07695679557958D
:100B500047952A95D1F7420D531D641D751DC5019A
:100B60000E949904AC01009761F4F601EE0FFF1F9B
:100B7000EE0FFF1FF170EA0DFB1D62AA73AA84AA93
:100B800095AA81E0F501848302C042E050E0CA01E9
:100B9000CDB7DEB7E2E10C941A2DA0E0B0E0E3EDB2
:100BA000F5E00C94032D4C017A018B014230510584
:100BB0006105710508F497C0F401868D978DA0A199
:100BC000B1A1481759076A077B0708F08CC0A2A09B
:100BD000B3A0C4A0D5A08081823009F44DC0833079
:100BE00009F463C0813009F083C0EA01D695C79546
:100BF000C40FD51FAE01452F5527469560E070E024
:100C00004A0D5B1D6C1D7D1DC4010E949904892B3A
:100C100009F06EC0FE01F170E80DF91D72A8219671
:100C2000AE01452F5527469560E070E04A0D5B1DEB
:100C30006C1D7D1DC4010E949904892B09F058C0C8
:100C4000672D70E0D170C80DD91D9AA980E0682B7E
:100C5000792BC70181709070892B39F044E076952B
:100C600067954A95E1F79B011DC09B0140E050E06C
:100C70003F704070507040C0452F562F672F772728
:100C80004A0D5B1D6C1D7D1DC4010E949904892BBA
:100C900079F5F701EE0FFF1FF170E80DF91D82A93C
:100CA00093A99C0140E050E027C097E076956795B6
:100CB000579547959A95D1F74A0D5B1D6C1D7D1D83
:100CC000C4010E949904892B99F4F701EE0FFF1FCC
:100CD000EE0FFF1FF170E80DF91D22A933A944A9F9
:100CE00055A95F7009C021E030E040E050E004C049
:100CF0002FEF3FEF4FEF5FEFB901CA01CDB7DEB77E
:100D0000EDE00C941F2DA0E0B0E0E9E8F6E00C94D3
:100D1000062D6C015B01DC0115967C936E93149794
:100D200016964D915D916D917C91199741305105C9
:100D30006105710509F4D0C0ED91FC91868D978D08
:100D4000A0A1B1A1481759076A077B0708F0C4C0E2
:100D5000411551056105710581F58081833049F4A4
:100D600046A157A160A571A5411551056105710501
:100D700021F5F60112861386148615860190F081FE
:100D8000E02D80859185A816B90608F0A5C0C5019B
:100D900024E0969587952A95E1F7A0E0B0E026A19A
:100DA00037A140A551A5820F931FA41FB51FF601BF
:100DB00086879787A08BB18B7BC08281082F10E03C
:100DC00084E0000F111F8A95E1F725C0CE010E9433
:100DD000CD05AB01BC014F3FFFEF5F07FFEF6F0792
:100DE000FFEF7F0719F421E030E078C04230510571
:100DF0006105710508F470C0D601ED91FC91868DF6
:100E0000978DA0A1B1A1481759076A077B0708F081
:100E100063C0A01AB10AF601C081D181A016B10643
:100E2000A8F6D6011A964D935D936D937C931D970A
:100E3000BEEFEB2EBFEFFB2EBFEF0B2FBFEF1B2F35
:100E4000E40EF51E061F171F8E8D9F8DA8A1B9A158
:100E50000297A109B109E816F9060A071B0728F04D
:100E600020E030E040E050E012C02A8130E040E075
:100E700050E0C801B7010E949D2C9B01AC018AA5DE
:100E80009BA5ACA5BDA5280F391F4A1F5B1FC50137
:100E9000A4E096958795AA95E1F7A0E0B0E0280F29
:100EA000391F4A1F5B1FF60126873787408B518BFE
:100EB000D6018D919C91C296BFE0AB22BB24F5E098
:100EC000AA0CBB1CFA95E1F78A0D9B1DF601938BCA
:100ED000828B20E030E002C022E030E0C901CDB7D3
:100EE000DEB7EAE00C94222DA4E0B0E0EAE7F7E0F8
:100EF0000C94FE2C1C012A013B01DC015E968D91B5
:100F00009D910D90BC91A02D89839A83AB83BC8366
:100F1000411551056105710581F4F10182849384C5
:100F2000A484B58481149104A104B10411F188163C
:100F30009906AA06BB06E8F421C0C1010E94CD05AE
:100F40009B01AC01623071058105910528F421E017
:100F500030E040E050E093C089819A81AB81BC8150
:100F6000281739074A075B0708F489C05301420173
:100F700005C041E0842E912CA12CB12C7501640197
:100F80000894C11CD11CE11CF11C89819A81AB81A0
:100F9000BC81C816D906EA06FB0660F092E0891605
:100FA0009104A104B10408F461C032E0C32ED12C35
:100FB000E12CF12CC101B701A6010E94CD059B01D6
:100FC000AC016115710581059105A9F06F3FAFEF87
:100FD0007A07AFEF8A07AFEF9A0709F450C0613084
:100FE00071058105910509F44AC0C814D904EA04C1
:100FF000FB0431F63BC0BC2CAD2C9E2C8F2CC101C8
:10100000A601B7010FEF1FEF2FEF3FE00E9403058E
:10101000892B89F5411451046104710449F0C1011F
:10102000B301A201860197010E940305892B19F5DE
:10103000F101B286A3869486858686859785A089E8
:10104000B1898F3FFFEF9F07FFEFAF07FFEFBF07AC
:1010500051F00197A109B109F10186879787A08B0B
:10106000B18B81E08583A701960109C020E030E0C3
:1010700040E050E004C02FEF3FEF4FEF5FEFB901CA
:10108000CA012496E2E10C941A2DA6E0B0E0EBE44C
:10109000F8E00C94FE2C9E838D833A014B01DC0119
:1010A00012966D917C9113978D919C910E947F0473
:1010B0009C838B83892B09F0C7C1ED81FE818481DC
:1010C00087FD92C0AD81BE811A96AD90BD90CD9046
:1010D000DC901D97A614B704C804D90410F481FF4E
:1010E00002C064015301ED81FE8126813781408574
:1010F000518516821782108611868FEF8583A11481
:10110000B104C104D10409F46BC10190F081E02D58
:10111000FA83E9838281682E77248824992469E000
:10112000660C771C881C991C6A95D1F7211531052E
:1011300041055105C1F119012A010894210831081E
:1011400041085108C601B50161507040804090408F
:10115000A40193010E94DC2C79018A01C201B10132
:10116000A40193010E94DC2CE216F3060407150784
:10117000D0F088279927DC0186199709A809B909B1
:1011800082219321A421B521ED81FE81868397835D
:10119000A087B187A81AB90ACA0ADB0A428953890B
:1011A0006489758947C0AD81BE811E964D915D9160
:1011B0006D917C9151974115510561057105A1F51E
:1011C00089819A8140E050E060E070E00E947407FD
:1011D000AB01BC01413051056105710551F4ED8150
:1011E000FE8184818068848382E090E09C838B838D
:1011F0002BC14F3F9FEF59079FEF69079FEF79077B
:1012000059F4AD81BE8114968C9114978068149620
:101210008C93E1E0F0E0D7C0AD81BE811E964D9386
:101220005D936D937C935197ED81FE81428B538B3F
:10123000648B758B411551056105710509F059C025
:10124000CFC0AD81BE8114968C9114972D913C91A5
:1012500081FF0DC0C9010E947407AB01BC0141159B
:1012600051056105710541F46401530148C0C9018C
:101270000E94CD05AB01BC014F3FBFEF5B07BFEF45
:101280006B07BFEF7B0741F4ED81FE8184818068AD
:10129000848381E090E0AACF423051056105710559
:1012A00008F49DCFAD81BE81ED91FC91868D978D27
:1012B000A0A1B1A1481759076A077B0708F08FCF93
:1012C000AD81BE8152964D935D936D937C935597FE
:1012D000FD0186819781A085B185860D971DA81D8A
:1012E000B91D86839783A087B187A618B708C80859
:1012F000D9086A147B048C049D0408F4A2CFED8104
:10130000FE8186819781A085B1858A0D9B1DAC1DCC
:10131000BD1D86839783A087B187D601C50129E0CB
:10132000B695A795979587952A95D1F7E82E858349
:101330008FEF91E0A0E0B0E0A822B922CA22DB2220
:10134000A114B104C104D10409F44AC08080918081
:10135000EEEFAE2EEFEFBE2EEFEFCE2EEFEFDE2E46
:10136000A40EB51EC61ED71EF401868D978DA0A1B2
:10137000B1A10297A109B109A816B906CA06DB06F0
:10138000C0F4228130E040E050E0C601B5010E9487
:101390009D2C9B01AC01F40182A593A5A4A5B5A544
:1013A000280F391F4A1F5B1F2115310541055105C3
:1013B00069F4AD81BE8114968C911497806814965F
:1013C0008C93E2E0F0E0FC83EB833EC02E0D311DF8
:1013D000411D511DE394AD81BE811596EC9204C070
:1013E00020E030E040E050E0ED81FE818681978191
:1013F000A085B1859170A070B0700097A105B1056E
:1014000069F086899789A08DB18D281739074A0719
:101410005B0721F0268B378B408F518FED81FE814A
:10142000268137814085518582859385A485B58540
:1014300082179307A407B50738F4228733874487B8
:1014400055878481806284838B819C812696E2E12A
:101450000C941A2DA0E0B0E0E0E3FAE00C94002D2B
:10146000EC016B016C807D800894611C711C61141F
:10147000710409F44AC18E859F85A889B9890097AE
:10148000A105B10509F441C12FE0422E512C46209F
:1014900057204114510409F027C10196A11DB11D27
:1014A0008E879F87A88BB98B4A855B856C857D85E8
:1014B000E881F981411551056105710539F480858F
:1014C00091856816790608F40FC11FC1828190E0EA
:1014D00001979301A4E036952795AA95E1F7822319
:1014E0009323892B09F000C1CF010E94CD057B0118
:1014F0008C0182E0E816F1040105110508F408C129
:101500009FEFE9169FEFF9069FEF09079FEF190775
:1015100009F401C1E881F981868D978DA0A1B1A15F
:10152000E816F9060A071B0708F4A5C0C114D10480
:1015300009F4EBC04A855B856C857D85CF010E94EF
:1015400074077B018C01611571058105910519F402
:1015500027E030E0E2C0613071058105910509F4B2
:10156000D7C06F3FBFEF7B07BFEF8B07BFEF9B0776
:1015700009F4D1C08881998140E050E060E070E0DA
:101580000E949904892B09F0C6C088819981FC01C9
:10159000F2968E5C9D4F01C01192E817F907E1F7B2
:1015A00088809980EEEFAE2EEFEFBE2EEFEFCE2EBD
:1015B000EFEFDE2EAE0CBF1CC01ED11EF401868DD7
:1015C000978DA0A1B1A10297A109B109A816B906EA
:1015D000CA06DB0628F020E030E040E050E015C00D
:1015E000D40112962C9130E040E050E0C601B501E4
:1015F0000E949D2C9B01AC01F40182A593A5A4A59A
:10160000B5A5280F391F4A1F5B1FD4019E962D9345
:101610003D934D935C93D197DD24CC24C3941AC0A1
:10162000C4828881998140E050E060E070E00E94CF
:101630009904892B09F06FC0E881F98186A597A5E7
:10164000A0A9B1A90196A11DB11D86A797A7A0AB1E
:10165000B1ABD394E881F9818281D81608F386A5CD
:1016600097A5A0A9B1A98D199109A109B10986A7CA
:1016700097A7A0ABB1ABEA86FB860C871D87C88015
:10168000D9808EEF9FEFAFEFBFEFE80EF91E0A1F74
:101690001B1FF601868D978DA0A1B1A10297A1090C
:1016A000B109E816F9060A071B0728F020E030E028
:1016B00040E050E015C0D60112962C9130E040E099
:1016C00050E0C801B7010E949D2C9B01AC01F601BE
:1016D00082A593A5A4A5B5A5280F391F4A1F5B1F96
:1016E0002E873F87488B598B7D826C8288819981B8
:1016F000C29675E0440C551C7A95E1F7840D951D52
:101700009B8B8A8B20E030E008C024E030E005C0ED
:1017100022E030E002C021E030E0C901CDB7DEB701
:10172000E0E10C941C2DACE0B0E0E9E9FBE00C94A6
:10173000062D8C017B01DC0112966D917C91139733
:101740008D919C910E947F04009781F4CE010196B7
:10175000F801958B848BE114F10419F024E030E05A
:1017600025C0C80160E070E00E9483069C01ACC007
:10177000D8018D919C910E9499049C01009719F5C4
:10178000D8015296ED91FC9153978081882309F4FA
:10179000A0C0853E19F0838583FF23C0C80160E0A7
:1017A00070E00E942A0A9C01009769F4F8014685BE
:1017B0005785608971894115510561057105C1F62B
:1017C0002115310571F0D8011E961D921D921D92B2
:1017D0001C9251972430310521F02115310509F073
:1017E00073C09701275F3F4FF80186859785A089D1
:1017F000B1890097A105B10509F452C04289538906
:1018000080E090E0FA01E80FF91FE081E03251F04A
:10181000E53009F4E5EED901ED939D01019688309C
:10182000910581F7FA018085803211F4F90110C029
:10183000F9018EE28193DA012C5F3F4F18968C916B
:101840001897803229F081931196E217F307B1F7C8
:10185000DA011B968C91D70118968C93DA015C966D
:10186000AD90BD90CD90DC905F97D701AD92BD92C9
:10187000CD92DC921397DA0158968D919C915997ED
:10188000D70115969C938E931497DA0156968D91F5
:101890009C915797D70117969C938E9316979F010B
:1018A000F9011082C80160E070E00E942A0A9C01E0
:1018B0008430910549F4D8011E961D921D921D9207
:1018C0001C92519720E030E0C9012C96EAE00C947C
:1018D000222D24E030E077CFA0E0B0E0E2E7FCE0AA
:1018E0000C94052DEC017B0103C00894E11CF11C54
:1018F000F70180818032C9F38F3211F08C3541F4C9
:101900000894E11CF11C1E821F82188619860AC0E9
:10191000E881F98186899789A08DB18D8E839F8317
:10192000A887B987F7018081803248F4CE0160E052
:1019300070E00E9483069C011B8A1A8A2BC1F0E288
:101940009F2EE5E0CE2E0C891D89F801C8010B966B
:1019500001C09192E817F907E1F7F70180818E3213
:1019600049F040E050E0A0E0B0E078E0A72EB12CD4
:10197000DD2421C0D80180E090E0F701E80FF91FD5
:10198000E0810196EE3231F48330910509F4FBC019
:10199000ED93F3CFEF3229F0EC3539F0E13208F076
:1019A000F2C0E13210F424E201C020E2E80EF91E98
:1019B000F8012387F5C0F701EA0FFB1F208111967C
:1019C000213208F46AC02F3209F4F4C02C3509F42E
:1019D000F1C02E3219F04A155B0584F0F8E0AF161D
:1019E000B10409F0D0C02E3209F0CDC0DD0CDD0C01
:1019F00048E050E06BE0A62EB12CDDCF27FF02C0FF
:101A000083E0D82A822F81588F3118F08F558D317D
:101A1000F8F4F701EA0FFB1F3081832F80548F33D6
:101A200020F080548D3708F0AEC0C50101974817EB
:101A300059070CF0A8C01196F801E40FF51F208398
:101A4000CA010196F801E80FF91F3083AC0122C0EA
:101A5000622F70E0E3E0F1E001C0319680818823DD
:101A600039F0992787FD909586179707B1F78BC0B6
:101A7000822F81548A3118F4E2E0DE2A07C0822FD7
:101A800081568A3118F4F1E0DF2A2052F801E40F80
:101A9000F51F20834F5F5F4F8ECF64E0452B09F425
:101AA00072C0F8018081853E09F4C082F8E0AF166B
:101AB000B10411F4DD0CDD0C2D2D30E0C901837073
:101AC0009070019709F460612C70307024303105FA
:101AD00009F46860EA0EFB1EF801638761C04E8559
:101AE0005F8568897989888199810E949904AC0110
:101AF000009701F5EA89FB898081882319F444E085
:101B000050E018C0838583FD0FC0AC89BD899F015B
:101B1000255F3F4FE217F30769F090818C9198178A
:101B200019F431961196F6CFCE0160E070E00E9474
:101B30002A0A3BC0EC89FD898385847041155105D3
:101B400039F09A014430510509F5882309F122C082
:101B50008823E1F4EA89FB89838584FF19C084899D
:101B60009589A0E0B0E0DC0199278827228D338D8C
:101B700040E050E0822B932BA42BB52B8E839F83C8
:101B8000A887B987E0CE26E030E004C09A0102C001
:101B900025E030E0C901CDB7DEB7EBE00C94212D94
:101BA000CE0160E070E00E948306AC01009709F46A
:101BB00096CFC0CF60E072CFA4E0B0E0E2EEFDE0EF
:101BC0000C94FE2C9C838B83162F072F3A013A83AB
:101BD0002983D9011D921C92FC016281738180814D
:101BE00091810E947F044C01009709F009C2AB81EA
:101BF000BC8114968C9187FD78C081FD04C037E0CC
:101C0000832E912CFDC1EB81FC8122853385448597
:101C10005585C301A0E0B0E0820F931FA41FB51F3C
:101C200082179307A407B50710F466247724812F41
:101C3000902F9C01290122242394BDC1AB81BC813A
:101C400016962D913D914D915C911997DA01C9013C
:101C50009170A070B0700097A105B10509F04AC15C
:101C6000AB81BC81ED91FC91119715969C911597D4
:101C70008281981708F455C0211531054105510599
:101C8000C9F41E966D917D918D919C91519761152E
:101C9000710581059105F9F4CF0140E050E060E065
:101CA00070E00E947407EB81FC8166877787808BE8
:101CB000918B0BC0AB81BC8152964D915D916D9122
:101CC0007C915597CF010E947407611571058105BC
:101CD000910509F474C1613071058105910549F4DC
:101CE000EB81FC8184818068848322E0822E912CA8
:101CF00087C16F3FFFEF7F07FFEF8F07FFEF9F0762
:101D000049F4AB81BC8114968C9114978068149629
:101D10008C9309C1EB81FC81628B738B848B958BD7
:101D20001582AB81BC81ED91FC91119726A537A559
:101D300040A951A95696ED90FD900D911C9159978F
:101D40002E153F054007510751F4CF0140E050E008
:101D500060E070E00E949904892B09F0DFC0AB813C
:101D6000BC810D911C91119752962D913D914D91F1
:101D70005C9155972250304040405040F801868D8C
:101D8000978DA0A1B1A10297A109B1092817390720
:101D90004A075B07B8F43280632D70E080E090E082
:101DA0000E949D2C9B01AC01F80182A593A5A4A5DE
:101DB000B5A5280F391F4A1F5B1F211531054105A5
:101DC000510549F4AB81BC8114968C9114978068BD
:101DD00014968C938ACFEB81FC81858159016A012D
:101DE000A80EB11CC11CD11C7301EF2CFF24E6947A
:101DF000E114F10409F451C0282F30E0C701820F2B
:101E0000931F632D70E06817790718F47B01E21ABD
:101E1000F30AD80111968C91B201A60195010E2DFD
:101E20000E944D19892B09F079C0AB81BC81ED91DD
:101E3000FC9126A537A540A951A92A193B094C09AF
:101E40005D09C701A0E0B0E0281739074A075B0722
:101E5000D0F4DF01D29689E0220F331F441F551FB3
:101E60008A95D1F7F201E20FF31F9F0120503E4FF8
:101E700002C081918D93E217F307D9F7AB81BC8142
:101E8000ED91FC911482EB81FC8185818E0D85831F
:101E9000B701762F6627770F71C0AB81BC8116968C
:101EA0002D913D914D915C9119971A968D919D912F
:101EB0000D90BC91A02D281739074A075B0788F0C1
:101EC000C80140E050E060E070E00E949904892B76
:101ED00029F5AB81BC81ED91FC91A6A6B7A6C0AA5D
:101EE000D1AAEB81FC81A68AB78AC08ED18E85816A
:101EF0008F5F8583AB81BC811696CD90DD90ED9090
:101F0000FC90199756964D915D916D917C915997E2
:101F10008D919C910E949904892B49F0EB81FC8161
:101F2000848180688483A1E08A2E912C69C0C601D7
:101F3000917020E032E0281B390BB30126153705DC
:101F400008F4B901AB81BC8116968D919C911797CD
:101F50009170C2960D90BC91A02DA80FB91FF201EF
:101F60009201260F371F02C081918D93E217F3076C
:101F7000D9F7AB81BC81ED91FC912482460E571EAE
:101F8000CB01A0E0B0E0EB81FC8126813781408568
:101F90005185280F391F4A1F5B1F268337834087CF
:101FA0005187E981FA8180819181860F971F918302
:101FB0008083661A770A6114710409F03FCEAB8101
:101FC000BC8116962D913D914D915C9119971A9671
:101FD0008D919D910D90BC91A02D82179307A40720
:101FE000B50730F4EB81FC8122873387448755871E
:101FF000AB81BC8114968C911497806214968C935B
:10200000C4012496E2E10C941A2DA4E0B0E0EBE0C8
:10201000F0E10C94FF2C9C838B83162F072F3A0141
:102020003A832983D9011D921C92FC01628173813C
:10203000808191810E947F044C01009709F08AC140
:10204000AB81BC8114968C9187FD60C080FD04C07B
:1020500097E0892E912C7EC1EB81FC81228533850E
:102060004485558586819781A085B185281B390BCC
:102070004A0B5B0BC301A0E0B0E0281739074A0701
:102080005B0708F43901812F902F9C0129015EC163
:10209000AB81BC8116962D913D914D915C91199724
:1020A000DA01C9019170A070B0700097A105B10567
:1020B00009F0EFC0AB81BC81ED91FC9111971596B1
:1020C0009C91159782819817E8F1211531054105FA
:1020D000510539F41E966D917D918D919C9151978A
:1020E0000BC0AB81BC8152964D915D916D917C91FD
:1020F0005597CF010E94CD0562307105810591058C
:1021000048F4EB81FC8184818068848382E0882E9E
:10211000912C20C16F3FFFEF7F07FFEF8F07FFEF8D
:102120009F0749F4AB81BC8114968C911497806809
:1021300014968C93C7C0EB81FC81628B738B848B6C
:10214000958B1582AB81BC810D911C911197529694
:102150002D913D914D915C915597225030404040DA
:102160005040F801868D978DA0A1B1A10297A109D9
:10217000B109281739074A075B07B8F43280632D85
:1021800070E080E090E00E949D2C9B01AC01F80182
:1021900082A593A5A4A5B5A5280F391F4A1F5B1FCB
:1021A000211531054105510549F4AB81BC811496D7
:1021B0008C911497806814968C93A8CFEB81FC8146
:1021C000858169017A01C80ED11CE11CF11C530103
:1021D000AB2CBB24A694A114B10409F452C0282F3F
:1021E00030E0C501820F931F632D70E068177907F7
:1021F00018F45B01A21AB30AD80111968C91B201AE
:10220000A70196010A2D0E94EF18892B09F055C0ED
:10221000AB81BC816D917C91FB018481882321F18C
:1022200026A537A540A951A92C193D094E095F09DA
:10223000C501A0E0B0E0281739074A075B07A0F402
:10224000A9E0220F331F441F551FAA95D1F7D201D1
:10225000A20FB31FF2969B012E5C3D4F02C08191ED
:102260008D93E217F307D9F7AB81BC8115968C915A
:1022700015978A0D15968C93B501762F6627770FE3
:1022800048C0EB81FC81C68AD78AE08EF18E8F5FD1
:102290008583AB81BC811696CD90DD90ED90FC904E
:1022A000199756964D915D916D917C9159978D91AD
:1022B0009C910E949904892B49F0EB81FC818481D7
:1022C0008068848341E0842E912C44C0C6019170C3
:1022D00020E032E0281B390BB3012615370508F43E
:1022E000B901A201AB81BC8116968D919C91179783
:1022F0009170C296ED91FC91E80FF91F9F01260F96
:10230000371F04C08191DA018D93AD01E217F30705
:10231000C9F7460E571ECB01A0E0B0E0EB81FC816F
:102320002681378140855185280F391F4A1F5B1F41
:102330002683378340875187E981FA8180819181A3
:10234000860F971F91838083661A770A6114710440
:1023500009F09ECEC4012496E1E10C941B2D0F934D
:10236000CF93DF93EC019A01AB01BC016E5C7F4F10
:10237000898101E00E94EF18892B11F023E029C028
:10238000C05DDD4F88819981C053D24085559A4AFE
:1023900011F022E01EC0C859DF4F88819981AA81BF
:1023A000BB81C856D040B07086549144A445B0401B
:1023B00011F420E00EC020E0CC57DF4F88819981D6
:1023C000AA81BB81B07086549144A445B04009F005
:1023D00021E0822FDF91CF910F9108950F931F93EA
:1023E000CF93DF93EC016A817B81888199810E9480
:1023F0007F049C01009709F0A6C08C8185FFA3C0D3
:102400004A8D5B8D6C8D7D8D888199810E949904A8
:102410009C01009709F097C00E8D1F8DF8018385F0
:10242000806283878A859B85AC85BD85848F958FE7
:10243000A68FB78F8E859F85938F828F8E859F8580
:10244000A889B989CD01AA27BB27958B848B0E94C7
:102450007301F801668B778B808F918F8C818F7DD4
:102460008C83E881F98181E084830990D881C02D33
:10247000CE0140E050E060E070E00E9499049C01D1
:10248000009709F060C08881833009F051C08D81C8
:10249000882309F44DC01EA61FA618AA19AABE01BA
:1024A0006E5C7F4FFB01CE018E5C9D4F01C011928F
:1024B000E817F907E1F7C05DDD4F85E59AEA9983F2
:1024C0008883C053D24082E592E5A1E6B1E48AABAD
:1024D0009BABACABBDABCA5EDD4F82E792E7A1E43C
:1024E000B1E688839983AA83BB83C651D2408E8587
:1024F0009F85A889B989C65EDD4F88839983AA83A1
:10250000BB83CA51D2408A859B85AC85BD85C25E9E
:10251000DD4F88839983AA83BB83CE51D2402A8919
:102520003B894C895D89898101E00E944D191D829A
:10253000898160E040E050E00E94C419009711F0EA
:1025400081E090E09C01C901DF91CF911F910F9133
:102550000895CF93DF93EC010E94EE119C01009748
:1025600011F419821882C901DF91CF910895A0E07A
:10257000B0E0EDEBF2E10C94022DDC01142FED91B3
:10258000FC9111978081282F332727FD3095205308
:1025900030402A30310538F481818A3321F4329673
:1025A000ED93FC9304C080912601282F30E0232B6B
:1025B00019F02BE030E081C1C0912201D0912301BC
:1025C000FB01D183C083209719F42CE030E075C162
:1025D0008881882359F089810E94E81880FD06C00F
:1025E000112309F465C182FD60C162C1188219829C
:1025F00080E00E94251880FF03C023E030E05DC129
:10260000112311F082FD51C1CE0140E050E060E0A5
:1026100070E00E94AF11813021F0662477244301DD
:1026200010C0FE01E051FE4F8481882309F443C1AC
:102630006084718482849384CE01B401A3010E94DA
:10264000AF11833019F421E030E037C1882309F05D
:1026500032C18DAD9EAD8050924009F02CC1C85B57
:10266000DF4F88819981C854D040BC0180E090E060
:10267000611571058105910541F4CA5ADF4F6881E2
:1026800079818A819B81C655D0406A8F7B8F8C8FE0
:102690009D8FCE5BDF4F2881C254D0402B8330E02A
:1026A00040E050E00E949D2C5B016C01FE01E05C6B
:1026B000FF4F80819181A0E0B0E0860D971DA81D9D
:1026C000B91D8AA39BA3ACA3BDA38FAD8A83CD5BA9
:1026D000DF4F28813981C354D04039872887CB5BAD
:1026E000DF4F88819981C554D0407C0100E010E023
:1026F000E114F1040105110541F4CE5ADF4FE880E1
:10270000F9800A811B81C255D04080819181A0E06F
:10271000B0E0E81AF90A0A0B1B0BEA18FB080C09CF
:102720001D0944E0369527954A95E1F7C901A0E0D7
:10273000B0E0E81AF90A0A0B1B0B2A8130E040E0EE
:1027400050E0C801B7010E94DC2C2E5F3F4F4F4F75
:102750005F4F2E8F3F8F48A359A3273F8FE0380745
:1027600080E0480780E0580710F411E007C0275FB9
:102770003F4F4040504008F0A6C012E08AA19BA104
:10278000ACA1BDA18A0D9B1DAC1DBD1D8EA39FA339
:10279000A8A7B9A78885998534E0969587953A9535
:1027A000E1F7A0E0B0E02AA13BA14CA15DA1820F1E
:1027B000931FA41FB51F8A0D9B1DAC1DBD1D8AA7AD
:1027C0009BA7ACA7BDA78FEF9FEFAFEFBFEF8E87A3
:1027D0009F87A88BB98B1C82133009F051C01D82D2
:1027E000CE59DF4F28813981C256D04040E050E0B9
:1027F000260D371D481D591D2A8B3B8B4C8B5D8B3D
:10280000BE016E5C7F4F898101E00E94EF18892B29
:10281000B9F5C05DDD4F88819981C053D24085559F
:102820009A4A71F58AA99BA9ACA9BDA9825592457E
:10283000A146B14429F5CA5EDD4F88819981AA81FC
:10284000BB81C651D24082579247A144B146C1F4E0
:10285000C25EDD4F88819981AA81BB81CE51D24071
:102860008A879B87AC87BD87C65EDD4F888199814B
:10287000AA81BB81CA51D2408E879F87A88BB98B12
:1028800018831EA61FA618AA19AA1E8A1F8A188EA8
:10289000198E809124019091250101969093250134
:1028A000809324019F838E8303C02AE030E005C01B
:1028B00020E030E002C02DE030E0C901CDB7DEB746
:1028C000EEE00C941E2DC25ADF4F88819981AA81B7
:1028D000BB81CE55D0408EA39FA3A8A7B9A713E074
:1028E00059CFAEE0B0E0E7E7F4E10C940C2D8C0199
:1028F0007E876D87CE010D96B80140E00E94B71229
:102900009C01009709F042C0CE010196D80155966E
:102910009C938E9354976D857E85C8010E946C0CA4
:102920009C01009771F5D8015296ED91FC91539757
:102930003097B9F0838584FF27C084899589A0E00A
:10294000B0E0DC0199278827228D338D40E050E0EC
:10295000822B932BA42BB52BF80186839783A0871A
:10296000B187D801ED91FC911197868197811396DB
:102970009C938E931297C80160E070E00E948306DA
:102980009C012430310511F425E030E0C9012E9678
:10299000E4E00C94282DA4E2B0E0E1EDF4E10C9425
:1029A0000C2D9CA38BA38E01035F1F4FCE0183963A
:1029B000B80140E00E94B712BC010097E9F5CE01D2
:1029C00001969AA389A36BA17CA1C8010E946C0CFB
:1029D000BC01009761F52F8D38A12115310539F41F
:1029E000ED85FE85168A178A108E118E25C0D901B5
:1029F0001B968C911B9784FF1DC00D851E855496D8
:102A00008D919C915597A0E0B0E0DC019927882733
:102A1000F901228D338D40E050E0822B932BA42BC3
:102A2000B52BF801868B978BA08FB18F05C08430B2
:102A3000910511F465E070E0CB01A496E4E00C94FC
:102A4000282DADE2B0E0E7E2F5E10C94FE2C9DA765
:102A50008CA77CA36BA3DC011D921C92B42FBF71C9
:102A6000BDA38E01035F1F4F4E71CE018396B80147
:102A70000E94B712009711F09C01A8C1CE010196E7
:102A80009AA389A36BA17CA1C8010E946C0C9C0134
:102A9000EDA14E2F50E0CA018C719070892B09F482
:102AA00025C12115310509F457C02430310509F03D
:102AB0008DC1C80160E070E00E9483069C01009710
:102AC00009F084C14B8D5C8D6D8D7E8D8D859E85CD
:102AD0000E9499049C01009709F078C1EF8DF8A13C
:102AE000E081E53E09F489C1EE2309F486C1C801FD
:102AF00061E070E00E942A0A9C01009719F366C108
:102B0000AF8DB8A1AD01FD01CD01809601C011923C
:102B1000E817F907E1F769A17AA19B01255F3F4F0B
:102B200006C0FB018191BF01FA018193AF016217D9
:102B30007307B9F7E9A1FAA1838588711C968C9374
:102B4000ED85FE8581E08483FDA1F860FDA38F8D76
:102B500098A19BA78AA7B3C0E2FF03C028E030E09A
:102B600035C1AF8DB8A1BBA7AAA7109709F429C199
:102B70001B968C911B97817109F023C1E3FF9FC0C5
:102B800054968D919C915597A0E0B0E07C01DD2496
:102B9000CC24EAA5FBA5828D938DA0E0B0E0C82AE5
:102BA000D92AEA2AFB2A158A148A138E128E148EC9
:102BB000158E168E178E2D843E8481E0F10184835C
:102BC000D1019E968D919D910D90BC91A02D8EA3CB
:102BD0009FA3A8A7B9A7C114D104E104F10409F483
:102BE00062C0B1E0CB16D104E104F10409F4F6C0EF
:102BF000868D978DA0A1B1A1C816D906EA06FB065D
:102C000008F0ECC04601570142C0C101B501A40162
:102C10000E94CD052B013C016115710581059105CF
:102C200009F4DFC0613071058105910509F4D6C052
:102C30006F3F2FEF72072FEF82072FEF920709F4F4
:102C4000CAC0C101B501A40100E010E020E030E0FD
:102C50000E9403059C01009709F0B8C0F101868528
:102C60009785A089B1898F3FFFEF9F07FFEFAF07DF
:102C7000FFEFBF0751F00196A11DB11DF10186873D
:102C80009787A08BB18B21E0258353014201F1018D
:102C9000868D978DA0A1B1A188169906AA06BB06BC
:102CA00008F4B3CF9EC08D859E854EA15FA168A517
:102CB00079A50E9499049C01009709F087C0FDA1A5
:102CC000F3FF28C0AAA5BBA51B961C920E94730106
:102CD000EAA5FBA566877787808B918BED85FE85BE
:102CE00081E08483FDA1F062FDA314C021153105AC
:102CF00009F06CC08F8D98A19BA78AA7009709F453
:102D000063C0DC011B968C9184FD5EC0E1FF02C0B4
:102D100080FD57C06D857E85FB0126A537A540A99E
:102D200051A9ACA5BDA55A962D933D934D935C93A7
:102D30005D978F8D98A15F969C938E935E97EDA182
:102D40001496EC93AAA5BBA554968D919C9155978A
:102D5000A0E0B0E0DC0199278827EAA5FBA5228D39
:102D6000338D40E050E0822B932BA42BB52BECA5A8
:102D7000FDA586879787A08BB18BEAA5FBA5848DDF
:102D8000958DA68DB78DECA5FDA582879387A48729
:102D9000B58716821782108611868FEF8583ECA582
:102DA000FDA5168A178A108E118E71836083DB0150
:102DB00016968D919C9117979383828320E030E043
:102DC00005C027E030E002C024E030E0C901AD9644
:102DD000E2E10C941A2D21E030E0F8CF22E030E05F
:102DE000F5CFED85FE850894C108D108E108F1080A
:102DF000C286D386E486F58656CF4B8D5C8D6D8D6D
:102E00007E8D8D859E850E9499049C01009709F412
:102E100077CEDCCF82E3809328018FEF8EBD0DB497
:102E200007FEFDCF8EB52FEF2EBD0DB407FEFDCFF3
:102E30009EB59F3F21F0809128018823A9F7892F13
:102E4000089528980E940A178F3F19F421E030E076
:102E500009C0289A8FEF8EBD0DB407FEFDCF8EB549
:102E600020E030E0C9010895FC0184E1809327014E
:102E70009FEF9EBD0DB407FEFDCF8EB58F3F29F4A9
:102E8000809127018823A9F72FC08E3F69F59FEF16
:102E90009EBD0DB407FEFDCF8EB580839EBD0DB4E3
:102EA00007FEFDCF8EB581839EBD0DB407FEFDCF1D
:102EB0008EB582839EBD0DB407FEFDCF8EB5838394
:102EC0006450704011F03496E3CF8FEF8EBD0DB497
:102ED00007FEFDCF8EB58FEF8EBD0DB407FEFDCF83
:102EE0008EB521E030E002C020E030E0C901089555
:102EF0001F93CF93DF93EC01162F0E940A178F3F89
:102F000019F020E030E031C01EBD0DB407FEFDCF4A
:102F10001D3F19F421E030E028C090E088818EBD8B
:102F20000DB407FEFDCF89818EBD0DB407FEFDCF28
:102F3000915011F02296F2CF8FEF8EBD0DB407FEA7
:102F4000FDCF8FEF8EBD0DB407FEFDCF8FEF8EBD91
:102F50000DB407FEFDCF8EB590E08F71853009F07E
:102F600091E081E09827292F30E0C901DF91CF91CE
:102F70001F910895DF92EF92FF920F931F93D82E27
:102F80007A018B0187FF0CC087E740E050E060E0EA
:102F900070E00E94BA17823008F051C08FE7D82243
:102FA000289A8FEF8EBD0DB407FEFDCF8EB50E941F
:102FB0002117892B11F48FEF42C0DEBC0DB407FE40
:102FC000FDCF812F9927AA27BB278EBD0DB407FE01
:102FD000FDCFC801AA27BB278EBD0DB407FEFDCFCC
:102FE000BB27A12F902F8F2D8EBD0DB407FEFDCFD7
:102FF000EEBC0DB407FEFDCF80E4D81611F485E9D0
:1030000006C088E4D81611F487E801C081E08EBDBF
:103010000DB407FEFDCF8CE4D81631F48FEF8EBDD2
:103020000DB407FEFDCF8EB59AE02FEF2EBD0DB487
:1030300007FEFDCF8EB587FF02C09150B9F71F91F3
:103040000F91FF90EF90DF900895A4E0B0E0EBE2E5
:10305000F8E10C940A2D882311F081E0B5C080912D
:103060000E0181FDAFC0389A87E084B980E58CBD40
:103070008AE09FEF9EBD0DB407FEFDCF2EB58150B7
:10308000C9F780E440E050E060E070E00E94BA17C9
:10309000813009F07EC084E68093270188E44AEA03
:1030A00051E060E070E00E94BA17813009F04AC038
:1030B0007E010894E11CF11C87019FEF9E012B5FAC
:1030C0003F4F9EBD0DB407FEFDCF8EB5F801819335
:1030D0008F01E217F307A9F78B81813009F059C0FE
:1030E0008C818A3A09F055C080912701882349F0E4
:1030F00089EE40E050E060E070E40E94BA17882357
:1031000099F780912701882309F443C08AE740E0BA
:1031100050E060E070E00E94BA178823D1F59FEF7D
:103120009EBD0DB407FEFDCF8EB5F70181937F01E3
:10313000E017F107A9F7898186FD02C014E02AC0D3
:103140001CE028C089EE40E050E060E070E00E94A2
:10315000BA17823018F001E411E002C009EE12E063
:1031600080912701882349F0802F40E050E060E003
:1031700070E00E94BA17882399F78091270188236D
:1031800041F080E540E052E060E070E00E94BA1754
:10319000811110E010932901289A8FEF8EBD0DB494
:1031A00007FEFDCF8EB5112321F080910E018E7F99
:1031B00007C028980E940A171CBC80910E018160EC
:1031C00080930E0180910E012496E6E00C94262D4A
:1031D000882311F081E0089580910E0108950F93E6
:1031E000CF93DF93EB01882309F050C0002309F44B
:1031F0004DC080910E0180FF03C023E030E048C045
:103200008091290183FD07C069E0220F331F441F0D
:10321000551F6A95D1F7013089F481E5BA01A901FA
:103220000E94BA17882321F5CE0160E072E00E9467
:10323000341700E0892BE1F401E01AC082E5BA01FD
:10324000A9010E94BA17882399F4CE0160E072E0C8
:103250000E943417892B29F0015019F0C050DE4F1D
:10326000F4CF8CE440E050E060E070E00E94BA17D8
:10327000289A8FEF8EBD0DB407FEFDCF8EB520E0EE
:1032800030E0002329F021E030E002C024E030E00B
:10329000C901DF91CF910F910895CF92DF92EF9204
:1032A000FF920F93CF93DF93EB0169017A0188239B
:1032B00009F05FC0002309F45CC080910E0180FF1B
:1032C00003C023E030E057C080910E0182FF03C0AD
:1032D00022E030E050C08091290190E083FD07C0DA
:1032E00079E0CC0CDD1CEE1CFF1C7A95D1F7013087
:1032F00069F488E5B701A6010E94BA17882359F539
:10330000CE016EEF0E94781700E022C086709070A8
:10331000892B39F0402F50E060E070E087ED0E948B
:10332000BA1789E5B701A6010E94BA17882399F454
:10333000CE016CEF0E947817892B29F0015019F00B
:10334000C050DE4FF5CF80E090E06DEF0E9478171F
:10335000892B09F401E0289A8FEF8EBD0DB407FE8A
:10336000FDCF8EB520E030E0002329F021E030E0F1
:1033700002C024E030E0C901DF91CF910F91FF90AE
:10338000EF90DF90CF900895A0E1B0E0EAECF9E192
:103390000C940B2D8A01882309F08BC1643001F550
:1033A000FA018081813081F0813020F0823009F093
:1033B00080C110C028980E940A171CBC80910E0181
:1033C000816080930E0109C0389A87E084B980E556
:1033D0008CBD03C081E0FA01818320E030E06BC145
:1033E00080910E0180FF03C023E030E064C1E62F2E
:1033F000F0E0EF30F10520F4E65BFF4F0C94352D43
:1034000024E030E04EC10E942117892B09F447C106
:10341000289A8FEF8EBD0DB407FEFDCF8EB5F7C095
:1034200089E440E050E060E070E00E94BA17882331
:1034300009F035C1CE01019660E170E00E943417B9
:10344000892B09F42CC18981829586958695837094
:103450007A854985813089F4872F90E00196342F51
:1034600020E0820F931FA0E0B0E02AE0880F991FB0
:10347000AA1FBB1F2A95D1F7C5C042954695469510
:103480004370288530E0220F331F220F331F240F93
:10349000311D2F5F3F4F8F8190E083709070982F88
:1034A0008827990F990F280F391F40E050E08E812F
:1034B0008F706B85661F6627661F860F8E5F737021
:1034C000770F870F90E0099704C0220F331F441F26
:1034D000551F8A95D2F7F8012083318342835383A5
:1034E00096C080E092E0FA019183808390C0809141
:1034F0002901F82E82FF31C08DEC40E050E060E001
:1035000070E00E94BA17882309F0C9C08FEF8EBD02
:103510000DB407FEFDCF8EB5CE01019660E170E0DF
:103520000E943417892B09F4BAC080E39FEF9EBD37
:103530000DB407FEFDCF2EB58150C9F72B8522951E
:103540002F7080E190E0A0E0B0E004C0880F991FE8
:10355000AA1FBB1F2A95D2F755C089E440E050E06E
:1035600060E070E00E94BA17882309F098C0CE018D
:10357000019660E170E00E943417892B09F48FC036
:103580004B858C85F1FE1BC0881F8827881F90E023
:103590000196242F30E02F733070220F331F820FDB
:1035A000931F2E85229526952695237030E0215075
:1035B000304002C0880F991F2A95E2F721C0282FBA
:1035C00030E023703070F3E0220F331FFA95E1F7FB
:1035D000829586958770280F311D2F5F3F4F842F6E
:1035E00090E08C7790709595879595958795019645
:1035F000AC01249FC001259F900D349F900D112494
:10360000A0E0B0E0F80180839183A283B38320E03F
:1036100030E047C080912901FA018083F8CF89E426
:1036200001C08AE440E050E060E070E00E94BA1718
:103630008823A9F5C80160E170E02BC08AE740E06B
:1036400050E060E070E00E94BA17882341F5F8016D
:103650009FEF98012D5F3F4F9EBD0DB407FEFDCF3C
:103660008EB58083E217F30791F23196F5CF8DEC9A
:1036700040E050E060E070E00E94BA17882379F4DF
:103680008FEF8EBD0DB407FEFDCF8EB5C80160E48F
:1036900070E00E94341720E030E0892B11F421E023
:1036A00030E0289A8FEF8EBD0DB407FEFDCF8EB5AA
:1036B00002C024E030E0C9016096E5E00C94272DBB
:1036C00080912701882319F08150809327018091F0
:1036D0002801882319F08150809328010895A0E0E3
:1036E000B0E0E5E7FBE10C94092DF82E062F142F2E
:1036F000E22ED32E442309F445C00E944226892B92
:1037000009F440C08F2D0E945E268091B900887F09
:103710008831C1F5802F0E945E268091B900887F94
:10372000883281F50E944226892B61F18F2D8160BC
:103730000E945E268091B900887F803419F58E2D15
:103740009D2D9C01E901115061F081E090E00E9403
:103750006826982F8091B900887F803599F49993D5
:10376000F2CF80E090E00E9468268091B900887FC7
:10377000883541F48091BB0088830E94762621E041
:1037800030E002C020E030E0C901CDB7DEB7E7E0AD
:103790000C94252DA7E0B0E0E0EDFBE10C940C2D9E
:1037A0008C0180ED61E047E09E012F5F3F4F0E945A
:1037B0006F1B892B19F420E030E067C04981842F0A
:1037C00082958F7090E0877090709C0163E0220F6B
:1037D000331F6A95E1F7880F991F280F391F4F7023
:1037E000420FF80147832A81822F82958F705AE019
:1037F000859FC00111242F70280F26834B81842FB1
:1038000082958F7090E0837090709C01B3E0220FDE
:10381000331FBA95E1F7880F991F280F391F4F7092
:10382000420F45838C81877084834D81842F8295DC
:103830008F7090E0837090709C0173E0220F331FB3
:103840007A95E1F7880F991F280F391F4F70420FA3
:1038500043832E81822F82958F70859FC001112412
:103860002F70280F22832F81822F90E08F7090700D
:103870008053984F22952F70259F90011124820F1D
:10388000931F9183808321E030E0C9012796E4E013
:103890000C94282DA0E0B0E0E0E5FCE10C94092DAB
:1038A000082FF62E142FE22ED32E442339F10E9436
:1038B0004226892B19F1802F0E945E268091B90043
:1038C000887F8831D9F48F2D0E945E268091B900BF
:1038D000887F883299F48E2D9D2D9C01E901899174
:1038E0000E945E268091B900887F883239F4115099
:1038F000B1F70E94762621E030E002C020E030E0FF
:10390000C901CDB7DEB7E7E00C94252DA7E0B0E004
:10391000ECE8FCE10C940E2DFC014781842F6AE059
:103920000E94BC2C282F30E054E0220F331F5A9500
:10393000E1F7842F0E94BC2C920F9F7799834681D8
:10394000842F0E94BC2C282F30E094E0220F331FDC
:103950009A95E1F7842F0E94BC2C920F977F9A834F
:103960004581842F0E94BC2C282F30E084E0220F58
:10397000331F8A95E1F7842F0E94BC2C920F9F730E
:103980009B83848187708C834381842F0E94BC2C0D
:10399000282F30E0B4E0220F331FBA95E1F7842FCF
:1039A0000E94BC2C920F9F739D834281842F0E94A2
:1039B000BC2C282F30E0A4E0220F331FAA95E1F79A
:1039C000842F0E94BC2C920F9F719E830190F081E6
:1039D000E02DE05DF740CF016AE070E00E94C82C66
:1039E0009B0174E0220F331F7A95E1F7CF016AE063
:1039F00070E00E94C82C820F8F8380ED61E047E069
:103A00009E012F5F3F4F0E944A1C2796E2E00C94D4
:103A10002A2DA1E0B0E0EFE0FDE10C940E2D8FE344
:103A2000898380ED6CE041E09E012F5F3F4F0E9453
:103A30004A1C2196E2E00C942A2D0E94091D81E087
:103A400090E0089590E0892F8295807F8093ED002B
:103A5000EEEEF0E01192E83FF105E1F79F5F9F3055
:103A600091F708952091ED0090E0892F8295807F55
:103A70008093ED008091EF00807C19F42093ED009D
:103A800006C09F5F9F3089F72093ED009FEF892F3D
:103A900008958091EF00807C11F48FEF089590914C
:103AA000EE00892F807E803231F0803421F0803A20
:103AB00011F0892F8F710895AC0120E006C080912C
:103AC000FA00E40FF51F80832F5F8091EF00E22F53
:103AD000F0E090E08F709070E817F90784F3089594
:103AE0009F92AF92BF92CF92DF92EF92FF920F938D
:103AF0001F93882361F4DD24D394B3E0A8E062E04F
:103B000072E050E011E040E0FF24F39454C0809153
:103B1000E2008E7719F4DD24D39409C08091E2008D
:103B200090E08E77907095958795D82ED39480915C
:103B3000E3008E7011F4B1E009C08091E30090E0E1
:103B40008E70907095958795B82FBF5F8091E40037
:103B50008E70833010F462E009C08091E40090E040
:103B60008E70907095958795682F6F5F8091E400B7
:103B70008077813110F472E00CC08091E40090E015
:103B80008077907024E0959587952A95E1F7782FB6
:103B90007F5F8B2F90E0860F911D870F911D0897F7
:103BA00014F4A8E004C0AB2FAF5FA60FA70F51E03D
:103BB00010E041E0FF2490E0892F8295807F809380
:103BC000ED00EEEEF0E01192E83FF105E1F79F5FC6
:103BD0009F3091F7EE24E0E0F0E0CC2490E8A92EAD
:103BE0008AE0982EBB24BA9481E0F81609F043C00D
:103BF000F092D80031968D2D8150880F8093E2008D
:103C0000272F269530E02150304005E0220F331F4A
:103C10000A95E1F78B2F90E00197880F991F282BC9
:103C20002093E300272F30E02150304004E0220FA2
:103C3000331F0A95E1F7862F90E00197880F991FAF
:103C4000282B21602093E400CF0123E096958795EF
:103C50002A95E1F78093E5001092ED001092EE00B6
:103C6000A092EF009092D8008091D90082FFFCCF03
:103C7000B092DA00EE2401E03AC08091EE0090E0CC
:103C800085FF10C08091EF008F738093EF0010923A
:103C9000D8008091D90082FDFCCF00E010E0CC2458
:103CA000C39481C08F719070892B11F010E041E0B6
:103CB0008091DA00282F30E085FF11C0EE2041F41A
:103CC0008091DA0080628093DA00EE24E39407C0EA
:103CD0008091DA0080628093DA0010E041E02F707A
:103CE0003070232B21F010E0FF24F39403C0113037
:103CF00021F256C051116F5F6930F8F07830E8F06A
:103D0000A93111F0AF5F05C080E4D81621F0D3943B
:103D1000A8E062E014C08091EF008F738093EF0001
:103D20001092D8008091D90082FDFCCFA8E062E01B
:103D300072E050E000E0CC2436C0663010F4762FFC
:103D40000AC0262F30E0872F90E001968217930754
:103D500014F47F5F672FB72FB60FB095BA0F8B2F74
:103D60008150883040F6472F50E0262F30E02F5FFB
:103D70003F4F2B0F311DCA01880F991F880F991FC4
:103D8000821793070CF4B7CFCA01880F991F840FCD
:103D9000951F281739070CF4AECF51E011E003C08E
:103DA000413009F4A7CF40E0013009F41DCF8C2D3C
:103DB0001F910F91FF90EF90DF90CF90BF90AF9049
:103DC0009F90089581E08093D80086E08093E20080
:103DD0008093E30084E28093E40081E008951F93E0
:103DE000CF93DF93EC018A85882309F486C08F3155
:103DF00009F483C08F3F09F480C088818295807F59
:103E00008093ED000E94491D182F803271F081329D
:103E100018F4882341F069C0803409F45CC0803A0A
:103E200009F063C002C081E069C08091EF008F702B
:103E30008F83888599850E945C1D8091F00090E0B9
:103E40008470907095958795959587958B878091CF
:103E5000EF00FE01339684FF2BC081E08C878091B8
:103E6000F30086958695869583839091F2008091E4
:103E7000F3008295880F807E969596959695890F8A
:103E800082839091F1008091F2008295880F807E6C
:103E9000969596959695890F81839091F0008091E3
:103EA000F1008295880F807E96959695969511C023
:103EB0001C868091F300829586958770818390910E
:103EC000F2008091F300880F880F880F92959695E5
:103ED0009770890F8B831A878091EF008F7380937F
:103EE000EF001092EE0080E009C01A878091EF0089
:103EF0008F738093EF001092EE0082E0DF91CF91FC
:103F00001F910895A4E0B0E0E8E8FFE10C940C2DC7
:103F10008C01DC0111968D919C9112970C97A9F45C
:103F20001A968C911A97803669F48C918295807FCD
:103F30008093ED008091EF008F738093EF001092DB
:103F4000EE001C92F80112860CC10E94321D982FBF
:103F50008F3F09F4D2C480E6D8011A968C931A9741
:103F60009C939295907F9093ED00EEEEF0E011928D
:103F7000E83FF105E1F7D8011196ED91FC91129718
:103F80003197EB30F10508F0B4C4E75AFF4F0C94B9
:103F9000352DF801478190E0BEC3D8011C968C9165
:103FA000F8013396882391F13281932F929596955B
:103FB00097708381880F880F880F980F9093F30074
:103FC0002181822F829586958770330F330F330FAF
:103FD000830F8093F200F8019381220F220F220FAA
:103FE000892F829586958770280F2093F100990F6D
:103FF000990F990F9093F0008091EF00806180936A
:10400000EF00D80117962C9190E022C0D8011396AA
:104010002C9181818295880F807E922F969596951E
:104020009695890F8093F3002295220F207E20938E
:10403000F2008091EF008F7EE2CFD8011896ED91CB
:10404000FC911997E90FF11D80818093FA009F5F21
:10405000921798F3F8018385882321F08091F0006E
:10406000846003C08091F0008B7F8093F00080918A
:10407000EF00282B2093EF006AC0D8011C968C918A
:10408000F8013396882391F13281932F929596957A
:1040900097708381880F880F880F980F9093F30093
:1040A0002181822F829586958770330F330F330FCE
:1040B000830F8093F200F8019381220F220F220FC9
:1040C000892F829586958770280F2093F100990F8C
:1040D000990F990F9093F0008091EF008061809389
:1040E000EF00D80117962C9190E022C0D8011396CA
:1040F0002C9181818295880F807E922F969596953E
:104100009695890F8093F3002295220F207E2093AD
:10411000F2008091EF008F7EE2CFD8011896ED91EA
:10412000FC911997E90FF11D80818093FA009F5F40
:10413000921798F3F80113868091F0008B7F80939B
:10414000F0008091EF009781892B8093EF008091A0
:10415000EF008F738093EF008091EF008064809375
:10416000EF0080E0CEC3D8011C968C91F801339605
:10417000882361F13281932F929596959770838170
:10418000880F880F880F980F9093F3002181822F5A
:10419000829586958770330F330F330F830F80938B
:1041A000F200F8019381220F220F220F892F8295AE
:1041B00086958770280F2093F100990F990F990F1A
:1041C0009093F0008091EF00806116C0D8011396A3
:1041D0002C9181818295880F807E922F969596955D
:1041E0009695890F8093F3002295220F207E2093CD
:1041F000F2008091EF008F7E8093EF0081E0F80164
:1042000083878091F00084609ACF19821A821B8282
:104210001C82FE0131963281932F9295969597706C
:104220008381880F880F880F980F9093F700218162
:10423000822F829586958770330F330F330F830F4C
:104240008093F6009981220F220F220F892F8295E9
:1042500086958770280F2093F500990F990F990F75
:104260009093F4008091EF00D80117969C91892BD0
:104270008093EF008091F4008B7F8093F40091C2D3
:1042800019821A821B821C82FE0131963281932F81
:104290009295969597708381880F880F880F980F55
:1042A0009093F7002181822F829586958770330F36
:1042B000330F330F830F8093F6009981220F220F63
:1042C000220F892F829586958770280F2093F500FD
:1042D000990F990F990F9093F4008091EF00F801D6
:1042E0009781892B8093EF0013868091F40084607E
:1042F0008093F4008091F0008B7F8093F00051C296
:1043000019821A821B821C82FE0131963281932F00
:104310009295969597708381880F880F880F980FD4
:104320009093F7002181822F829586958770330FB5
:10433000330F330F830F8093F6009981220F220FE2
:10434000220F892F829586958770280F2093F5007C
:10435000990F990F990F9093F4008091EF00D80175
:1043600017969C911797892B8093EF0081E01B96FD
:104370008C938091F40084608093F4008091F0002D
:1043800084608093F0008091EF008F7D08C2F80177
:1043900084853396882369F13281932F929596957F
:1043A00097708381880F880F880F980F9093F30080
:1043B0002181822F829586958770330F330F330FBB
:1043C000830F8093F200D80113969C91220F220F45
:1043D000220F892F829586958770280F2093F100F0
:1043E000990F990F990F9093F0008091EF008061E1
:1043F00016C0D80113962C9181818295880F807EFA
:10440000922F969596959695890F8093F300229515
:10441000220F207E2093F2008091EF008F7E809308
:10442000EF008FEF9FEFAFEFBFEF89839A83AB83EE
:10443000BC83FE0131963281932F929596959770A9
:104440008381880F880F880F980F9093F700218140
:10445000822F829586958770330F330F330F830F2A
:104460008093F6009981220F220F220F892F8295C7
:1044700086958770280F2093F500990F990F990F53
:104480009093F4008091EF00F8019781892B80933D
:10449000EF008091F4008B7F8093F4008091F40012
:1044A00081608093F4008091EF008F738093EF0020
:1044B0008091EF00806853CED8011C968C91F80152
:1044C0003396882361F13281932F92959695977058
:1044D0008381880F880F880F980F9093F3002181B4
:1044E000822F829586958770330F330F330F830F9A
:1044F0008093F200F8019381220F220F220F892F5F
:10450000829586958770280F2093F100990F990F57
:10451000990F9093F0008091EF00806116C0D80150
:1045200013962C9181818295880F807E922F96958B
:1045300096959695890F8093F3002295220F207E01
:104540002093F2008091EF008F7E8093EF008FEF39
:104550009FEFAFEFBFEF89839A83AB83BC83FE01EC
:1045600031963281932F9295969597708381880F1B
:10457000880F880F980F9093F7002181822F8295E2
:1045800086958770330F330F330F830F8093F600B8
:104590009981220F220F220F892F8295869587708D
:1045A000280F2093F500990F990F990F9093F4001D
:1045B0008091EF00F8019781892B8093EF0013869B
:1045C0008091F40084608093F4008091F0008B7FF0
:1045D0008093F00063CFD8011C968C91F80133963C
:1045E000882361F13281932F9295969597708381FC
:1045F000880F880F880F980F9093F3002181822FE6
:10460000829586958770330F330F330F830F809316
:10461000F200F8019381220F220F220F892F829539
:1046200086958770280F2093F100990F990F990FA5
:104630009093F0008091EF00806116C0D80113962E
:104640002C9181818295880F807E922F96959695E8
:104650009695890F8093F3002295220F207E209358
:10466000F2008091EF008F7E8093EF008FEF9FEF3D
:10467000AFEFBFEF89839A83AB83BC83FE01319692
:104680003281932F9295969597708381880F880F2A
:10469000880F980F9093F7002181822F829586953D
:1046A0008770330F330F330F830F8093F600998198
:1046B000220F220F220F892F829586958770280F4F
:1046C0002093F500990F990F990F9093F400809122
:1046D000EF00F8019781892B8093EF0081E08387B9
:1046E0008091F40084608093F4008091F0008460F5
:1046F0008093F0008091EF008F7D8093EF00CECE0D
:10470000D8011896ED91FC911997E90FF11D808160
:104710008093FA009F5F941798F319821A821B8284
:104720001C82FE0131963281932F92959695977057
:104730008381880F880F880F980F9093F70021814D
:10474000822F829586958770330F330F330F830F37
:104750008093F6009981220F220F220F892F8295D4
:1047600086958770280F2093F500990F990F990F60
:104770009093F4008091EF00482B4093EF0081E08C
:10478000F80183878091F40084608093F400809125
:10479000F00084608093F0008091EF00806280934D
:1047A000EF008091F4008E7F7CCED8011C968C9116
:1047B000F8013396882391F13281932F9295969543
:1047C00097708381880F880F880F980F9093F3005C
:1047D0002181822F829586958770330F330F330F97
:1047E000830F8093F200F8019381220F220F220F92
:1047F000892F829586958770280F2093F100990F55
:10480000990F990F9093F0008091EF008061809351
:10481000EF00D80117964C9190E022C0D801139672
:104820002C9181818295880F807E922F9695969506
:104830009695890F8093F3002295220F207E209376
:10484000F2008091EF008F7EE2CFD8011896ED91B3
:10485000FC911997E90FF11D80818093FA009F5F09
:10486000941798F38FEF9FEFAFEFBFEF89839A8391
:10487000AB83BC83FE0131963281932F929596953E
:1048800097708381880F880F880F980F9093F70097
:104890002181822F829586958770330F330F330FD6
:1048A000830F8093F6009981220F220F220F892F08
:1048B000829586958770280F2093F500990F990FA0
:1048C000990F9093F4008091EF00482B4093EF00F4
:1048D00081E0F80183878091F40084608093F40084
:1048E0008091F00084608093F0008091EF008062FE
:1048F00004CFD8011A961C9234CC8FE1F80182873C
:104900008FEF2496E4E00C94282D0E94E21E882369
:1049100041F00E94221D8091D80082608093D800CF
:1049200081E00895A6EAB8E041E758E020E030E0F1
:1049300011965C934E9312961C921297F90183E0A4
:10494000EE0FFF1F8A95E1F7EF58F74F80E01192C5
:104950008F5F8930E1F72F5F3F4F1D96485F5F4FB4
:104960002230310529F70895CF93DF93482F50E087
:104970002DE030E0429FF001439FF00D529FF00D7B
:104980001124E256F74F20E830E034832383148665
:10499000138698E0978328E030E0328321839DE0FE
:1049A000899FE0011124C256D74FCE010E94821F79
:1049B0008823D9F7DF91CF91089560936908809398
:1049C00084081092850810928D0881E080938C08ED
:1049D0004093880882E090E0909383088093820857
:1049E00081E898E00E94821F8823D1F781E898E04F
:1049F0000E94EF1E8130D1F308951F920F920FB6DF
:104A00000F920BB60F9211242F933F938F93EF9336
:104A1000FF9320912B0130912C012337310564F451
:104A20008091C600F901EF57FC4F80832F5F3F4F05
:104A300030932C0120932B01FF91EF918F913F91A7
:104A40002F910F900BBE0F900FBE0F901F901895D7
:104A50001F920F920FB60F920BB60F9211242F9345
:104A60003F934F935F936F937F938F939F93AF93F6
:104A7000BF93CF93DF93EF93FF9380912D0190919C
:104A80002E01019690932E0180932D010497A1F59C
:104A900020912B0130912C012237310569F0809152
:104AA0003001853048F48F5F80933001853081F488
:104AB00081E080932F010CC080913001882341F068
:104AC0002237310529F481508093300110922F0153
:104AD00010922E0110922D0110922C0110922B0198
:104AE000CFE0D1E08991992787FD90950E944103FD
:104AF00081E0C931D807B1F7FF91EF91DF91CF91F4
:104B0000BF91AF919F918F917F916F915F914F91E5
:104B10003F912F910F900BBE0F900FBE0F901F90E3
:104B200018958BE790E00E9449038FEF90E00E9478
:104B300049038AE090E00E94490380912F0190E0B0
:104B40000E9449038091B70390E00E94490380913D
:104B5000B80390E00E9449038091BF0390E00E9457
:104B600049038091C00390E00E9449038091AF0304
:104B700090E00E9449038091B00390E00E944903B5
:104B80008091B10390E00E9449038091B20390E0CC
:104B90000E9449038091C30390E00E9449038091E1
:104BA000C40390E00E9449038091B30390E00E9407
:104BB00049038091B40390E00E9449038091C103AE
:104BC00090E00E9449038091C20390E00E94490353
:104BD0008091E10390E00E9449038091E20390E01C
:104BE0000E9449038091E30390E00E944903809171
:104BF000E40390E00E9449038091E50390E00E9465
:104C000049038091E60390E00E9449038091C50327
:104C100090E00E9449038091C60390E00E944903FE
:104C20008091CF0390E00E9449038091D00390E0EF
:104C30000E9449038091D30390E00E944903809130
:104C4000D40390E00E9449038091CB0390E00E943E
:104C500049038091CC0390E00E9449038091B903FD
:104C600090E00E9449038091BA0390E00E944903BA
:104C700008958BB183608BB91092B9008FE2809355
:104C8000B800089584EA8093BC008091BC0087FF3F
:104C9000FCCF8091B900887F803119F421E030E0A9
:104CA0000BC08091B90090E0887F883009F091E0D6
:104CB00081E09827292F30E0C90108958093BB0037
:104CC00084E88093BC008091BC0087FFFCCF0895EE
:104CD000892B11F084EC01C084E88093BC008091A2
:104CE000BC0087FFFCCF8091BB00089584E98093CE
:104CF000BC0008950F931F93CF93DF938C01C0E006
:104D0000D0E0C80165E673E00E94930B882389F424
:104D100080916E03882369F08EE693E00E943B2D1C
:104D2000C817D90770F78EE693E00E943B2DEC017F
:104D3000E8CF9E012F5F3F4FC901DF91CF911F91B7
:104D40000F9108958A3019F48DE001D08AE0FF9325
:104D5000EF93E0913101F09132010995EF91FF91CC
:104D60000895FC018591803011F0ECDFFBCF0895B0
:104D7000FF27E0E230E247FF0CC0419597FF09C0F2
:104D8000EDE26095709580959095611D711D811D76
:104D9000911D27FF02C0219530E350E2AA27660F3C
:104DA000771F881F991FAA1FA41710F0A41B6395D3
:104DB0005A95A9F7AA3008F0A95FA05DAF93F395C3
:104DC000611571058105910541F7ED3211F4EF93FD
:104DD000F395F21718F43F93F395FBCF8F91B2DF61
:104DE000FA95E1F70895DF93CF93CDB7DEB7259617
:104DF000E991F9918591803021F0853229F0A2DF87
:104E0000F9CFCF91DF91089520E0E8945591553284
:104E1000B1F3503311F4689455915A3348F4505318
:104E200080F3220F022E220F220F200D250FF4CF28
:104E30000EF4219589919991533609F3533729F14D
:104E4000533559F1BC0188279927E8945C3621F441
:104E50008991999168945591543639F446EF7EF0D2
:104E600077FF0DC08FEF9FEF0AC055374AE039F04A
:104E7000583540E121F0523642E009F0C2CFFF93AD
:104E8000EF9376DFEF91FF91B5CFFF93EF93FC01A6
:104E900081918030B9F356DFFBCFFF93EF9361DF51
:104EA000F1CF0B01DC01ED91FD912227332744273F
:104EB0005527E8949AE001C0319660816032E1F3B1
:104EC000A8F16D3211F46894F7CF6A3378F5603346
:104ED00068F171F498E031966081613248F1623690
:104EE00011F492E003C0683719F490E131966081C3
:104EF0006132F0F0613608F060526053B8F06A3009
:104F000018F067506A3090F0691780F481E2771BDF
:104F100008F4790F769557954795379527958A9593
:104F2000B9F7260F381F481F581FE0CF80E001C097
:104F300081E04EF466272095309540955095261FC8
:104F4000361F461F561FFE93EE93D0012D933D93BF
:104F50004D935D9311240895A0E0B0E0E2EBF7E2F9
:104F60000C94FE2CDC012B01FA019C91923008F488
:104F700039C1EB018881823008F433C1943069F47F
:104F8000843009F02FC111969C911197898198174F
:104F900009F428C1A9E1B1E025C1843009F421C197
:104FA0008230A9F4923009F01DC19A01AD0188E068
:104FB000EA010990AE01E90109929E018150C1F711
:104FC000E201898111969C918923818308C19230E5
:104FD00009F407C112962D903C901397EB018A813A
:104FE0009B811496AD90BD90CD90DC901797EC808E
:104FF000FD800E811F819101281B390BB90137FFFC
:1050000004C066277727621B730B603271050CF0B2
:1050100061C0121613066CF537014801062E04C054
:1050200096948794779467940A94D2F721E030E0BD
:1050300040E050E004C0220F331F441F551F6A9503
:10504000D2F721503040404050402E213F21402394
:105050005123211531054105510521F021E030E0B2
:1050600040E050E079018A01E628F728082919294B
:105070003CC0232BD1F1260E371E35014601062EEA
:1050800004C096948794779467940A94D2F721E0A9
:1050900030E040E050E004C0220F331F441F551F92
:1050A0006A95D2F721503040404050402A213B21A0
:1050B0004C215D21211531054105510521F021E0EB
:1050C00030E040E050E059016A01A628B728C8281E
:1050D000D9280BC0821593052CF01C01AA24BB24EF
:1050E000650103C0EE24FF24870111969C91D20133
:1050F00011968C91981709F445C0992339F0A801AD
:1051000097012A193B094C095D0906C0A6019501C2
:105110002E193F09400B510B57FD08C011823382F5
:10512000228224833583468357831DC081E0818397
:105130003382228288279927DC01821B930BA40BE0
:10514000B50B84839583A683B7830DC0220F331FCD
:10515000441F551F2483358346835783828193815F
:105160000197938382832481358146815781DA01B7
:10517000C9010197A109B1098F5F9F4FAF4FBF438D
:1051800028F30BC0918333822282EA0CFB1C0C1D96
:105190001D1DE482F5820683178383E080832481CA
:1051A00035814681578157FF1AC0C901AA2797FD4B
:1051B000A095BA2F81709070A070B07056954795E9
:1051C00037952795822B932BA42BB52B848395831E
:1051D000A683B78382819381019693838283DF01C3
:1051E00001C0D201CD01CDB7DEB7E2E10C941A2D9A
:1051F000A0E2B0E0EEEFF8E20C940A2D69837A8326
:105200008B839C832D833E834F835887E9E0EE2E6A
:10521000F12CEC0EFD1ECE010196B7010E94252C4B
:105220008E010F5E1F4FCE010596B8010E94252CFE
:105230008A8991E089278A8BC701B801AE01475E50
:105240005F4F0E94AC270E94502BA096E6E00C9482
:10525000262DA0E2B0E0EFE2F9E20C940A2D69837A
:105260007A838B839C832D833E834F835887F9E019
:10527000EF2EF12CEC0EFD1ECE010196B7010E941F
:10528000252C8E010F5E1F4FCE010596B8010E949E
:10529000252CC701B801AE01475E5F4F0E94AC27C5
:1052A0000E94502BA096E6E00C94262DA0E2B0E0E0
:1052B000ECE5F9E20C94FE2C69837A838B839C8362
:1052C0002D833E834F835887CE010196BE01675FD1
:1052D0007F4F0E94252CCE010596BE016F5E7F4F49
:1052E0000E94252C9985923088F089898230C8F0F7
:1052F000943019F4823051F404C0843029F492308F
:1053000081F489E191E0C6C0923049F420E09A85A9
:105310008A89981321E02A87CE010996BBC0823082
:1053200049F420E09A858A89981321E02A8BCE01DE
:105330004196B0C02D843E844F8458886D887E8805
:105340008F88988CEE24FF248701AA24BB24650152
:1053500040E050E060E070E0E0E0F0E0C10181702A
:105360009070892BE9F0E60CF71C081D191D9A01B5
:10537000AB012A0D3B1D4C1D5D1D80E090E0A0E0BF
:10538000B0E0E614F7040805190520F481E090E088
:10539000A0E0B0E0BA01A901480F591F6A1F7B1FA6
:1053A000AA0CBB1CCC1CDD1C97FE08C081E090E061
:1053B000A0E0B0E0A82AB92ACA2ADB2A3196E03256
:1053C000F10549F0660C771C881C991C569447948B
:1053D00037942794C3CFFA85EA892B893C898B853A
:1053E0009C85280F391F2E5F3F4F17C0CA0181705F
:1053F0009070892B61F016950795F794E79480E0FB
:1054000090E0A0E0B0E8E82AF92A0A2B1B2B769559
:105410006795579547952F5F3F4F77FDE7CF0CC0B6
:10542000440F551F661F771F17FD4160EE0CFF1CD0
:10543000001F111F21503040403090E0590790E08C
:10544000690790E4790760F32B8F3C8FDB01CA0179
:105450008F779070A070B07080349105A105B10570
:1054600061F447FD0AC0E114F1040105110529F0BA
:10547000405C5F4F6F4F7F4F40781A8EFE1711F0E0
:1054800081E08A8F4D8F5E8F6F8F78A383E0898F45
:10549000CE0149960E94502BA096E2E10C941A2D61
:1054A000A8E1B0E0E6E5FAE20C94062D69837A8380
:1054B0008B839C832D833E834F835887B9E0EB2EEB
:1054C000F12CEC0EFD1ECE010196B7010E94252C99
:1054D0008E010F5E1F4FCE010596B8010E94252C4C
:1054E0002985223008F47EC03989323010F4B801A1
:1054F0007CC08A859A8989278A87243011F02230D6
:1055000031F4231709F06EC069E171E06EC03430E8
:1055100039F41D861E861F86188A1C861B8604C0C9
:10552000323021F484E08987B7015FC02B853C8548
:105530008B899C89281B390B3C872B87ED84FE8443
:105540000F851889AD88BE88CF88D88CEA14FB04F3
:105550000C051D0540F4EE0CFF1C001F111F21500F
:1055600030403C872B8720E030E040E050E080E096
:1055700090E0A0E0B0E460E070E0EA14FB040C0509
:105580001D0540F0282B392B4A2B5B2BEA18FB0812
:105590000C091D09B695A79597958795EE0CFF1CEC
:1055A000001F111F6F5F7F4F6F31710531F7DA01F7
:1055B000C9018F779070A070B07080349105A105FB
:1055C000B10561F427FD0AC0E114F10401051105DC
:1055D00029F0205C3F4F4F4F5F4F20782D873E874B
:1055E0004F87588BBE01675F7F4FCB010E94502BC6
:1055F0006896EAE00C94222DACE0B0E0E2E0FBE239
:105600000C940E2D69837A838B839C83CE01019643
:10561000BE016B5F7F4F0E94252C8D81823061F12E
:10562000823050F1843021F48E81882351F12EC0D4
:105630002F81388537FD20C06E812F3131051CF058
:105640006623F9F023C08EE190E0821B930B29853D
:105650003A854B855C8504C05695479537952795C7
:105660008A95D2F76623B1F05095409530952195F3
:105670003F4F4F4F5F4F0EC020E030E040E050E022
:1056800009C02FEF3FEF4FEF5FE704C020E030E0AD
:1056900040E050E8B901CA012C96E2E00C942A2DB2
:1056A000DF92EF92FF920F931F93FC01E480F5804D
:1056B00006811781D1808081823048F480E090E0BB
:1056C000A0E1B0E0E82AF92A0A2B1B2BA5C0843000
:1056D00009F49FC0823021F4EE24FF24870105C025
:1056E000E114F1040105110519F4E0E0F0E096C0C1
:1056F000628173819FEF623879070CF05BC022E80A
:105700003FEF261B370B2A3131052CF020E030E02B
:1057100040E050E02AC0B801A701022E04C07695EF
:105720006795579547950A94D2F781E090E0A0E0FD
:10573000B0E004C0880F991FAA1FBB1F2A95D2F79B
:105740000197A109B1098E219F21A023B1230097C0
:10575000A105B10521F081E090E0A0E0B0E09A0160
:10576000AB01282B392B4A2B5B2BDA01C9018F7730
:105770009070A070B07080349105A105B10539F426
:1057800027FF09C0205C3F4F4F4F5F4F04C0215C93
:105790003F4F4F4F5F4FE0E0F0E02030A0E03A078E
:1057A000A0E04A07A0E45A0710F0E1E0F0E0790138
:1057B0008A0127C06038710564F5FB01E158FF4F8D
:1057C000D801C7018F779070A070B07080349105B8
:1057D000A105B10539F4E7FE0DC080E490E0A0E03A
:1057E000B0E004C08FE390E0A0E0B0E0E80EF91E66
:1057F0000A1F1B1F17FF05C016950795F794E7941E
:10580000319687E016950795F794E7948A95D1F736
:1058100005C0EE24FF248701EFEFF0E06E2F6795BF
:1058200066276795902F9F77D794DD24D7948E2F86
:105830008695492F462B582F5D29B701CA011F9124
:105840000F91FF90EF90DF900895FC01DB01408104
:1058500051812281622F6F7770E0221F2227221F41
:105860009381892F880F822B282F30E0991F992749
:10587000991F11969C93119721153105A9F5411592
:1058800051056105710511F482E037C082E89FEF90
:1058900013969C938E9312979A01AB0167E0220FA7
:1058A000331F441F551F6A95D1F783E08C930DC0B9
:1058B000220F331F441F551F12968D919C911397F1
:1058C000019713969C938E931297203080E03807AF
:1058D00080E0480780E4580758F314962D933D93D1
:1058E0004D935C93179708952F3F310579F4411537
:1058F00051056105710519F484E08C93089564FFE6
:1059000003C081E08C9312C01C9210C02F5730400E
:1059100013963C932E93129783E08C9387E0440F69
:10592000551F661F771F8A95D1F7706414964D93A3
:105930005D936D937C9317970895629FD001739F39
:10594000F001829FE00DF11D649FE00DF11D929F1B
:10595000F00D839FF00D749FF00D659FF00D99275A
:10596000729FB00DE11DF91F639FB00DE11DF91F7E
:10597000BD01CF0111240895991B79E004C0991F3E
:10598000961708F0961B881F7A95C9F78095089599
:10599000AA1BBB1B51E107C0AA1FBB1FA617B70755
:1059A00010F0A61BB70B881F991F5A95A9F7809571
:1059B0009095BC01CD010895A1E21A2EAA1BBB1B34
:1059C000FD010DC0AA1FBB1FEE1FFF1FA217B307CB
:1059D000E407F50720F0A21BB30BE40BF50B661FE1
:1059E000771F881F991F1A9469F7609570958095A5
:1059F00090959B01AC01BD01CF0108952F923F927C
:105A00004F925F926F927F928F929F92AF92BF92CE
:105A1000CF92DF92EF92FF920F931F93CF93DF937A
:105A2000CDB7DEB7CA1BDB0B0FB6F894DEBF0FBED7
:105A3000CDBF09942A88398848885F846E847D8424
:105A40008C849B84AA84B984C884DF80EE80FD8026
:105A50000C811B81AA81B981CE0FD11D0FB6F8949C
:105A6000DEBF0FBECDBFED010895EE0FFF1F059005
:105A7000F491E02D0994FC0188279927E89421915D
:105A80002032E9F3293010F02E30C8F32B3241F0E8
:105A90002D3239F4689404C00E947A2D820F911D32
:105AA000219120532A30C0F31EF4909581959F4F89
:105AB0000895FB019F01E8944230C4F04532B4F4EC
:105AC0004A3029F497FB1EF4909581959F4F642FDF
:105AD00077270E94C82C805D8A330CF0895D819302
