:100000000C9434000C9451000C9451000C94510049
:100010000C9451000C9451000C9451000C9451001C
:100020000C9451000C9451000C9451000C9451000C
:100030000C9451000C9451000C9451000C945100FC
:100040000C9451000C9451000C9451000C945100EC
:100050000C9451000C9451000C9451000C945100DC
:100060000C9451000C94510011241FBECFEFD4E02A
:10007000DEBFCDBF11E0A0E0B1E0EAE9FBE002C0E5
:1000800005900D92AC31B107D9F712E0ACE1B1E0C7
:1000900001C01D92A432B107E1F70E9453000C94F5
:1000A000CB050C94000080E8809361001092610001
:1000B0008AE090E00E946E05209A529828988AE083
:1000C00090E00E946E05289A88EC90E00E946E05F0
:1000D00080E091E00E94AA0484E190E00E946E0515
:1000E000219A299A579A5F9866E774E084E10E9402
:1000F000B70384E190E00E946E05299866E071E004
:1001000080E091E00E94F4008CE191E00E947C018B
:10011000FBCF45E050E0BC018AE091E00E948605FB
:100120009C0180E0232B09F481E00895EF92FF9277
:100130000F931F93CF93DF937C01413061F468509C
:1001400070409B0140E050E0685F7F4F2F5E3F4F63
:100150004F4F5F4F12C0423029F020E030E040E0C6
:1001600050E00BC0685070409B0140E050E0685F79
:100170007F4F2A5F3F4F4F4F5F4FE7018B010FC00B
:10018000F881E0E0898190E08E2B9F2BA0E0B0E029
:10019000280F391F4A1F5B1F229602501040023061
:1001A000110570F7FB01EE7FEE0DFF1D60FF0DC026
:1001B000908180E0AA2797FDA095BA2F02C04070D9
:1001C0005070280F391F4A1F5B1FCA01AA27BB277F
:1001D0000097A105B10599F720953095C901CDB7D4
:1001E000DEB7E6E00C94BC05AC0120E030E0F9019C
:1001F000E35EFD4FDB01A20FB31F8C9180832F5F65
:100200003F4F2430310599F720E030E0F901E95EF5
:10021000FD4FDA01A20FB31F8C9180832F5F3F4FF8
:100220002630310599F70895FC016932B0F08485D4
:10023000883099F48585863081F4DF019696EDE16A
:10024000F2E09C918081981741F41196319682E0FA
:10025000E132F807B1F781E0089580E00895CF9387
:10026000DF93FC016A32B0F08485883099F485858B
:10027000882381F4DF01EDE1F2E0ED019E8D8081C4
:10028000981741F41196319682E0E132F807A9F708
:1002900081E001C080E0DF91CF910895FC01A7E1EA
:1002A000B2E0868180838D918683319682E0AD3184
:1002B000B807B9F70895CF93DF93EC01FC01ADE1E6
:1002C000B2E0828D868F8D91828F319682E0A1324D
:1002D000B807B9F7188E198E80E48C8B1D8A8E8B27
:1002E00040E064E170E0CE010E960E949600988F87
:1002F000898FDF91CF910895CF92DF92FF920F9374
:100300001F93DF93CF93CDB7DEB7C25DD0400FB65A
:10031000F894DEBF0FBECDBF8C01DE011196E1E186
:10032000F1E08AE001900D928150E1F7FE013196F3
:10033000DF010D900020E9F79D01215030402E1B78
:100340003F0BF801108283E1818384ED82838EE983
:1003500083838FE9848380EA8583A7E1B2E08D916E
:100360008683319682E0AD31B807C9F7F22EACED45
:10037000A21710F42CEDF22EF801108AFCE1FF0E0A
:10038000F801F18A9AE1C92ED12CC00ED11E8091BC
:100390001D02828F80911E02838F80911F02848FA5
:1003A00080912002858F80EC868F88EA878F81E09C
:1003B00080A385E081A3108E118E80E4848B158A42
:1003C000868B40E064E170E0C8010E960E949600C2
:1003D000F801908F818F94E094A380EB85A392A382
:1003E00083A316A2FCEEFF0EF801F7A2F8EFFF0EB2
:1003F000F80110A611A6DE011596BE9603C08D91D8
:1004000081939F5F9F15D8F36F2D70E0605F7F4FE2
:1004100041E0C6010E949600F80190A781A7FE0165
:100420003B9688ECDF011D928A95E9F783E18C8782
:1004300084ED8D878EE98E878FE98F8780EA888BA0
:1004400084E5898B85E58A8B88E58B8B80E18C8BB5
:1004500084E28E8B88E08F8B85E4898F8FE18C8F8F
:1004600082E18D8F84E38E8F80E48F8F8FEF89A35D
:1004700081E18AA386EE8BA38FE38CA330EC3DA3AE
:1004800028EA2EA381E08FA394E098A739A72AA792
:100490008BA785E08CA79DA780EB8EA79FA788AB35
:1004A0008BE08AAB88E18BAB82E38CAB88E48DABCD
:1004B00085E68EAB8AE68FABBF018EE290E00E94AC
:1004C000D803CE52DF4F0FB6F894DEBF0FBECDBFBC
:1004D000CF91DF911F910F91FF90DF90CF90089502
:1004E000A0E0B0E0E6E7F2E00C949F05EC017B01B0
:1004F000D22E132FFC01A7E1B2E0868180838D917B
:100500008683319682E0AD31B807B9F7042F4D3DAF
:1005100008F00CED188A045E098BCE010E945B0185
:100520008AA18CA38BA18DA31AA3DBA21EA20451C6
:100530000FA3085018A619A6DE019A9620E030E015
:1005400007C0F701E20FF31F80818D932F5F3F4FAC
:100550002017B8F310E0005F1F4F41E0B801CE0153
:100560004A960E94960098A789A7BE01C8014A969C
:100570000E94D803CDB7DEB7E7E00C94BB051F930C
:10058000CF93DF93EC01162FFC01A7E1B2E0868147
:1005900080838D918683319682E0AD31B807B9F7BB
:1005A000CE010E945B011AA28CA1883F18F08DA198
:1005B0008F5F8DA38CA1885F8CA3BE01812F90E0FB
:1005C0000E94D803DF91CF911F910895CF93DF93BD
:1005D000AC01EC0127E132E0FC01D9018681808386
:1005E0008D918683319682E0AD31B807B9F7FA0173
:1005F000148A82E0858B8E8988A3F90181919F01FD
:100600008E8B2196F2E02D313F07A9F7FA017C96F7
:10061000ADE1B2E0808182878D91819382E0A13249
:10062000B807C1F7BA018AE290E00E94D803DF91CF
:10063000CF9108952A98962F9F71982B9EBD0DB447
:1006400007FEFDCF1EBC0DB407FEFDCF67FF04C043
:100650001EBC0DB407FEFDCF2A9A8EB508952A98C8
:100660006F71682B6EBD0DB407FEFDCF4EBD0DB48E
:1006700007FEFDCF2A9A0895AC01FB012A988AE370
:100680008EBD0DB407FEFDCF9A01DF0108C01EBC70
:100690000DB407FEFDCF215030408EB58D9321154E
:1006A0003105A9F7E40FF51F10822A9A08959C01DD
:1006B000FB012A988AE78EBD0DB407FEFDCF08C066
:1006C00080818EBD0DB407FEFDCF215030403196A4
:1006D00021153105A9F72A9A0895482F282F30E0CF
:1006E000207630708091210290E028173907F9F0C8
:1006F0002A988FEB8EBD0DB407FEFDCF83E08EBD33
:100700000DB407FEFDCF2A9A2A988FE98EBD0DB44D
:1007100007FEFDCF85E0359527958A95E1F72EBD3B
:100720000DB407FEFDCF2A9A40764093210208952A
:100730001F93182F0E946D03612F80E00E941A03FF
:100740001F9108950F931F93182F062F0E946D037A
:100750002A981F7110641EBD0DB407FEFDCF0EBD9B
:100760000DB407FEFDCF2A9A1F910F9108950F93A4
:100770001F93162F072F682F84ED0E94A203612F6D
:1007800086ED0E94A203602F87ED0E94A20318E26B
:1007900003C0812F8A95F1F78AEE0E94980380FDAD
:1007A000F8CF1F910F91089582E70E949803089552
:1007B0000F931F93CF93DF93EC018B016FEF82E0D8
:1007C0000E94A20369E183E00E94A203CE0181504E
:1007D000682F86E00E94A203CE018150964E692FB9
:1007E00087E00E94A2032A988AE78EBD0DB407FE17
:1007F000FDCF1EBC0DB407FEFDCF2A9A2A988AE7CA
:100800008EBD0DB407FEFDCF09C0F80180818EBDFD
:100810000DB407FEFDCF21970F5F1F4F2097A9F75B
:100820002A9A2A988FE98EBD0DB407FEFDCF88E085
:100830008EBD0DB407FEFDCF2A9A8CE10E9498036D
:1008400081FF0CC02A988FEB8EBD0DB407FEFDCF43
:1008500088E08EBD0DB407FEFDCF2A9ADF91CF91BF
:100860001F910F910895A0E0B0E0E9E3F4E00C944B
:100870009C056C015B0189E30E949803882319F4AD
:1008800000E010E061C0609122021091230280E03C
:100890000E94A203612F81E00E94A20360E08AE32C
:1008A0000E941A03182F60E08AE30E941A03382F6F
:1008B00020E0C12FD0E0C22BD32BD0932302C093D2
:1008C000220260E08AE30E941A03E82E60E08AE3D5
:1008D0000E941A03F82E60E08AE30E941A03082F90
:1008E00010E060E08AE30E941A03382F20E0202BFA
:1008F000312B27FD03C000E010E012C00E2D10E0E8
:100900009F2D80E0082B192BC60101970450104041
:100910008017910708F48C01B501C8010E943C03BF
:100920006C2F8CE00E94A2036D2F8DE00E94A20329
:100930002A988EE98EBD0DB407FEFDCF80E48EBDF2
:100940000DB407FEFDCF2A9AC801CDB7DEB7EAE0A5
:100950000C94B805CF93DF93EC01229A2A9A84B1C4
:100960008C6284B924982A9A2B982D9880E58CBDA6
:100970008DB581608DBD2A988FEF8EBD0DB407FEB9
:10098000FDCF8FEF8EBD0DB407FEFDCF2A9A82E317
:1009900090E00E946E05109223021092220260E005
:1009A00088E00E94A20360E089E00E94A20360E068
:1009B0008CE00E94A20360E08DE00E94A2036EEF33
:1009C0008AE00E94A20369E18BE00E94A2036FEF1C
:1009D00084E00E94A20369E185E00E94A2036FEF18
:1009E00086E00E94A2036FE187E00E94A20360EB11
:1009F00088E30E94A2036FE388E20E94A20360E3FF
:100A000089E20E94A20369EF80E30E94A20367EFDC
:100A100081E30E94A2036DE080EC0E94A20360E0EB
:100A200081EC0E94A2032A9882E88EBD0DB407FED5
:100A3000FDCF82E38EBD0DB407FEFDCF2A9A62E1A1
:100A400086EC0E94A2036CE087EC0E94A20362E1A4
:100A500084EC0E94A20364EF8AEC0E94A20361E08E
:100A60008BEC0E94A203688184EE0E94A20369813C
:100A700085EE0E94A2036A8182EE0E94A2036B812E
:100A800083EE0E94A2036C8180EE0E94A2036D811E
:100A900081EE0E94A20360E071E080E10E94B70352
:100AA0008FE10E946D032A988BE98EBD0DB407FE7D
:100AB000FDCF80EC8EBD0DB407FEFDCF2A9A2A989B
:100AC0008FE98EBD0DB407FEFDCF84E08EBD0DB461
:100AD00007FEFDCF2A9ADF91CF91089520E837E0F5
:100AE00004C0F9013197F1F701970097D1F7089504
:100AF0002FE088E190E00FB6F894A895809360000D
:100B00000FBE209360000895A8950895FB01DC01B5
:100B10004150504030F08D910190801919F400201F
:100B2000B9F7881B990B08952F923F924F925F92CD
:100B30006F927F928F929F92AF92BF92CF92DF92ED
:100B4000EF92FF920F931F93CF93DF93CDB7DEB752
:100B5000CA1BDB0B0FB6F894DEBF0FBECDBF0994E6
:100B60002A88398848885F846E847D848C849B843D
:100B7000AA84B984C884DF80EE80FD800C811B814B
:100B8000AA81B981CE0FD11D0FB6F894DEBF0FBE7A
:0A0B9000CDBFED010895F894FFCFEA
:100B9A00545558100024C0A8010473656372657423
:0C0BAA00007465737470616B6B65000073
:00000001FF
