:100000000C9434000C9451000C9451000C94510049
:100010000C9451000C9451000C9451000C9451001C
:100020000C9451000C9451000C9451000C9451000C
:100030000C9451000C9451000C9451000C945100FC
:100040000C9451000C9451000C9451000C945100EC
:100050000C9451000C9451000C9451000C945100DC
:100060000C9451000C94510011241FBECFEFD4E02A
:10007000DEBFCDBF11E0A0E0B1E0E6EEF0E002C0EF
:1000800005900D92A030B107D9F711E0A0E0B1E0E2
:1000900001C01D92A030B107E1F70E945F000C94EF
:1000A00072000C9400009C0106C080E897E0019764
:1000B000F1F72150304021153105B9F70895CFEF00
:1000C000D4E0DEBFCDBF80E8809361001092610074
:1000D000219A299884EF91E0E6DF299A84EF91E054
:0600E000E2DFF7CFFFCFC5
:00000001FF
