:100000000C9434000C9451000C9451000C94510049
:100010000C9451000C9451000C9451000C9451001C
:100020000C9451000C9451000C9451000C9451000C
:100030000C9451000C9451000C9451000C945100FC
:100040000C9451000C9451000C9451000C945100EC
:100050000C9451000C9451000C9451000C945100DC
:100060000C9451000C94510011241FBECFEFD4E02A
:10007000DEBFCDBF11E0A0E0B1E0E2ECF4E102C0F0
:1000800005900D92A434B107D9F712E0A4E4B1E0D1
:1000900001C01D92AF34B107E1F70E94ED060C9448
:1000A0005F0A0C9400002A98962F9F71982B9EBD92
:1000B0000DB407FEFDCF1EBC0DB407FEFDCF67FFDC
:1000C00004C01EBC0DB407FEFDCF2A9A8EB508955C
:1000D0002A986F71682B6EBD0DB407FEFDCF4EBD23
:1000E0000DB407FEFDCF2A9A0895AC01FB012A98B2
:1000F0008AE38EBD0DB407FEFDCF9A01DF0108C073
:100100001EBC0DB407FEFDCF215030408EB58D933F
:1001100021153105A9F7E40FF51F10822A9A0895D9
:100120009C01FB012A988AE78EBD0DB407FEFDCF26
:1001300008C080818EBD0DB407FEFDCF2150304038
:10014000319621153105A9F72A9A0895482F282FAD
:1001500030E0207630708091440190E02817390714
:10016000F9F02A988FEB8EBD0DB407FEFDCF83E02A
:100170008EBD0DB407FEFDCF2A9A2A988FE98EBD59
:100180000DB407FEFDCF85E0359527958A95E1F7FB
:100190002EBD0DB407FEFDCF2A9A40764093440150
:1001A00008951F93182F0E94A60080E0612F0E94DF
:1001B00053001F9108950F931F93182F062F0E942D
:1001C000A6002A981F7110641EBD0DB407FEFDCF56
:1001D0000EBD0DB407FEFDCF2A9A1F910F91089511
:1001E0000F931F93982F162F072F84ED692F0E94CE
:1001F000DB0086ED612F0E94DB0087ED602F0E94FF
:10020000DB0018E203C0812F8A95F1F78AEE0E9485
:10021000D10080FDF8CF1F910F91089582E70E94D1
:10022000D10008950F931F93CF93DF93EC018B01BF
:1002300082E06FEF0E94DB0083E069E10E94DB0057
:10024000CE018150682F86E00E94DB009E01215084
:10025000364E87E0632F0E94DB002A988AE78EBD26
:100260000DB407FEFDCF1EBC0DB407FEFDCF2A9ACC
:100270002A988AE78EBD0DB407FEFDCF09C0F801AC
:1002800080818EBD0DB407FEFDCF21970F5F1F4FFC
:100290002097A9F72A9A2A988FE98EBD0DB407FEF8
:1002A000FDCF88E08EBD0DB407FEFDCF2A9A8CE10C
:1002B0000E94D10081FF0CC02A988FEB8EBD0DB437
:1002C00007FEFDCF88E08EBD0DB407FEFDCF2A9A54
:1002D000DF91CF911F910F910895AF92BF92CF926E
:1002E000DF92EF92FF920F931F93CF93DF936C01F6
:1002F0005B0189E30E94D100882319F400E010E03B
:1003000061C0609145011091460180E00E94DB00D0
:1003100081E0612F0E94DB008AE360E00E945300CD
:10032000182F8AE360E00E945300382F20E0C12F8D
:10033000D0E0C22BD32BD0934601C09345018AE372
:1003400060E00E945300E82E8AE360E00E945300C0
:10035000F82E8AE360E00E945300082F10E08AE341
:1003600060E00E945300382F20E0202B312B27FD26
:1003700003C000E010E012C00E2D10E09F2D80E0C1
:10038000082B192BC60101970450104080179107C4
:1003900008F48C01C801B5010E9475008CE06C2F37
:1003A0000E94DB008DE06D2F0E94DB002A988EE911
:1003B0008EBD0DB407FEFDCF80E48EBD0DB407FEEB
:1003C000FDCF2A9AC801DF91CF911F910F91FF9025
:1003D000EF90DF90CF90BF90AF900895CF93DF93D1
:1003E000EC01229A2A9A84B18C6284B924982A9AC0
:1003F0002B982D9880E58CBD8DB581608DBD2A9898
:100400008FEF8EBD0DB407FEFDCF8FEF8EBD0DB407
:1004100007FEFDCF2A9A82E390E00E9466071092C1
:1004200046011092450188E060E00E94DB0089E00F
:1004300060E00E94DB008CE060E00E94DB008DE069
:1004400060E00E94DB008AE06EEF0E94DB008BE040
:1004500069E10E94DB0084E06FEF0E94DB0085E031
:1004600069E10E94DB0086E06FEF0E94DB0087E01D
:100470006FE10E94DB0088E360EB0E94DB0088E212
:100480006FE30E94DB0089E260E30E94DB0080E30F
:1004900069EF0E94DB0081E367EF0E94DB0080ECE4
:1004A0006DE00E94DB0081EC60E00E94DB002A9896
:1004B00082E88EBD0DB407FEFDCF82E38EBD0DB484
:1004C00007FEFDCF2A9A86EC62E10E94DB0087ECF2
:1004D0006CE00E94DB0084EC62E10E94DB008AECAD
:1004E00064EF0E94DB008BEC61E00E94DB0084EE95
:1004F00068810E94DB0085EE69810E94DB0082EE4C
:100500006A810E94DB0083EE6B810E94DB0080EE3B
:100510006C810E94DB0081EE6D810E94DB0080E136
:1005200060E071E00E94F0008FE10E94A6002A982E
:100530008BE98EBD0DB407FEFDCF80EC8EBD0DB4F2
:1005400007FEFDCF2A9A2A988FE98EBD0DB407FECB
:10055000FDCF84E08EBD0DB407FEFDCF2A9ADF915A
:10056000CF910895EF92FF920F931F93CF93DF9354
:100570007C01413061F4685070409B0140E050E0E4
:10058000685F7F4F2F5E3F4F4F4F5F4F12C042302B
:1005900029F020E030E040E050E00BC068507040AF
:1005A0009B0140E050E0685F7F4F2A5F3F4F4F4F15
:1005B0005F4FE7018B010FC0F881E0E0898190E097
:1005C0008E2B9F2BA0E0B0E0280F391F4A1F5B1F26
:1005D0002296025010400230110570F7FB01EE7FA9
:1005E000EE0DFF1D60FF0DC0908180E0AA2797FDF2
:1005F000A095BA2F02C040705070280F391F4A1FB3
:100600005B1FCA01AA27BB270097A105B10599F76F
:1006100020953095C901DF91CF911F910F91FF90E7
:10062000EF900895AC0120E030E0F901E35BFE4F6C
:10063000DB01A20FB31F8C9180832F5F3F4F2430CB
:10064000310599F720E030E0F901E95BFE4FDA016E
:10065000A20FB31F8C9180832F5F3F4F263031054F
:1006600099F70895FC016932B0F08485883099F4D7
:100670008585863081F4DF019696EDE4F1E09C916A
:100680008081981741F41196319681E0E135F807A1
:10069000B1F781E0089580E00895FC016A32B8F076
:1006A00084858830A1F48585882389F4DF01EDE411
:1006B000F1E05E969C915E978081981741F41196C7
:1006C000319681E0E135F807A1F781E0089580E0F7
:1006D0000895FC01A7E4B1E0868180838D91868333
:1006E000319681E0AD34B807B9F70895CF93DF9321
:1006F000EC01FC01ADE4B1E0828D868F8D91828F9B
:10070000319681E0A135B807B9F7188E198E80E4CB
:100710008C8B1D8A8E8BCE010E9664E170E040E0DA
:100720000E94B202988F898FDF91CF910895AF9286
:10073000BF92CF92DF92EF92FF920F931F93CF93CE
:10074000DF93EC016B015901D801F70180818883A7
:100750008181898382818A8383818B8384818C8355
:1007600085818D838EE48E838FE68F8384E68887F0
:1007700085E6898780E38A8781E38B87042F4D3D57
:1007800008F00CED88E08C871D8685E48E871F8637
:10079000188A045E098B8C918E8F11968C9111971B
:1007A0008F8F12968C91129788A313968C9189A3A0
:1007B0009AE1E92EF12CEC0EFD1E80EC8A8F88EA7E
:1007C0008B8F81E08C8F8D8F188E198E80E48C8BAF
:1007D0001D8A8E8B81E18F8BCE010E9664E170E0D5
:1007E00040E00E94B202988F898F8AA18CA38BA1CE
:1007F0008DA3BAA2ABA21EA204510FA3085018A643
:1008000019A6DE019A9620E030E007C0F601E20F5B
:10081000F31F80818D932F5F3F4F2017B8F310E0B7
:10082000005F1F4FC701B80141E00E94B20298A7C4
:1008300089A7C8014A96BE010E941201DF91CF919B
:100840001F910F91FF90EF90DF90CF90BF90AF90EE
:100850000895DF92EF92FF920F931F93CF93DF9350
:10086000EC017B01D22E132FFC01A7E4B1E08681BD
:1008700080838D918683319681E0AD34B807B9F7D6
:10088000042F4D3D08F00CED188A045E098BCE0153
:100890000E9476038AA18CA38BA18DA31AA3DBA24D
:1008A0001EA204510FA3085018A619A6DE019A969D
:1008B00020E030E007C0F701E20FF31F80818D9345
:1008C0002F5F3F4F2017B8F310E0005F1F4FCE019E
:1008D0004A96B80141E00E94B20298A789A7C801D0
:1008E0004A96BE010E941201DF91CF911F910F9194
:1008F000FF90EF90DF9008951F93CF93DF93EC016B
:10090000162FFC01A7E4B1E0868180838D91868358
:10091000319681E0AD34B807B9F7CE010E94760375
:100920001AA28CA1883F18F08DA18F5F8DA38CA196
:10093000885F8CA3812F90E0BE010E941201DF919D
:10094000CF911F910895CF93DF93AC01EC0127E481
:1009500031E0FC01D901868180838D9186833196B7
:1009600081E0AD34B807B9F7FA01148A82E0858BCB
:100970008E8988A3F90181919F018E8B2196F1E0E8
:100980002D343F07A9F7FA017C96ADE4B1E08081F0
:1009900082878D91819381E0A135B807C1F78AE202
:1009A00090E0BA010E941201DF91CF910895CF9299
:1009B000DF92FF920F931F93DF93CF93CDB7DEB7F4
:1009C000C25DD0400FB6F894DEBF0FBECDBF8C0124
:1009D000DE011196E0E0F1E08AE001900D92815095
:1009E000E1F7FE013196DF010D900020E9F79D014E
:1009F000215030402E1B3F0BF801108283E1818390
:100A000084ED82838EE983838FE9848380EA858302
:100A1000A7E4B1E08D918683319681E0AD34B807CB
:100A2000C9F7F22EACEDA21710F43CEDF32EF8014D
:100A3000108AFCE1FF0ED8015196FC9251972AE1F1
:100A4000C22ED12CC00ED11E80914D015A968C938E
:100A50005A9780914E015B968C935B9780914F01E2
:100A60005C968C935C97809150015D968C935D971A
:100A700080EC5E968C935E9788EA5F968C935F9786
:100A800081E090968C93909785E091968C939197C6
:100A900058961C92589759961C92599780E45496F0
:100AA0008C93549755961C92559756968C93C801E3
:100AB0000E9664E170E040E00E94B202F801908F6F
:100AC000818F94E094A380EB85A392A383A316A2C5
:100AD000FCEEFF0ED8019796FC92B8EFFB0EF801E2
:100AE00010A611A6DE011596BE9603C08D918193C6
:100AF0009F5F9F15D8F36F2D70E0605F7F4FC60139
:100B000041E00E94B202D80198969C9398979996DA
:100B10008C93FE013B9688ECDF011D928A95E9F7E4
:100B200083E18C8784ED8D878EE98E878FE98F87AF
:100B300080EA888B84E5898B85E58A8B88E58B8BB9
:100B400080E18C8B84E28E8B88E08F8B85E4898FAB
:100B50008FE18C8F82E18D8F84E38E8F80E48F8F85
:100B60008FEF89A381E18AA386EE8BA38FE38CA309
:100B700030EC3DA328EA2EA381E08FA394E098A750
:100B800039A72AA78BA785E08CA79DA780EB8EA706
:100B90009FA788AB8BE08AAB88E18BAB82E38CAB01
:100BA00088E48DAB85E68EAB8AE68FAB8EE290E073
:100BB000BF010E941201CE52DF4F0FB6F894DEBF84
:100BC0000FBECDBFCF91DF911F910F91FF90DF90AE
:100BD000CF90089580937C0080917A008068809304
:100BE0007A0080917A00806403C080917A008F77C8
:100BF00080937A0080917A0086FDF7CF809178000B
:100C000060917900362F20E090E0282B392B442783
:100C100037FD4095542FB901CA0108958FEF8AB965
:100C2000EAE7F0E0808183688083ECE7F0E0808190
:100C3000808308950F931F93182F092F80915101DE
:100C4000882321F0299A1092510104C0299881E04B
:100C50008093510182E591E060914D020E94320340
:100C6000882339F082E591E060914D020E94A3044F
:100C700016C082E591E060914D020E944D038823E9
:100C800071F080916901813061F480917401883044
:100C900041F582E591E060914D020E947C0482E082
:100CA00021C08131F1F4809176018430D1F48091BA
:100CB0007701803BB1F4409179014850812F902F0A
:100CC0009C01D90180E002C09D938F5FE82FF0E086
:100CD000EE5AFE4F92A5903211F08417A8F381E0EE
:100CE00001C080E01F910F910895EF92FF920F9342
:100CF0001F93BC01DC010D900020E9F71197A81BA0
:100D0000B90B82E591E0AD0120EB34E003E311E0A3
:100D1000E7E3EE2EE1E0FE2E0E9497031F910F9174
:100D2000FF90EF9008950F931F93DF93CF93CDB76C
:100D3000DEB7E2970FB6F894DEBF0FBECDBF1092BC
:100D40007C0080917A00806880937A0080917A009C
:100D5000806403C080917A008F7780937A008091BD
:100D60007A0086FDF7CF80917800809179002091FC
:100D700078004091790000D000D000D0EDB7FEB7E8
:100D800031968E010F5F1F4FADB7BEB712961C9301
:100D90000E9311978AE091E093838283942F80E0F1
:100DA00030E0822B932B958384830E9487078DB735
:100DB0009EB706960FB6F8949EBF0FBE8DBFC801B2
:100DC0000E947506E2960FB6F894DEBF0FBECDBF47
:100DD000CF91DF911F910F910895FF920F931F9371
:100DE000DF93CF93CDB7DEB76E970FB6F894DEBF23
:100DF0000FBECDBF80E880936100109261008FEF3D
:100E00008AB980917A00836880937A0080917C000F
:100E100080937C008AE090E00E946607209A5298B6
:100E200028988AE090E00E946607289A88EC90E073
:100E30000E9466078DE391E00E94EE0184E190E05C
:100E40000E946607219A299A579A5F9884E166E77B
:100E500074E00E94F00084E190E00E946607299807
:100E60008DE391E06FE271E00E941203FEE1FF2E3C
:100E70008E010F5F1F4F8AEF90E062E571E00E94E4
:100E80006D0190934E0280934D020E9493068091D3
:100E90004D0290914E02892B71F3F8018F2D119222
:100EA0008A95E9F7C8010E941A06813021F7C80126
:100EB00061E171E00E947E07009719F40E94930699
:100EC000DACF87E191E00E947506D5CF20E837E0C0
:100ED00004C0F9013197F1F701970097D1F7089510
:100EE0002FE088E190E00FB6F894A8958093600019
:100EF0000FBE209360000895A8950895FB01DC01C2
:100F00008D91019080190110D9F3990B0895AEE0ED
:100F1000B0E0EDE8F7E00C94360A0D891E8986E012
:100F20008C831A8309838FEF9FE79E838D839E01B5
:100F3000275E3F4FCE0101966F89788DA9010E94EF
:100F4000AB072F813885020F131FF80110822E96F0
:100F5000E4E00C94520AABE0B0E0E1EBF7E00C9473
:100F6000280A3C012B015A01FC0117821682838159
:100F700081FD03C06FEF7FEFC6C19AE0892E1E018D
:100F80000894211C311CF3012381F20123FD85917A
:100F900023FF81912F01882309F4B2C1853239F4EE
:100FA00023FD859123FF81912F01853229F490E063
:100FB000B3010E949E09E7CF982FFF24EE249924C5
:100FC000FFE1FF15D0F09B3269F09C3228F490329B
:100FD00059F0933291F40EC09D3249F0903369F488
:100FE00041E024C052E0F52A84E0F82A28C098E0C5
:100FF000F92A25C0E0E1FE2A22C0F7FC29C0892F8A
:1010000080538A3070F4F6FE05C0989C902C112411
:10101000980E15C0E89CE02C1124E80EF0E2FF2A9F
:101020000EC09E3229F4F6FC6BC140E4F42A07C0DE
:101030009C3619F450E8F52A02C0983649F4F201BA
:1010400023FD959123FF91912F01992309F0B8CFAA
:10105000892F8554833018F08052833038F444E06F
:1010600050E0A40EB51E5FE359830FC0933631F0F4
:10107000933779F0933509F056C020C0F50180818F
:10108000898342E050E0A40EB51E610101E010E04A
:1010900012C0F501C080D180F6FC03C06FEF7FEF76
:1010A00002C0692D70E042E050E0A40EB51EC601FA
:1010B0000E9493098C015FE7F52214C0F501C080FE
:1010C000D180F6FC03C06FEF7FEF02C0692D70E0A6
:1010D00042E050E0A40EB51EC6010E9488098C01B2
:1010E00050E8F52AF3FE07C01AC080E290E0B30191
:1010F0000E949E09EA948E2D90E008171907A8F324
:101100000EC0F601F7FC8591F7FE81916F0190E02A
:10111000B3010E949E09E110EA94015010400115AC
:10112000110579F7EAC0943611F0993669F5F7FEA2
:1011300008C0F501208131814281538184E090E033
:101140000AC0F501808191819C01442737FD4095BB
:10115000542F82E090E0A80EB91E9FE6F92257FFB7
:1011600009C050954095309521953F4F4F4F5F4FA7
:10117000E0E8FE2ACA01B901A1012AE030E00E949C
:10118000CA09D82ED21840C0953729F41F2D1F7ECA
:101190002AE030E01DC01F2D197F9F3661F0903787
:1011A00020F4983509F0ACC00FC0903739F098376B
:1011B00009F0A6C004C028E030E00AC0106114FDA8
:1011C000146020E130E004C014FD166020E132E03C
:1011D00017FF08C0F501608171818281938144E02D
:1011E00050E008C0F50180819181BC0180E090E071
:1011F00042E050E0A40EB51EA1010E94CA09D82EFB
:10120000D2188FE7F82EF122F6FE0BC05EEFF52222
:10121000D91438F4F4FE07C0F2FC05C08FEEF822B2
:1012200002C01D2D01C0192DF4FE0DC0FE01ED0DF3
:10123000F11D8081803319F499EEF92208C01F5FF7
:10124000F2FE05C003C08F2D867809F01F5F0F2DB9
:10125000F3FC14C0F0FE0FC01E1510F09D2C0BC047
:101260009D2C9E0C911A1E2D06C080E290E0B301C9
:101270000E949E091F5F1E15C0F304C01E1510F4C6
:10128000E11A01C0EE2404FF0FC080E390E0B30137
:101290000E949E0902FF1DC001FD03C088E790E087
:1012A0000EC088E590E00BC0802F867891F001FF9A
:1012B00002C08BE201C080E2F7FC8DE290E0B30156
:1012C0000E949E0906C080E390E0B3010E949E093F
:1012D0009A94D914C0F3DA94F101ED0DF11D8081D7
:1012E00090E0B3010E949E09DD20A9F706C080E2CC
:1012F00090E0B3010E949E09EA94EE20C1F743CE2C
:10130000F30166817781CB012B96E2E10C94440ACC
:10131000FC010590615070400110D8F780959095C0
:101320008E0F9F1F0895FC016150704001900110C5
:10133000D8F7809590958E0F9F1F08950F931F9358
:10134000CF93DF938C01EB018B8181FF1BC082FF68
:101350000DC02E813F818C819D812817390764F44F
:10136000E881F9810193F983E88306C0E885F9856E
:10137000802F0995892B31F48E819F8101969F835F
:101380008E8302C00FEF1FEFC801DF91CF911F9135
:101390000F910895FA01AA27283051F1203181F1E7
:1013A000E8946F936E7F6E5F7F4F8F4F9F4FAF4F6D
:1013B000B1E03ED0B4E03CD0670F781F891F9A1F80
:1013C000A11D680F791F8A1F911DA11D6A0F711D34
:1013D000811D911DA11D20D009F468943F912AE040
:1013E000269F11243019305D3193DEF6CF01089528
:1013F000462F4770405D4193B3E00FD0C9F7F6CF59
:10140000462F4F70405D4A3318F0495D31FD405220
:10141000419302D0A9F7EACFB4E0A69597958795B6
:1014200077956795BA95C9F7009761057105089595
:101430009B01AC010A2E0694579547953795279541
:10144000BA95C9F7620F731F841F951FA01D0895D9
:101450002F923F924F925F926F927F928F929F92C4
:10146000AF92BF92CF92DF92EF92FF920F931F93B2
:10147000CF93DF93CDB7DEB7CA1BDB0B0FB6F89463
:10148000DEBF0FBECDBF09942A88398848885F84A3
:101490006E847D848C849B84AA84B984C884DF8014
:1014A000EE80FD800C811B81AA81B981CE0FD11DF8
:1014B0000FB6F894DEBF0FBECDBFED010895F894CE
:0214C000FFCF5C
:1014C2007465737470616B6B6500414443302564CD
:1014D2000063686769700042616420436F6D6D61EB
:1014E2006E64206F722066696C656E616D6500C006
:1014F200A800C8C0A800644E6F6465000254555825
:0415020010002400B1
:00000001FF
