:100000000C94BF000C94DC000C94DC000C94DC001D
:100010000C94DC000C94DC000C94DC000C94DC00F0
:100020000C94DC000C94DC000C94DC000C94DC00E0
:100030000C94DC000C94DC000C94DC000C94DC00D0
:100040000C94DC000C94DC000C94BD010C94DC00DE
:100050000C94E3010C94DC000C94DC000C94DC00A8
:100060000C9444030C94DC000C94DC000C94DC0035
:100070000C94DC000C94DC000C94DC006E616E00CF
:10008000696E660000407A10F35A00A0724E18099B
:100090000010A5D4E80000E87648170000E40B54EF
:1000A000020000CA9A3B000000E1F50500008096BE
:1000B0009800000040420F000000A08601000000F0
:1000C000102700000000E8030000000064000000AA
:1000D00000000A00000000000100000000002C7673
:1000E000D888DC674F0823DFC1DFAE59E1B1B7968E
:1000F000E5E3E453C63AE651997696E8E6C28426EB
:10010000EB898C9B62ED407C6FFCEFBC9C9F40F2C6
:10011000BAA56FA5F490055A2AF75C936B6CF96742
:100120006DC11BFCE0E40D47FEF520E6B500D0ED07
:10013000902E0300943577050080841E080000206F
:100140004E0A000000C80C333333330F986E12830D
:100150001141EF8D2114893BE65516CFFEE6DB18E1
:10016000D1844B381BF77C1D901DA4BBE4242032A6
:1001700084725E228100C9F124ECA1E53D2711249F
:100180001FBECFEFD0E1DEBFCDBF12E0A0E0B1E0F7
:10019000EEEEF0E202C005900D92A431B107D9F75E
:1001A00012E0A4E1B2E001C01D92A932B107E1F76B
:1001B0000E947E010C9475100C940000E1ECF0E0BC
:1001C00088E1808386E08093C20084E08093C4004D
:1001D0001092C50080818068808308958093B30069
:1001E00008958093B40008959093890080938800C7
:1001F0000895569A579AE0EBF0E0808180688083FA
:1002000080818F7B808380818062808380818F7EEC
:100210008083808181608083808182608083E1EB44
:10022000F0E08081816080831092B3001092B4006E
:100230000895549A559AE0E8F0E0808180688083C0
:1002400080818064808380818E7F808380818260D2
:100250008083E1E8F0E08081886080838081806134
:100260008083109287008FEF8093860080818E7F3D
:10027000808380818260808380818B7F80831092E5
:10028000890010928800089585B5846085BDEEE6EA
:10029000F0E08081816080830895FC019081992342
:1002A00051F08091C00085FFFCCF9093C6009181F2
:1002B00031969923B1F708958F70ECE7F0E08083D1
:1002C00080818064808380818F778083EAE7F0E09B
:1002D00080818068808380818160808380818D7F40
:1002E000808380818460808380818860808308959A
:1002F000EAE7F0E080818F778083089588E180933A
:10030000C10086E08093C20084E08093C400109214
:10031000C5008091C10080688093C10010927C006C
:1003200080917C00806480937C0080917C008F773A
:1003300080937C0080917A00806880937A0080911D
:100340007A00816080937A0080917A008D7F80931B
:100350007A0080917A00846080937A0080917A009C
:10036000886080937A0085B5846085BD80916E0039
:10037000816080936E007894FFCF1F920F920FB62A
:100380000F9211248F939F9380917C00887F80939C
:100390007C0080917C0090912802892B80937C00C6
:1003A0009F5F9093280280917A00806480937A0006
:1003B000933010F0109228029F918F910F900FBEF2
:1003C0000F901F9018951F920F920FB60F92112445
:1003D0000F931F932F933F934F935F936F937F934D
:1003E0008F939F93AF93BF93EF93FF93DF93CF933D
:1003F00000D000D00F92CDB7DEB78091C60088370D
:1004000009F462C08A3709F455C0893609F066C01C
:100410006091160270911702809118029091190252
:100420002AE037ED43E25CE30E9451066093160236
:100430007093170280931802909319028091200202
:1004400090E08E010F5F1F4FB8014AE050E00E941C
:10045000A60FC8010E944D0182E091E00E944D016B
:100460008091220290912302B8014AE050E00E945C
:10047000A60FC8010E944D0184E091E00E944D0149
:100480000F900F900F900F900F90CF91DF91FF91F1
:10049000EF91BF91AF919F918F917F916F915F91FC
:1004A0004F913F912F911F910F910F900FBE0F9081
:1004B0001F901895809100019091010101979093F0
:1004C000010180930001BACF809100019091010158
:1004D00001969093010180930001B0CF8A36B9F460
:1004E0006091160270911702809118029091190282
:1004F0002AE037ED43E25CE30E9420066093160297
:1005000070931702809318029093190297CF803747
:1005100051F4809114029091150201969093150266
:10052000809314028BCF8C3651F4809114029091F9
:100530001502019790931502809314027FCF8336A2
:1005400029F480E090E00E94F40078CF863729F407
:100550008FEF93E00E94F40071CF8F36B1F4809159
:1005600022029091230240969093230280932202CC
:1005700023E08F3F920730F08FEF93E090932302B8
:10058000809322020E94F40059CF8E3679F4809134
:100590002202909123028031910510F480E190E0D5
:1005A00040979093230280932202ECCF813669F426
:1005B000109220021092210280E090E00E94EE0052
:1005C00080E090E00E94F10039CF843671F41092FF
:1005D000200281E08093210280E090E00E94EE0002
:1005E00080E090E00E94F10029CF873791F480915C
:1005F00020028E3F08F08EEF982F9F5F909320028D
:1006000080912102882319F1892F90E00E94EE0049
:1006100015CF833781F08137F9F0853609F00ECF99
:100620001092200280912102882311F580E090E051
:100630000E94F10003CF80912002823018F1982FA0
:10064000915090932002809121028823E9F6892F0E
:1006500090E00E94F100F2CE8FEF80932002809113
:100660002102882351F08FEF90E00E94EE00E6CE49
:1006700080E090E00E94EE00E1CE8FEF90E00E94DB
:10068000F100DCCE81E0DBCF1F920F920FB60F920C
:1006900011242F933F934F935F936F937F938F9387
:1006A0009F93AF93BF93EF93FF9350917C00209162
:1006B000780030E0309325022093240240917900A5
:1006C0004093260210922702942F80E0822B932BD6
:1006D00090931B0280931A02577011F40E948103B9
:1006E000FF91EF91BF91AF919F918F917F916F910A
:1006F0005F914F913F912F910F900FBE0F901F90E0
:1007000018952F923F924F925F926F927F928F92A5
:100710009F92AF92BF92CF92DF92EF92FF920F9390
:100720001F93DF93CF93CDB7DEB727970FB6F8941B
:10073000DEBF0FBECDBFA0E0B0E0BC01CD010E9486
:100740008A082BE734E14EE25EE30E947E0620E059
:1007500030E040E951E40E9420060E943608CB01B7
:100760007F836E8377FD1BC1609100017091010151
:10077000681B790B2091140230911502629F700161
:10078000639FF00C729FF00C1124882777FD8095F1
:10079000982F0E94D8075B016C0160901C0270903A
:1007A0001D0280901E0290901F022AE037ED43E266
:1007B0005CE30E947E06A40193010E9451062091F1
:1007C00016023091170240911802509119020E94AE
:1007D0007E061B012C01C601B5012AEF3DEE4BE65A
:1007E0005BE30E947E069B01AC01C401B3010E9441
:1007F00051065B016C0160931C0270931D02809393
:100800001E0290931F020027F7FC0095102FC801CD
:10081000B7010E94D807A20191010E9451060E94CF
:1008200036087B01C601B50120E030E44CE955E40F
:100830000E94780718160CF08EC080E090E4ACE9B6
:10084000B5E480931C0290931D02A0931E02B09306
:100850001F0290E0E91694E0F9060CF499C08FEFBE
:10086000E82E83E0F82EC7010E94F4008091000179
:10087000909101018E010F5F1F4FB8014AE050E0D7
:100880000E94A60FC8010E944D0187E091E00E94DE
:100890004D018E819F81B8014AE050E00E94A60F71
:1008A000C8010E944D0187E091E00E944D01C701FF
:1008B000B8014AE050E00E94A60FC8010E944D0115
:1008C00087E091E00E944D01809114029091150201
:1008D000B8014AE050E00E94A60FC8010E944D01F5
:1008E00087E091E00E944D0160911602709117021D
:1008F000809118029091190220E030E048EC52E417
:100900000E947E060E943608DC01CB01B8014AE055
:1009100050E00E94A60FC8010E944D0189E091E0BD
:100920000E944D0127960FB6F894DEBF0FBECDBFD3
:10093000CF91DF911F910F91FF90EF90DF90CF90BB
:10094000BF90AF909F908F907F906F905F904F90EF
:100950003F902F900895C601B50120E030E44CE9A6
:1009600055EC0E94A80788230CF073CF80E090E438
:10097000ACE9B5EC80931C0290931D02A0931E027B
:10098000B0931F0290E0E91694E0F9060CF067CFEF
:100990001E141F040CF467CFEE24FF2464CF1F82C3
:1009A0001E828E819F81E0CEA0E0B0E0EAEDF4E00F
:1009B0000C94810EDC012B01FA019C91923008F419
:1009C00039C1EB018881823008F433C1943069F475
:1009D000843009F02FC111969C9111978981981745
:1009E00009F428C1ACE0B1E025C1843009F421C18B
:1009F0008230A9F4923009F01DC19A01AD0188E05E
:100A0000EA010990AE01E90109929E018150C1F706
:100A1000E201898111969C918923818308C19230DA
:100A200009F407C112962D903C901397EB018A812F
:100A30009B811496AD90BD90CD90DC901797EC8083
:100A4000FD800E811F819101281B390BB90137FFF1
:100A500004C066277727621B730B603271050CF0A8
:100A600061C0121613066CF537014801062E04C04A
:100A700096948794779467940A94D2F721E030E0B3
:100A800040E050E004C0220F331F441F551F6A95F9
:100A9000D2F721503040404050402E213F2140238A
:100AA0005123211531054105510521F021E030E0A8
:100AB00040E050E079018A01E628F7280829192941
:100AC0003CC0232BD1F1260E371E35014601062EE0
:100AD00004C096948794779467940A94D2F721E09F
:100AE00030E040E050E004C0220F331F441F551F88
:100AF0006A95D2F721503040404050402A213B2196
:100B00004C215D21211531054105510521F021E0E0
:100B100030E040E050E059016A01A628B728C82813
:100B2000D9280BC0821593052CF01C01AA24BB24E4
:100B3000650103C0EE24FF24870111969C91D20128
:100B400011968C91981709F445C0992339F0A801A2
:100B500097012A193B094C095D0906C0A6019501B8
:100B60002E193F09400B510B57FD08C011823382EB
:100B7000228224833583468357831DC081E081838D
:100B80003382228288279927DC01821B930BA40BD6
:100B9000B50B84839583A683B7830DC0220F331FC3
:100BA000441F551F24833583468357838281938155
:100BB0000197938382832481358146815781DA01AD
:100BC000C9010197A109B1098F5F9F4FAF4FBF4383
:100BD00028F30BC0918333822282EA0CFB1C0C1D8C
:100BE0001D1DE482F5820683178383E080832481C0
:100BF00035814681578157FF1AC0C901AA2797FD41
:100C0000A095BA2F81709070A070B07056954795DE
:100C100037952795822B932BA42BB52B8483958313
:100C2000A683B78382819381019693838283DF01B8
:100C300001C0D201CD01CDB7DEB7E2E10C949D0E2B
:100C4000A0E2B0E0E6E2F6E00C948D0E69837A83D0
:100C50008B839C832D833E834F835887E9E0EE2E60
:100C6000F12CEC0EFD1ECE010196B7010E94270A61
:100C70008E010F5E1F4FCE010596B8010E94270A14
:100C80008A8991E089278A8BC701B801AE01475E46
:100C90005F4F0E94D4040E945209A096E6E00C9493
:100CA000A90EA0E2B0E0E7E5F6E00C948D0E6983B2
:100CB0007A838B839C832D833E834F835887F9E00F
:100CC000EF2EF12CEC0EFD1ECE010196B7010E9415
:100CD000270A8E010F5E1F4FCE010596B8010E94B4
:100CE000270AC701B801AE01475E5F4F0E94D404D6
:100CF0000E945209A096E6E00C94A90EA0E2B0E092
:100D0000E4E8F6E00C94810E69837A838B839C83FC
:100D10002D833E834F835887CE010196BE01675FC6
:100D20007F4F0E94270ACE010596BE016F5E7F4F5E
:100D30000E94270A9985923088F089898230C8F00C
:100D4000943019F4823051F404C0843029F4923084
:100D500081F48CE091E0C6C0923049F420E09A859D
:100D60008A89981321E02A87CE010996BBC0823078
:100D700049F420E09A858A89981321E02A8BCE01D4
:100D80004196B0C02D843E844F8458886D887E88FB
:100D90008F88988CEE24FF248701AA24BB24650148
:100DA00040E050E060E070E0E0E0F0E0C101817020
:100DB0009070892BE9F0E60CF71C081D191D9A01AB
:100DC000AB012A0D3B1D4C1D5D1D80E090E0A0E0B5
:100DD000B0E0E614F7040805190520F481E090E07E
:100DE000A0E0B0E0BA01A901480F591F6A1F7B1F9C
:100DF000AA0CBB1CCC1CDD1C97FE08C081E090E057
:100E0000A0E0B0E0A82AB92ACA2ADB2A3196E0324B
:100E1000F10549F0660C771C881C991C5694479480
:100E200037942794C3CFFA85EA892B893C898B852F
:100E30009C85280F391F2E5F3F4F17C0CA01817054
:100E40009070892B61F016950795F794E79480E0F0
:100E500090E0A0E0B0E8E82AF92A0A2B1B2B76954F
:100E60006795579547952F5F3F4F77FDE7CF0CC0AC
:100E7000440F551F661F771F17FD4160EE0CFF1CC6
:100E8000001F111F21503040403090E0590790E082
:100E9000690790E4790760F32B8F3C8FDB01CA016F
:100EA0008F779070A070B07080349105A105B10566
:100EB00061F447FD0AC0E114F1040105110529F0B0
:100EC000405C5F4F6F4F7F4F40781A8EFE1711F0D6
:100ED00081E08A8F4D8F5E8F6F8F78A383E0898F3B
:100EE000CE0149960E945209A096E2E10C949D0E13
:100EF000A8E1B0E0EEE7F7E00C948D0E69837A8309
:100F00008B839C832D833E834F83588789E0E82E13
:100F1000F12CEC0EFD1ECE010196B7010E94270AAE
:100F20008E010F5E1F4FCE010596B8010E94270A61
:100F30008985823040F08989823028F0C701B80164
:100F40000E949F0A01C08FEF6896E6E00C94A90EFC
:100F5000A8E1B0E0EEEAF7E00C948D0E69837A83A5
:100F60008B839C832D833E834F83588789E0E82EB3
:100F7000F12CEC0EFD1ECE010196B7010E94270A4E
:100F80008E010F5E1F4FCE010596B8010E94270A01
:100F90008985823040F08989823028F0C701B80104
:100FA0000E949F0A01C081E06896E6E00C94A90EB9
:100FB000A8E0B0E0EEEDF7E00C948A0E9B01AC01E6
:100FC00083E08983DA01C9018827B7FD83959927D2
:100FD000AA27BB27B82E211531054105510519F463
:100FE00082E089833AC08823A9F0203080E0380766
:100FF00080E0480780E8580729F460E070E080E06E
:101000009FEC30C0EE24FF248701E21AF30A040BA0
:10101000150B02C079018A018EE1C82ED12CDC8229
:10102000CB82ED82FE820F831887C801B7010E9430
:10103000030901971816190684F4082E04C0EE0C53
:10104000FF1C001F111F0A94D2F7ED82FE820F834E
:101050001887C81AD90ADC82CB82BA82CE010196DF
:101060000E9452092896E9E00C94A60EACE0B0E08C
:10107000ECE3F8E00C94910E69837A838B839C8374
:10108000CE010196BE016B5F7F4F0E94270A8D81C2
:10109000823061F1823050F1843021F48E818823D6
:1010A00051F12EC02F81388537FD20C06E812F3140
:1010B00031051CF06623F9F023C08EE190E0821B1D
:1010C000930B29853A854B855C8504C056954795D9
:1010D000379527958A95D2F76623B1F050954095BC
:1010E000309521953F4F4F4F5F4F0EC020E030E0CD
:1010F00040E050E009C02FEF3FEF4FEF5FE704C043
:1011000020E030E040E050E8B901CA012C96E2E06E
:101110000C94AD0EA8E0B0E0E0E9F8E00C94890E84
:101120007B018C01611571058105910519F482E03F
:10113000898360C083E089838EE1C82ED12CDC8254
:10114000CB82ED82FE820F831887C801B7010E940F
:101150000309FC013197F7FF3BC0222733272E1BE1
:101160003F0B57016801022E04C0D694C794B79470
:10117000A7940A94D2F740E050E060E070E081E08C
:1011800090E0A0E0B0E004C0880F991FAA1FBB1F29
:101190002A95D2F70197A109B1098E219F21A02399
:1011A000B1230097A105B10521F041E050E060E0D6
:1011B00070E04A295B296C297D294D835E836F830A
:1011C00078878EE190E08E1B9F0B9C838B8312C0EF
:1011D000309781F00E2E04C0EE0CFF1C001F111F73
:1011E0000A94D2F7ED82FE820F831887CE1ADF0AA7
:1011F000DC82CB821A82CE0101960E945209289687
:10120000EAE00C94A50EEF92FF920F931F937B01DF
:101210008C0180E0E81680E0F80681E0080780E0B5
:10122000180788F48FEFE816F1040105110531F075
:1012300028F088E090E0A0E0B0E017C080E090E007
:10124000A0E0B0E012C080E0E81680E0F80680E0A0
:10125000080781E0180728F088E190E0A0E0B0E0FE
:1012600004C080E190E0A0E0B0E020E230E040E0A7
:1012700050E0281B390B4A0B5B0B04C016950795F1
:10128000F794E7948A95D2F7F701EC5EFE4F8081E0
:10129000281B310941095109C9011F910F91FF9084
:1012A000EF900895DF92EF92FF920F931F93FC014E
:1012B000E480F58006811781D1808081823048F4F6
:1012C00080E090E0A0E1B0E0E82AF92A0A2B1B2B8D
:1012D000A5C0843009F49FC0823021F4EE24FF249D
:1012E000870105C0E114F1040105110519F4E0E0DE
:1012F000F0E096C0628173819FEF623879070CF04D
:101300005BC022E83FEF261B370B2A3131052CF05A
:1013100020E030E040E050E02AC0B801A701022EF2
:1013200004C076956795579547950A94D2F781E062
:1013300090E0A0E0B0E004C0880F991FAA1FBB1F77
:101340002A95D2F70197A109B1098E219F21A023E7
:10135000B1230097A105B10521F081E090E0A0E064
:10136000B0E09A01AB01282B392B4A2B5B2BDA0119
:10137000C9018F779070A070B07080349105A1057D
:10138000B10539F427FF09C0205C3F4F4F4F5F4F35
:1013900004C0215C3F4F4F4F5F4FE0E0F0E0203052
:1013A000A0E03A07A0E04A07A0E45A0710F0E1E005
:1013B000F0E079018A0127C06038710564F5FB010E
:1013C000E158FF4FD801C7018F779070A070B070BF
:1013D00080349105A105B10539F4E7FE0DC080E424
:1013E00090E0A0E0B0E004C08FE390E0A0E0B0E0C7
:1013F000E80EF91E0A1F1B1F17FF05C0169507955B
:10140000F794E794319687E016950795F794E7945B
:101410008A95D1F705C0EE24FF248701EFEFF0E0B5
:101420006E2F679566276795902F9F77D794DD2459
:10143000D7948E2F8695492F462B582F5D29B701BB
:10144000CA011F910F91FF90EF90DF900895FC016A
:10145000DB01408151812281622F6F7770E0221F72
:101460002227221F9381892F880F822B282F30E07B
:10147000991F9927991F11969C9311972115310552
:10148000A9F5411551056105710511F482E037C0D8
:1014900082E89FEF13969C938E9312979A01AB016B
:1014A00067E0220F331F441F551F6A95D1F783E071
:1014B0008C930DC0220F331F441F551F12968D9120
:1014C0009C911397019713969C938E9312972030BB
:1014D00080E0380780E0480780E4580758F3149606
:1014E0002D933D934D935C93179708952F3F3105AE
:1014F00079F4411551056105710519F484E08C9367
:10150000089564FF03C081E08C9312C01C9210C048
:101510002F57304013963C932E93129783E08C9371
:1015200087E0440F551F661F771F8A95D1F77064B7
:1015300014964D935D936D937C93179708951F9325
:10154000DC01FB019C91923008F447C0808182301D
:1015500008F443C0943051F411961C91843099F5ED
:101560008181682F70E0611B71093FC0843021F0D8
:10157000923031F48230B9F18181882389F12DC014
:1015800011961C9111978230F1F081811817D9F4CE
:1015900012962D913C911397828193818217930724
:1015A00094F028173907BCF014968D919D910D90F9
:1015B000BC91A02D24813581468157812817390798
:1015C0004A075B0718F4112341F00AC082179307FA
:1015D000A407B50740F4112319F061E070E005C0DD
:1015E0006FEF7FEF02C060E070E0CB011F910895C4
:1015F000A1E1B0E0EEEFFAE00C94810E3C017F87B0
:101600006E876A01FC0117821682838181FD03C007
:101610006FEF7FEF71C39E012F5F3F4F398B288B98
:10162000F3012381EE85FF8523FD859123FF8191C1
:10163000FF87EE87882309F45CC3853251F4EE8579
:10164000FF8523FD859123FF8191FF87EE878532FA
:1016500029F490E0B3010E94C70FE2CF982F10E069
:10166000882499241032B0F49B3269F09C3228F41B
:10167000903251F0933271F40BC09D3239F09033B7
:1016800049F4116028C01260146025C0186023C09E
:10169000106121C017FD2AC0892F80538A3078F449
:1016A00016FF06C0FAE09F9E902C1124980E13C0DE
:1016B0003AE0839E802C1124880E10620CC09E326A
:1016C00021F416FD16C3106406C09C3611F4106890
:1016D00002C0983659F4EE85FF8523FD959123FFCE
:1016E0009191FF87EE87992309F0BCCF892F85540C
:1016F000833020F4812F8061905E07C0892F85564A
:10170000833008F0A1C1812F8F7E86FD02C076E074
:10171000972E6FE3F62EF822953619F4F0E4FF2A9F
:1017200007C0963619F420E8F22A02C091109A9464
:10173000F7FE0BC03BE3391520F427E05CE3B52E40
:101740000EC0B92CB39427E00AC047E0491528F42D
:1017500027E0BB2447E0942E02C0292DBB24C601FC
:1017600004969D878C87F6016081718182819381C7
:10177000AE014F5F5F4F0B2D0E94B80E6C010981C7
:10178000202E332400FF04C003FD02C01DE209C067
:10179000F1FE02C01BE205C0F2FC02C010E001C075
:1017A00010E2C1018C709070892BB9F1112311F4F2
:1017B00083E001C084E0881510F088240AC0881AEC
:1017C000F3FC07C080E290E0B3010E94C70F8A9447
:1017D000C9F7112329F0812F90E0B3010E94C70FB0
:1017E00023FE03C00CE710E00EC000E810E00BC0C1
:1017F000E114F10409F0805290E0B3010E94C70F98
:101800000F5F1F4F05C0EF2CFF24F0E1EF22FF24F4
:10181000F8018491882361F714C1F7FE12C0BC0C53
:1018200024FE04C08A81813309F4BA941B141CF08D
:10183000BB24B3942DC0F8E0FB1550F538E0B32E6F
:1018400027C0F6FC25C0892D90E08C159D054CF035
:101850002CEFC2162FEFD20624F030E8F32A01C095
:101860009A94992049F0E2E0F0E0EC0FFD1FE90DB9
:10187000F11D80818033A1F3F7FE0AC0B92CB39427
:10188000892D90E0C816D90614F0992401C09C183F
:10189000F7FC03C025E030E009C01C141D041CF057
:1018A00021E030E003C096012F5F3F4F112311F07C
:1018B0002F5F3F4F992029F0892D90E00196280F46
:1018C000391F882D90E02817390714F0882401C0AB
:1018D000821A4F2C5524C20189709070892B39F0DF
:1018E00008C080E290E0B3010E94C70F8A9488206C
:1018F000C1F7112329F0812F90E0B3010E94C70F97
:1019000043FE07C008C080E390E0B3010E94C70F08
:101910008A948820C1F7F7FE46C08601D7FE02C030
:1019200000E010E076010894E11CF11CE01AF10AD5
:1019300041E050E04C0F5D1FE40EF51E26014B18F0
:101940005108892D90E0AA24BB24A81AB90A5FEF98
:101950000F3F150729F48EE290E0B3010E94C70FF4
:10196000C016D10634F0401651061CF4F7018081F0
:1019700001C080E3015010400894E11CF11C0A15DD
:101980001B052CF090E0B3010E94C70FE0CF0C15AF
:101990001D0539F49A81963318F4953311F424FE19
:1019A00081E390E04BC08A81813309F00F7E90E0A3
:1019B000B3010E94C70F9920A1F08EE290E0B3011D
:1019C0000E94C70F12E0E1E0F0E0EC0FFD1FE10F15
:1019D000F11D1F5F808190E0B3010E94C70F9A94B0
:1019E00091F744FC03C085E690E002C085E490E0F6
:1019F000B3010E94C70FD7FC05C0C114D10441F444
:101A000004FF06C0D094C194D108D3948DE201C0E4
:101A10008BE290E0B3010E94C70F80E305C08F5FA7
:101A200026EF3FEFC20ED31E3AE0C316D104BCF737
:101A300090E0B3010E94C70FC601C096B3010E9497
:101A4000C70FCC84DD8452C1933631F0933799F0BF
:101A5000933509F059C023C0F601808189835E0166
:101A60000894A11CB11C22E030E0C20ED31E21E07C
:101A7000E22EF12C12C0F601A080B18016FD03C049
:101A80006FEF7FEF02C0692D70E022E030E0C20E00
:101A9000D31EC5010E949B0F7C011F7713C0F60166
:101AA000A080B18016FD03C06FEF7FEF02C0692DEB
:101AB00070E022E030E0C20ED31EC5010E94900FFC
:101AC0007C01106813FF07C01BC080E290E0B301E7
:101AD0000E94C70F8A94882D90E0E816F906A8F3B3
:101AE0000FC0F50117FD859117FF81915F0190E00F
:101AF000B3010E94C70F81108A940894E108F1088D
:101B0000E114F10471F7F2C0943611F0993689F5B9
:101B100017FF08C0F601208131814281538184E0A2
:101B200090E00AC0F601808191819C01442737FD35
:101B30004095542F82E090E0C80ED91E9FE6F92E02
:101B4000F12257FF09C050954095309521953F4FA0
:101B50004F4F5F4F90E8F92ACA01B901AE014F5FBC
:101B60005F4F2AE030E00E94F30FE82EE889EE1A7A
:101B700041C0953721F41F7E2AE030E01CC0197F58
:101B80009F3661F0903720F4983509F0B2C00FC04D
:101B9000903739F0983709F0ACC004C028E030E045
:101BA0000AC0106114FD146020E130E004C014FD8F
:101BB000166020E132E017FF08C0F60160817181F4
:101BC0008281938144E050E008C0F60180819181D8
:101BD000BC0180E090E042E050E0C40ED51EAE01B2
:101BE0004F5F5F4F0E94F30FE82E5889E51A8FE789
:101BF000F82EF122F6FE0BC08EEFF822E91438F42D
:101C0000F4FE07C0F2FC05C09FEEF92202C01E2DB3
:101C100001C0192DF4FE0DC0FE01EE0DF11D8081F5
:101C2000803319F4E9EEFE2208C01F5FF2FE05C002
:101C300003C08F2D867809F01F5F0F2DF3FC14C0B1
:101C4000F0FE0FC0181510F09E2C0BC09E2C980CA7
:101C5000911A182D06C080E290E0B3010E94C70FD0
:101C60001F5F1815C0F304C0181510F4811A01C0C5
:101C7000882404FF0FC080E390E0B3010E94C70FE7
:101C800002FF1DC001FD03C088E790E00EC088E59B
:101C900090E00BC0802F867891F001FF02C08BE2AC
:101CA00001C080E2F7FC8DE290E0B3010E94C70F13
:101CB00006C080E390E0B3010E94C70F9A94E91434
:101CC000C0F3EA94E1E0F0E0EC0FFD1FEE0DF11D32
:101CD000808190E0B3010E94C70FEE2091F706C00B
:101CE00080E290E0B3010E94C70F8A948820C1F778
:101CF00097CCF30166817781CB016196E2E10C9488
:101D00009D0E2F923F924F925F926F927F928F9291
:101D10009F92AF92BF92CF92DF92EF92FF920F937A
:101D20001F93CF93DF93CDB7DEB7CA1BDB0B0FB684
:101D3000F894DEBF0FBECDBF09942A883988488841
:101D40005F846E847D848C849B84AA84B984C884D7
:101D5000DF80EE80FD800C811B81AA81B981CE0FCE
:101D6000D11D0FB6F894DEBF0FBECDBFED010895B3
:101D7000283008F027E03327DA01990F311D87FD5D
:101D8000916000966105710539F432602E5F3D93D4
:101D900030E32A95E1F708959F3F30F080387105D0
:101DA000610509F03C5F3C5F3D93913008F080682D
:101DB000911DDF93CF931F930F93FF92EF92192FF3
:101DC000987F9695E92F96959695E90FFF27E25211
:101DD000FF4F99273327EE24FF24A701E701059041
:101DE0000894079428F4360FE71EF81E491F511D6A
:101DF000660F771F881F991F0694A1F70590079417
:101E000028F4E70EF81E491F561FC11D770F881FC3
:101E1000991F661F0694A1F70590079428F4F80E01
:101E2000491F561FC71FD11D880F991F661F771F97
:101E30000694A1F70590079420F4490F561FC71F79
:101E4000D81F990F661F771F881F0694A9F78491E2
:101E50001095177041F0D695C79557954795F7940B
:101E6000E7941A95C1F7E4E8F0E0689415901591AD
:101E700035916591959105907FE27395E118F10A8E
:101E8000430B560BC90BD009C0F7E10CF11E431FE1
:101E9000561FC91FD01D7EF4703311F48A95E6CF0A
:101EA000E894015030F0080F0AF40027021708F4F4
:101EB000202F2395022F7A3328F079E37D932A95FA
:101EC000E9F710C07D932A9589F606949795679552
:101ED000379517951794E118F10A430B560BC90B68
:101EE000D00998F023957E9173957A3308F070E3CA
:101EF0007C932013B8F77E9170617D9330F08395C9
:101F000071E37D9370E32A95E1F71124EF90FF9040
:101F10000F911F91CF91DF91992787FD909508959B
:101F2000FC010590615070400110D8F780959095A4
:101F30008E0F9F1F0895FC016150704001900110A9
:101F4000D8F7809590958E0F9F1F0895FB019F01F4
:101F5000E8944230C4F04532B4F44A3029F497FB97
:101F60001EF4909581959F4F642F77270E946110F2
:101F7000805D8A330CF0895D8193CB010097A1F7D6
:101F800016F45DE251931082C9010C9451100F9325
:101F90001F93CF93DF938C01EB018B8181FF1BC0DB
:101FA00082FF0DC02E813F818C819D8128173907CA
:101FB00064F4E881F9810193F983E88306C0E88538
:101FC000F985802F0995892B31F48E819F810196A7
:101FD0009F838E8302C00FEF1FEFC801DF91CF9167
:101FE0001F910F910895FA01AA27283051F120314D
:101FF00081F1E8946F936E7F6E5F7F4F8F4F9F4F9D
:10200000AF4FB1E03ED0B4E03CD0670F781F891FDE
:102010009A1FA11D680F791F8A1F911DA11D6A0FAC
:10202000711D811D911DA11D20D009F468943F915F
:102030002AE0269F11243019305D3193DEF6CF015E
:102040000895462F4770405D4193B3E00FD0C9F724
:10205000F6CF462F4F70405D4A3318F0495D31FD91
:102060004052419302D0A9F7EACFB4E0A6959795E4
:10207000879577956795BA95C9F7009761057105BA
:1020800008959B01AC010A2E069457954795379504
:102090002795BA95C9F7620F731F841F951FA01D5E
:1020A0000895DC01FC01672F71917723E1F73297E6
:1020B00004C07C916D9370836291AE17BF07C8F323
:1020C0000895AA1BBB1B51E107C0AA1FBB1FA6177F
:1020D000B70710F0A61BB70B881F991F5A95A9F7D1
:0E20E00080959095BC01CD010895F894FFCF36
:1020EE003C003B000A0D003B000A0D000000000002
:1020FE0000000000000102020303030304040404B1
:10210E000404040405050505050505050505050575
:10211E000505050506060606060606060606060655
:10212E000606060606060606060606060606060641
:10213E000606060607070707070707070707070725
:10214E000707070707070707070707070707070711
:10215E000707070707070707070707070707070701
:10216E0007070707070707070707070707070707F1
:10217E0007070707080808080808080808080808D5
:10218E0008080808080808080808080808080808C1
:10219E0008080808080808080808080808080808B1
:1021AE0008080808080808080808080808080808A1
:1021BE000808080808080808080808080808080891
:1021CE000808080808080808080808080808080881
:1021DE000808080808080808080808080808080871
:1021EE000808080808080808080808080808080861
:0421FE0008080808BD
:00000001FF
