:100000000C944A000C9469000C9469000C946900EB
:100010000C9469000C9469000C9469000C946900BC
:100020000C9469000C9469000C9469000C946900AC
:100030000C9469000C9469000C9469000C9469009C
:100040000C9469000C9469000C9469000C9469008C
:100050000C9469000C9469000C9469000C9469007C
:100060000C9469000C9469000C9469000C9469006C
:100070000C9469000C9469000C9469000C9469005C
:100080000C9469000C9469000C9469000C9469004C
:100090000C94690011241FBECFEFD0E1DEBFCDBFAD
:1000A00011E0A0E0B1E0E6E0F1E000E00BBF02C04B
:1000B00007900D92A030B107D9F711E0A0E0B1E0B0
:1000C00001C01D92A030B107E1F70E946B000C94B3
:1000D00081000C94000080E8809361001092610020
:1000E00080E29EE40197F1F7089A28EC30E0109A3C
:1000F0008FEF9FEFF9013197F1F70197D9F710983A
:06010000F6CFF894FFCFDA
:00000001FF
