:100000000C9434000C9451000C9451000C94510049
:100010000C9451000C9451000C9451000C9451001C
:100020000C9451000C9451000C9451000C9451000C
:100030000C9451000C9451000C9451000C945100FC
:100040000C9451000C9451000C9451000C945100EC
:100050000C9451000C9451000C9451000C945100DC
:100060000C9451000C94510011241FBECFEFD4E02A
:10007000DEBFCDBF11E0A0E0B1E0E2E4F3E102C0F9
:1000800005900D92A432B107D9F712E0A4E2B1E0D5
:1000900001C01D92AC32B107E1F70E948B000C94B5
:1000A0009F090C94000080917A00806880937A0008
:1000B00080917A00806480937A0080917A0086FD36
:1000C000FCCF80917A00806403C080917A008F77A2
:1000D00080937A0080917A0086FDF7CF8091780036
:1000E00060917900362F20E090E0282B392B4427AF
:1000F00037FD4095542FB901CA0108958FEF8AB991
:10010000EAE7F0E0808183688083ECE7F0E08081BB
:10011000836080830895A2E3B0E0E1E9F0E00C940D
:100120006E0980E880936100109261008AE090E09F
:100130000E94A006209A529828988AE090E00E9497
:10014000A006289A88EC90E00E94A00689E091E041
:100150000E94DC0584E190E00E94A006219A299A81
:10016000579A5F9866E774E084E10E94E90484E1AD
:1001700090E00E94A00629988FEF8AB980917A00BA
:10018000836880937A0080917C00836080937C00F8
:100190006FE071E089E091E00E94A701EE24E39412
:1001A00090E0892E91E0992E6E010894C11CD11C1B
:1001B00088ECA82EB12C64E271E08AEF90E00E94F6
:1001C0006505F82E449A0E94530080917800209192
:1001D0007900122F00E090E0802B912B9F938F935A
:1001E0009F928F92DF92CF920E94C60620EB34E05E
:1001F00042E3B60184E291E00E942F02449888E82D
:1002000093E12DB73EB72A5F3F4F0FB6F8943EBF3C
:100210000FBE2DBFF5013197F1F70197D9F7EE2009
:1002200019F0299AEE2403C02998EE24E3946F2D47
:1002300084E291E00E94C701882331F06F2D84E2AF
:1002400091E00E942403B7CF6F2D84E291E00E94D9
:10025000E201882309F4AFCF80913B01813009F09E
:10026000AACF80914601883009F0A5CF6F2D84E296
:1002700091E00E94FD029FCF45E050E0BC0183E188
:1002800091E00E94B8069C0180E0232B09F481E0F4
:100290000895EF92FF920F931F93CF93DF937C010A
:1002A000413061F4685070409B0140E050E0685F6D
:1002B0007F4F2F5E3F4F4F4F5F4F12C0423029F0AC
:1002C00020E030E040E050E00BC0685070409B01FF
:1002D00040E050E0685F7F4F2A5F3F4F4F4F5F4FD6
:1002E000E7018B010FC0F881E0E0898190E08E2B5F
:1002F0009F2BA0E0B0E0280F391F4A1F5B1F2296FA
:10030000025010400230110570F7FB01EE7FEE0D38
:10031000FF1D60FF0DC0908180E0AA2797FDA0958A
:10032000BA2F02C040705070280F391F4A1F5B1F40
:10033000CA01AA27BB270097A105B10599F7209507
:100340003095C901CDB7DEB7E6E00C949009AC0159
:1003500020E030E0F901EB5DFD4FDB01A20FB31FA0
:100360008C9180832F5F3F4F2430310599F720E037
:1003700030E0F901E15EFD4FDA01A20FB31F8C916D
:1003800080832F5F3F4F2630310599F70895FC0198
:100390006932B0F08485883099F48585863081F49F
:1003A000DF019696E5E2F2E09C918081981741F496
:1003B0001196319682E0E932F807B1F781E00895AD
:1003C00080E00895CF93DF93FC016A32B0F084851A
:1003D000883099F48585882381F4DF01E5E2F2E035
:1003E000ED019E8D8081981741F41196319682E03F
:1003F000E932F807A9F781E001C080E0DF91CF91F1
:100400000895FC01AFE1B2E0868180838D918683FF
:10041000319682E0A532B807B9F70895CF93DF93FC
:10042000EC01FC01A5E2B2E0828D868F8D91828F76
:10043000319682E0A932B807B9F7188E198E80E498
:100440008C8B1D8A8E8B40E064E170E0CE010E96AD
:100450000E944901988F898FDF91CF910895A0E084
:10046000B0E0E5E3F2E00C947109EC016B01B22E0F
:10047000132F18828BE189838CEF8A8386E08B832C
:1004800088E48C838DE18D838EE48E838FE68F8369
:1004900084E6888785E6898780E38A8781E38B877E
:1004A000042F4D3D08F00CED88E08C871D8685E417
:1004B0008E871F86188A045E098B30EC3E8F28EAEF
:1004C0002F8F92E098A381E089A34AE1E42EF12CDA
:1004D000EC0EFD1E3A8F2B8F9C8F84E68D8F188E2D
:1004E000198E80E48C8B1D8A8E8B81E18F8B40E08E
:1004F00064E170E0CE010E960E944901988F898FC9
:100500008AA18CA38BA18DA31AA3BBA21EA2045106
:100510000FA3085018A619A6DE019A9620E030E035
:1005200007C0F601E20FF31F80818D932F5F3F4FCD
:100530002017B8F310E0005F1F4F41E0B801C7017A
:100540000E94490198A789A7BE01C8014A960E9446
:100550000A05CDB7DEB7E9E00C948D09A0E0B0E064
:10056000E4EBF2E00C947309EC017B01D22E132F23
:10057000FC01AFE1B2E0868180838D918683319664
:1005800082E0A532B807B9F7042F4D3D08F00CED15
:10059000188A045E098BCE010E940E028AA18CA3E8
:1005A0008BA18DA31AA3DBA21EA204510FA3085096
:1005B00018A619A6DE019A9620E030E007C0F701E0
:1005C000E20FF31F80818D932F5F3F4F2017B8F309
:1005D00010E0005F1F4F41E0B801CE014A960E9433
:1005E000490198A789A7BE01C8014A960E940A0539
:1005F000CDB7DEB7E7E00C948F091F93CF93DF935D
:10060000EC01162FFC01AFE1B2E0868180838D9171
:100610008683319682E0A532B807B9F7CE010E94F1
:100620000E021AA28CA1883F18F08DA18F5F8DA3B6
:100630008CA1885F8CA3BE01812F90E00E940A05E7
:10064000DF91CF911F910895CF93DF93AC01EC011F
:100650002FE132E0FC01D901868180838D91868370
:10066000319682E0A532B807B9F7FA01148A82E020
:10067000858B8E8988A3F90181919F018E8B2196AC
:10068000F2E025323F07A9F7FA017C96A5E2B2E035
:10069000808182878D91819382E0A932B807C1F76A
:1006A000BA018AE290E00E940A05DF91CF91089595
:1006B000CF92DF92FF920F931F93DF93CF93CDB72B
:1006C000DEB7C25DD0400FB6F894DEBF0FBECDBF1F
:1006D0008C01DE011196EAE1F1E08AE001900D92D1
:1006E0008150E1F7FE013196DF010D900020E9F71E
:1006F0009D01215030402E1B3F0BF801108283E1F9
:10070000818384ED82838EE983838FE9848380EA09
:100710008583AFE1B2E08D918683319682E0A53288
:10072000B807C9F7F22EACEDA21710F46CEDF62E57
:10073000F801108AFCE1FF0EF801F18A5AE1C52E9A
:10074000D12CC00ED11E80912502828F809126026D
:10075000838F80912702848F80912802858F80EC7F
:10076000868F88EA878F81E080A385E081A3108E41
:10077000118E80E4848B158A868B40E064E170E002
:10078000C8010E960E944901F801908F818F94E074
:1007900094A380EB85A392A383A316A2FCEEFF0E85
:1007A000F801F7A2F8EFFF0EF80110A611A6DE017E
:1007B0001596BE9603C08D9181939F5F9F15D8F3C8
:1007C0006F2D70E0605F7F4F41E0C6010E944901DC
:1007D000F80190A781A7FE013B9688ECDF011D92EE
:1007E0008A95E9F783E18C8784ED8D878EE98E8782
:1007F0008FE98F8780EA888B84E5898B85E58A8BF2
:1008000088E58B8B80E18C8B84E28E8B88E08F8BEC
:1008100085E4898F8FE18C8F82E18D8F84E38E8FC9
:1008200080E48F8F8FEF89A381E18AA386EE8BA36B
:100830008FE38CA330EC3DA328EA2EA381E08FA3A5
:1008400094E098A739A72AA78BA785E08CA79DA736
:1008500080EB8EA79FA788AB8BE08AAB88E18BAB40
:1008600082E38CAB88E48DAB85E68EAB8AE68FABFA
:10087000BF018EE290E00E940A05CE52DF4F0FB614
:10088000F894DEBF0FBECDBFCF91DF911F910F91C6
:10089000FF90DF90CF9008952A98962F9F71982B04
:1008A0009EBD0DB407FEFDCF1EBC0DB407FEFDCFEF
:1008B00067FF04C01EBC0DB407FEFDCF2A9A8EB59B
:1008C00008952A986F71682B6EBD0DB407FEFDCF99
:1008D0004EBD0DB407FEFDCF2A9A0895AC01FB0171
:1008E0002A988AE38EBD0DB407FEFDCF9A01DF0181
:1008F00008C01EBC0DB407FEFDCF215030408EB5A0
:100900008D9321153105A9F7E40FF51F10822A9A5E
:1009100008959C01FB012A988AE78EBD0DB407FE5D
:10092000FDCF08C080818EBD0DB407FEFDCF2150E4
:100930003040319621153105A9F72A9A0895482F9C
:10094000282F30E0207630708091290290E028171F
:100950003907F9F02A988FEB8EBD0DB407FEFDCF55
:1009600083E08EBD0DB407FEFDCF2A9A2A988FE949
:100970008EBD0DB407FEFDCF85E0359527958A9590
:10098000E1F72EBD0DB407FEFDCF2A9A40764093C5
:10099000290208951F93182F0E949F04612F80E061
:1009A0000E944C041F9108950F931F93182F062F38
:1009B0000E949F042A981F7110641EBD0DB407FE8B
:1009C000FDCF0EBD0DB407FEFDCF2A9A1F910F91EA
:1009D00008950F931F93162F072F682F84ED0E9401
:1009E000D404612F86ED0E94D404602F87ED0E940D
:1009F000D40418E203C0812F8A95F1F78AEE0E9491
:100A0000CA0480FDF8CF1F910F91089582E70E94DC
:100A1000CA0408950F931F93CF93DF93EC018B01CA
:100A20006FEF82E00E94D40469E183E00E94D40465
:100A3000CE018150682F86E00E94D404CE018150FF
:100A4000964E692F87E00E94D4042A988AE78EBDCB
:100A50000DB407FEFDCF1EBC0DB407FEFDCF2A9AD4
:100A60002A988AE78EBD0DB407FEFDCF09C0F801B4
:100A700080818EBD0DB407FEFDCF21970F5F1F4F04
:100A80002097A9F72A9A2A988FE98EBD0DB407FE00
:100A9000FDCF88E08EBD0DB407FEFDCF2A9A8CE114
:100AA0000E94CA0481FF0CC02A988FEB8EBD0DB442
:100AB00007FEFDCF88E08EBD0DB407FEFDCF2A9A5C
:100AC000DF91CF911F910F910895A0E0B0E0EBE688
:100AD000F5E00C9470096C015B0189E30E94CA0483
:100AE000882319F400E010E061C060912A0210919F
:100AF0002B0280E00E94D404612F81E00E94D40484
:100B000060E08AE30E944C04182F60E08AE30E94B0
:100B10004C04382F20E0C12FD0E0C22BD32BD09330
:100B20002B02C0932A0260E08AE30E944C04E82E64
:100B300060E08AE30E944C04F82E60E08AE30E94A1
:100B40004C04082F10E060E08AE30E944C04382F28
:100B500020E0202B312B27FD03C000E010E012C065
:100B60000E2D10E09F2D80E0082B192BC601019758
:100B7000045010408017910708F48C01B501C8019A
:100B80000E946E046C2F8CE00E94D4046D2F8DE0C7
:100B90000E94D4042A988EE98EBD0DB407FEFDCFC5
:100BA00080E48EBD0DB407FEFDCF2A9AC801CDB7F3
:100BB000DEB7EAE00C948C09CF93DF93EC01229A24
:100BC0002A9A84B18C6284B924982A9A2B982D98F9
:100BD00080E58CBD8DB581608DBD2A988FEF8EBD6F
:100BE0000DB407FEFDCF8FEF8EBD0DB407FEFDCF18
:100BF0002A9A82E390E00E94A00610922B021092A3
:100C00002A0260E088E00E94D40460E089E00E944B
:100C1000D40460E08CE00E94D40460E08DE00E9487
:100C2000D4046EEF8AE00E94D40469E18BE00E9454
:100C3000D4046FEF84E00E94D40469E185E00E944F
:100C4000D4046FEF86E00E94D4046FE187E00E9435
:100C5000D40460EB88E30E94D4046FE388E20E942E
:100C6000D40460E389E20E94D40469EF80E30E9427
:100C7000D40467EF81E30E94D4046DE080EC0E940D
:100C8000D40460E081EC0E94D4042A9882E88EBDEE
:100C90000DB407FEFDCF82E38EBD0DB407FEFDCF80
:100CA0002A9A62E186EC0E94D4046CE087EC0E94F0
:100CB000D40462E184EC0E94D40464EF8AEC0E94C4
:100CC000D40461E08BEC0E94D404688184EE0E941D
:100CD000D404698185EE0E94D4046A8182EE0E9468
:100CE000D4046B8183EE0E94D4046C8180EE0E9458
:100CF000D4046D8181EE0E94D40460E071E080E153
:100D00000E94E9048FE10E949F042A988BE98EBD1E
:100D10000DB407FEFDCF80EC8EBD0DB407FEFDCFF8
:100D20002A9A2A988FE98EBD0DB407FEFDCF84E084
:100D30008EBD0DB407FEFDCF2A9ADF91CF910895A5
:100D400020E837E004C0F9013197F1F701970097E7
:100D5000D1F708952FE088E190E00FB6F894A895B8
:100D6000809360000FBE209360000895A8950895B9
:100D7000FB01DC014150504030F08D910190801911
:100D800019F40020B9F7881B990B0895AEE0B0E084
:100D9000ECECF6E00C9476090D891E8986E08C83D4
:100DA0001A8309838FEF9FE79E838D83CE01499637
:100DB000AC016F89788DCE0101960E94E9062F81E2
:100DC0003885020F131FF80110822E96E4E00C9470
:100DD0009209ABE0B0E0EFEEF6E00C9468093C015C
:100DE0002B015A01FC0117821682838181FD03C009
:100DF0006FEF7FEFC8C19AE0892E1E010894211C75
:100E0000311CF3012381F20123FD859123FF8191A0
:100E10002F01882309F4B4C1853239F423FD85916B
:100E200023FF81912F01853229F4B30190E00E94C4
:100E3000DE08E7CF982FDD24CC249924FFE1FD15AF
:100E4000D0F09B3269F09C3228F4903259F0933202
:100E500091F40EC09D3249F0903369F441E024C012
:100E600052E0D52A84E0D82A28C098E0D92A25C0A3
:100E7000E0E1DE2A22C0D7FC29C0892F80538A30C6
:100E800070F4D6FE05C0989C902C1124980E15C0C5
:100E9000C89CC02C1124C80EF0E2DF2A0EC09E327E
:100EA00029F4D6FC6DC140E4D42A07C09C3619F45D
:100EB00050E8D52A02C0983649F4F20123FD9591F5
:100EC00023FF91912F01992309F0B8CF892F8554E1
:100ED000833018F08052833038F444E050E0A40EA0
:100EE000B51E5FE359830FC0933631F0933779F025
:100EF000933509F056C020C0F5018081898342E016
:100F000050E0A40EB51E710101E010E012C0F50121
:100F1000E080F180D6FC03C06FEF7FEF02C0692D47
:100F200070E042E050E0A40EB51EC7010E94D30855
:100F30008C015FE7D52214C0F501E080F180D6FC7A
:100F400003C06FEF7FEF02C0692D70E042E050E018
:100F5000A40EB51EC7010E94C8088C0150E8D52A0E
:100F6000D3FE07C01AC0B30180E290E00E94DE0801
:100F7000CA948C2D90E008171907A8F30EC0F7014A
:100F8000D7FC8591D7FE81917F01B30190E00E944B
:100F9000DE08C110CA94015010400115110579F7FF
:100FA000ECC0943611F0993671F5D7FE08C0F50102
:100FB000E080F1800281138144E050E00AC0F50135
:100FC000808191817C010027F7FC0095102F42E081
:100FD00050E0A40EB51E5FE6D52217FF0AC010959B
:100FE0000095F094E094E11CF11C011D111D80E8B6
:100FF000D82A2AE030E0A101C801B7010E940A09FD
:10100000F82EF21840C0953729F41D2D1F7E2AE0D6
:1010100030E01DC01D2D197F9F3661F0903720F400
:10102000983509F0ADC00FC0903739F0983709F006
:10103000A7C004C028E030E00AC0106114FD1460AD
:1010400020E130E004C014FD166020E132E017FF1B
:1010500008C0F501608171818281938144E050E094
:1010600008C0F50180819181BC0180E090E042E000
:1010700050E0A40EB51EA1010E940A09F82EF21834
:101080008FE7D82ED122D6FE0BC05EEFD522F91401
:1010900038F4D4FE07C0D2FC05C08FEED82202C0BF
:1010A0001F2D01C0192DD4FE0DC0FE01EF0DF11D45
:1010B0008081803319F499EED92208C01F5FD2FED7
:1010C00005C003C08D2D867809F01F5F0D2DD3FC60
:1010D00014C0D0FE0FC01C1510F09F2C0BC09F2C0D
:1010E0009C0C911A1C2D06C0B30180E290E00E9476
:1010F000DE081F5F1C15C0F304C01C1510F4C11AD4
:1011000001C0CC2404FF10C0B30180E390E00E9432
:10111000DE0802FF1EC001FD03C088E790E002C0A8
:1011200088E590E0B3010CC0802F867891F001FF34
:1011300002C08BE201C080E2D7FC8DE2B30190E0F7
:101140000E94DE0806C0B30180E390E00E94DE0842
:101150009A94F914C0F3FA94F101EF0DF11DB30163
:10116000808190E00E94DE08FF20A9F706C0B3014D
:1011700080E290E00E94DE08CA94CC20C1F741CE04
:10118000F30166817781CB012B96E2E10C9484090F
:10119000FC010590615070400110D8F78095909542
:1011A0008E0F9F1F0895FC01615070400190011047
:1011B000D8F7809590958E0F9F1F08950F931F93DA
:1011C000CF93DF938C01EB018B8181FF1BC082FFEA
:1011D0000DC02E813F818C819D812817390764F4D1
:1011E000E881F9810193F983E88306C0E885F985F0
:1011F000802F0995892B31F48E819F8101969F83E1
:101200008E8302C00FEF1FEFC801DF91CF911F91B6
:101210000F910895FA01AA27283051F1203181F168
:10122000E8946F936E7F6E5F7F4F8F4F9F4FAF4FEE
:10123000B1E03ED0B4E03CD0670F781F891F9A1F01
:10124000A11D680F791F8A1F911DA11D6A0F711DB5
:10125000811D911DA11D20D009F468943F912AE0C1
:10126000269F11243019305D3193DEF6CF010895A9
:10127000462F4770405D4193B3E00FD0C9F7F6CFDA
:10128000462F4F70405D4A3318F0495D31FD4052A2
:10129000419302D0A9F7EACFB4E0A6959795879538
:1012A00077956795BA95C9F7009761057105089517
:1012B0009B01AC010A2E06945795479537952795C3
:1012C000BA95C9F7620F731F841F951FA01D08955B
:1012D0002F923F924F925F926F927F928F929F9246
:1012E000AF92BF92CF92DF92EF92FF920F931F9334
:1012F000CF93DF93CDB7DEB7CA1BDB0B0FB6F894E5
:10130000DEBF0FBECDBF09942A88398848885F8424
:101310006E847D848C849B84AA84B984C884DF8095
:10132000EE80FD800C811B81AA81B981CE0FD11D79
:101330000FB6F894DEBF0FBECDBFED010895F8944F
:02134000FFCFDD
:101342006E6F646530312564004E6F64653031C064
:10135200A802647365637265740074657374706166
:041362006B6B65004C
:00000001FF
